:100000000C949C040C94C5110C94E9110C94B90443
:100010000C94B9040C94B9040C94B9040C94B9046C
:100020000C94B9040C94B9040C94B9040C94B9045C
:100030000C94B9040C940D120C9431120C94B90464
:100040000C94B9040C94B9040C94B9040C94B9043C
:100050000C94B90405A84CCDB2D44EB93836A902D7
:100060000C50B9918688083CA6AAAA2ABE000000B6
:10007000803F6E616E00696E660000407A10F35A30
:1000800000A0724E18090010A5D4E80000E87648D8
:10009000170000E40B54020000CA9A3B000000E184
:1000A000F505000080969800000040420F00000017
:1000B000A08601000000102700000000E8030000F7
:1000C00000006400000000000A00000000000100C1
:1000D000000000002C76D888DC674F0823DFC1DFE2
:1000E000AE59E1B1B796E5E3E453C63AE6519976E5
:1000F00096E8E6C28426EB898C9B62ED407C6FFC1F
:10010000EFBC9C9F40F2BAA56FA5F490055A2AF760
:100110005C936B6CF9676DC11BFCE0E40D47FEF569
:1001200020E6B500D0ED902E0300943577050080D1
:10013000841E080000204E0A000000C80C33333330
:10014000330F986E12831141EF8D2114893BE655D0
:1001500016CFFEE6DB18D1844B381BF77C1D901DB3
:10016000A4BBE424203284725E228100C9F124EC15
:10017000A1E53D274E414E494E495459494E46CD81
:10018000CCCC3D0AD7233C17B7D13877CC2B32954E
:1001900095E6241FB14F0A000020410000C842002C
:1001A000401C4620BCBE4CCA1B0E5AAEC59D742ACC
:1001B0002A2A204D617820636F6D6D616E64206C1A
:1001C000656E677468206578636565646564202A78
:1001D0002A2A0A0025660A00534849543B20782001
:1001E000776173202566200A002573206973202516
:1001F000660A00620025732069732025660A005292
:10020000686F0025732069732025660A007468658D
:1002100074610025732069732025660A0076002525
:10022000732069732025660A00767265660025735F
:100230002069732025660A007900257320697320E0
:1002400025660A00780050617273656420636861F6
:100250007220776173202573200A004F4B41590AA1
:100260000076656C6F63697479006469720062007E
:1002700072686F004F4B41592C20255320666F75D3
:100280006E642E2053657474696E672069742066ED
:10029000726F6D20257320746F202566200A00740C
:1002A0006865746100760076726566007900780092
:1002B0005061727365642063686172207761732096
:1002C0002573200A004F4B41590A00444F4E450AFE
:1002D000004F4B41592025730A004F4B41592C20A8
:1002E0002573200A00444F4E450A004F4B41590ADE
:1002F00000444F4E450A004F4B41590A00444F4EAF
:10030000450A004F4B41590A00444F4E450A004FE1
:100310004B41590A00444F4E450A004469737461C9
:100320006E63652061746F6927642069732025649A
:10033000200A0044697374616E6365207061727392
:10034000656420696E20617320612063686172209A
:10035000776173202573200A004F4B41590A0055DD
:100360006E6B6E6F776E20636F6D6D616E643A2099
:10037000222573220A00556E6B6E6F776E20636FB5
:100380006D6D616E643A20222573220A00656E63EA
:100390003A20696E76616C696420617267756D657B
:1003A0006E7420222573222C2073796E746178205C
:1003B00069733A20656E63205B72657365745D0ACC
:1003C00000456E636F64657220636F756E7420699B
:1003D0007320256C640A00456E636F646572206348
:1003E0006F756E7420726573657420746F20300AA7
:1003F00000556E6B6E6F776E20636F6D6D616E640E
:100400003A20222573220A004E6F20417267200A8B
:10041000004172673A2025730A00436F6D6D616E6B
:10042000643A202573207C205370616365466F75A4
:100430006E643A202564207C20004552524F523A87
:1004400020547269656420746F2070617273652036
:100450004E554C4C20636F6D6D616E6420706F69FA
:100460006E7465720A00202D2D2D2D2D2D2D2D2D14
:100470002D2D2D2D2D2D2D2D2D2D2D2D2D2D2D2DAC
:100480002D2D2D2D2D2D2D2D2D2D2D2D2D2D2D2D9C
:100490002D2D2D2D2D2D2D2D2D2D2D2D2D2D2D2D8C
:1004A0002D2D2D2D2D2D200A007C202573200909AE
:1004B0000909202573200A00417661696C61626C2C
:1004C0006520636F6D6D616E64733A0A00202D2D97
:1004D0002D2D2D2D2D2D2D2D2D2D2D2D2D2D2D2D4C
:1004E0002D2D2D2D2D2D2D2D2D2D2D2D2D2D2D2D3C
:1004F0002D2D2D2D2D2D2D2D2D2D2D2D2D2D2D2D2C
:100500002D2D2D2D2D2D2D2D2D2D2D2D2D200A4335
:1005100033323036323436204255494C442044413F
:1005200054453A204E6F762031302032303137201A
:1005300031363A30383A31340A0A0A004469737461
:10054000616E6365206F662027256427200A0044BA
:10055000697374616E6365206F66202725642720A8
:100560007365747320737465705F64697374616E0E
:10057000636520666F7220272564272066726F6D81
:10058000207468697320666C6F6174202725662764
:10059000200A0044697374616E63655F6D6D202588
:1005A000640A44697374616E63655F6D2025660A31
:1005B0000054696D652027256427207365747320B6
:1005C000737465705F64697374616E636520666FD0
:1005D000722027256427200A0056656C6F636974B2
:1005E000792027256627207365742076656C6F63F4
:1005F0006974795F64656C617920746F2027256464
:10060000270A004469722073657420746F202725BF
:100610007327200A004552524F520A00436F756EED
:10062000743A25640A00456E64207461736B5F72CE
:10063000756E0A002A2A2A205461736B2063616C4C
:100640006C65642077697468204E554C4C2063615A
:100650006C6C6261636B21202A2A2A0A0A002A2A0A
:100660002A205461736B20696E636F6D706C6574C2
:1006700065206265666F7265206E6578742074729D
:10068000696767657221205B7461722F6475722FD0
:100690006D61783A2025752F25752F25755D202AE7
:1006A0002A2A0A005374617274207461736B5F723A
:1006B000756E0A00456E64207E4953520A005374D9
:1006C000617274207E4953520A00456E6420746141
:1006D000736B5F64697361626C650A005374617265
:1006E00074207461736B5F64697361626C650A0086
:1006F000456E64204953520A005374617274204954
:1007000053520A00350A00456E64207461736B5FB2
:10071000656E61626C650A00340A00330A00320AB1
:1007200000310A005374617274207461736B5F65E9
:100730006E61626C650A00456E64207461736B5F64
:10074000696E740A005374617274207461736B5F14
:10075000696E740A00252E32662C25670A005469DA
:100760006D65205B7365635D2C56616C75650A0071
:1007700025733A20657870656374696E672033204D
:10078000617267756D656E74732C2073796E746118
:10079000782069733A202573203C73616D706C6515
:1007A000733E203C616D706C69747564653E203CDD
:1007B0006672657175656E63793E0A005374617285
:1007C00074206C6F675F7461736B0A00252E32664C
:1007D0002C256C640A005374617274206C6F675F1F
:1007E0007461736B0A0025733A20657870656374D1
:1007F000696E6720706F736974697665206E756DB8
:10080000626572206F662073616D706C65730A009B
:1008100025733A20657870656374696E67203220AD
:10082000617267756D656E74732C2073796E746177
:10083000782069733A202573205B706F747C656E35
:10084000635D203C73616D706C65733E0A000A52F3
:1008500065616479210A0A000A4333323036323442
:1008600036204255494C4420444154453A204E6F6D
:100870007620313020323031372031363A30383A34
:1008800031350A0A000A5761726D696E672055702A
:100890002E2E2E0A002A2A2A2055415254207061F9
:1008A00072697479206572726F7221202A2A2A0A6D
:1008B000002A2A2A20554152542064617461206F15
:1008C00076657272756E21202A2A2A0A002A2A2A3F
:1008D0002055415254206672616D696E67206572C1
:1008E000726F7221202A2A2A0A006364696E6F706F
:1008F000737578585B65666745464700616E006EA4
:1009000066696E69747900CDCCCC3D0AD7233C175B
:10091000B7D13877CC2B329595E6241FB14F0A001A
:100920000020410000C84200401C4620BCBE4CCA0A
:100930001B0E5AAEC59D740011241FBECFE5D8E032
:10094000DEBFCDBF12E0A0E6B0E0E6EFF3E402C008
:1009500005900D92A438B107D9F724E0A4E8B2E0DD
:1009600001C01D92A436B207E1F70E94E5120C9473
:10097000F9210C9400008BB7806C8BBF08958AE03E
:1009800085BF81B381BB82B38C6082BB109284022D
:100990001092850210928602109287020C94BB047A
:1009A00020B330B381E022FB222720F9282733FB34
:1009B000332730F938278091840290918502A091E5
:1009C0008602B0918702231304C00196A11DB11DB8
:1009D00003C00197A109B109809384029093850215
:1009E000A0938602B0938702089520B330B381E0CC
:1009F00022FB222720F9282733FB332730F9382719
:100A00008091840290918502A0918602B091870224
:100A1000231304C00197A109B10903C00196A11DC8
:100A2000B11D8093840290938502A0938602B093B7
:100A3000870208952BB72F732BBF609384027093A6
:100A4000850280938602909387020C94BB04CF9317
:100A5000DF9300D000D0CDB7DEB78BB78F738BBFDD
:100A60006091840270918502809186029091870244
:100A700069837A838B839C830E94BB0469817A811A
:100A80008B819C810F900F900F900F90DF91CF91F1
:100A90000895CF93DF9300D000D0CDB7DEB78BB7EA
:100AA0008F738BBF60918402709185028091860262
:100AB0009091870210928402109285021092860211
:100AC0001092870269837A838B839C830E94BB0484
:100AD00069817A818B819C810F900F900F900F908C
:100AE000DF91CF910895FC0111821082138212824E
:100AF0000895FC01408151812281338181E090E0A1
:100B00004217530711F080E090E00895CF93DF93F0
:100B1000FC0120813181C281D381C90101966481A8
:100B200075810E94351D9C0181E090E02C173D07E6
:100B300011F080E090E0DF91CF9108950F931F9323
:100B4000CF93DF931F92CDB7DEB78C0169830E94EC
:100B500086056981892BC1F4D8018D919C911197EB
:100B60001696ED91FC911797E80FF91F60838D9110
:100B70009C911197019614966D917C9115970E9406
:100B8000351DF801918380830F90DF91CF911F91E4
:100B90000F910895FC012081318182819381281772
:100BA000390791F082819381A681B781A80FB91F7F
:100BB0002C91828193810196648175810E94351DFB
:100BC00093838283822F089580E00895FC018481BD
:100BD000958101970895DC0111961C921E9214963E
:100BE000ED91FC91159710820895FC0181E0208120
:100BF0003181232B09F080E00895FC0181E04081E0
:100C00005181228133814217530708F480E008950F
:100C1000FC01208131812115310521F0215031095C
:100C2000318320830895DC012D913C91119721158A
:100C3000310559F01496ED91FC9115972E0F3F1F39
:100C4000F901319781E09081911180E081700895E0
:100C5000DC012D913C91119712964D915C91139767
:100C60002417350778F4FC0144815581F901319648
:100C7000ED93FC93FA01E20FF31F60830E941306C9
:100C800090E008958FEF9FEF0895683019F40E9467
:100C900008060CC06D3051F06A3031F4FC0120813F
:100CA0003181232B19F060E00C94280680E090E05D
:100CB00008950F931F93CF93DF938C01EB0180E096
:100CC00090E06991662329F0C8010E94450697FFCC
:100CD000F8CFDF91CF911F910F9108950F931F933C
:100CE000CF93DF938C01EB010E941306882359F008
:100CF000F80180819181C817D90728F484819581F2
:100D00008C0F9D1F02C080E090E0DF91CF911F917A
:100D10000F91089560E070E00C946E060F931F939E
:100D2000CF93DF93EC010FEA11E080915C04909186
:100D30005D040E942B1F8F3F2FEF920709F1682F50
:100D4000CE010E9445068F3F2FEF920769F0019771
:100D500061F7CE010E948A060E942D0B198218822B
:100D6000EC81FD811082E1CF1F930F930E94A11FA0
:100D700019821882EC81FD8110820F900F90D5CFDF
:100D8000DF91CF911F910F9108950C94380C9F9390
:100D90008F938FE593E09F938F930E94A11F0F90F5
:100DA0000F900F900F9008950F931F93CF93DF93A1
:100DB0008DEC94E09F938F930E94A11F88EB94E0A9
:100DC0009F938F930E94A11FC0E6D0E00F900F90D9
:100DD0000F900F9009EA14E08D818F938C818F938F
:100DE00089818F9388818F931F930F930E94A11FF6
:100DF0002FEF8FE794E0215080409040E1F700C052
:100E0000000026960F900F900F900F900F900F906C
:100E100020E0C83AD20701F786E694E09F938F93CB
:100E20000E94A11F0F900F90DF91CF911F910F9102
:100E30000895CF93DF93D82FC92F89E593E09F932F
:100E40008F930E94A11FCF93DF9383E393E09F933F
:100E50008F930E94A11F8D2F9C2F0E94981D9F93FE
:100E60008F938BE193E09F938F930E94A11F8D2F0F
:100E70009C2F0E94981D0E94570D85E193E09F933F
:100E80008F930E94A11F8DB79EB70C960FB6F89452
:100E90009EBF0FBE8DBFDF91CF910895CF93DF939B
:100EA000EC012FE033E03F932F930E94A11FCE016E
:100EB0000E94981D0E940C0D89E093E09F938F93F0
:100EC0000E94A11F0F900F900F900F90DF91CF9174
:100ED0000895CF93DF93EC012BEE32E03F932F93F5
:100EE0000E94A11FCE010E94981D0E94DD0D85EE7B
:100EF00092E09F938F930E94A11F0F900F900F90ED
:100F00000F90DF91CF910895CF93DF9300D000D061
:100F1000CDB7DEB79F938F938AED92E09F938F9327
:100F20000E94A11F8EEF90E09A83898382E091E076
:100F30009C838B83BE016F5F7F4F83E090E00E94B4
:100F400075110F900F900F900F900F900F900F90C2
:100F50000F90DF91CF910895CF92DF92EF92FF92A1
:100F60000F931F93CF93DF93CDB7DEB7C05AD1094C
:100F70000FB6F894DEBF0FBECDBFD82EC92E66E0E7
:100F800071E00E94C31E00E010E0E12CF12C0097FC
:100F9000A1F0E1E0F0E0EC0FFD1FEE0DFF1D9183ED
:100FA000808366E071E080E090E00E94C31E0F5FE6
:100FB0001F4F22E0E20EF11CEACFF801EE0FFF1FF7
:100FC00081E090E08C0F9D1FE80FF91F11821082C5
:100FD000CF92DF9281ED92E09F938F930E94A11FA9
:100FE000BE016F5F7F4FC8010E94B5108BEC92E08D
:100FF0009F938F930E94A11F0F900F900F900F90BF
:101000000F900F90C056DF4F0FB6F894DEBF0FBEA3
:10101000CDBFDF91CF911F910F91FF90EF90DF90A7
:10102000CF9008950F931F93CF93DF93EC0185EC3E
:1010300092E09F938F930E94A11FDF93CF9380EB49
:1010400092E09F938F930E94A11F19828E010E5FE1
:101050001F4F41E050E06EEA72E0CE010E94AA1EEE
:101060000F900F900F900F900F900F90892B61F4BD
:10107000C8010E94941D6093A0027093A102809306
:10108000A2029093A302BEC041E050E06CEA72E07D
:10109000CE010E94AA1E892B61F4C8010E94941DF2
:1010A00060939C0270939D0280939E0290939F0296
:1010B000A9C041E050E067EA72E0CE010E94AA1E9A
:1010C000892B61F4C8010E94941D6093980270936B
:1010D000990280939A0290939B0294C041E050E061
:1010E00065EA72E0CE010E94AA1E892B61F4C80154
:1010F0000E94941D609394027093950280939602CF
:10110000909397027FC041E050E06FE972E0CE011A
:101110000E94AA1E892B41F58E010A5F1F4FC8014C
:101120000E94941D9F938F937F936F931F930F93B0
:10113000DF93CF9384E792E09F938F930E94A11F48
:10114000C8010E94941D6093900270939102809355
:101150009202909393028DB79EB70A960FB6F894B9
:101160009EBF0FBE8DBF4EC041E050E060E772E011
:10117000CE010E94AA1E892B61F4C8010E94941D11
:1011800060938C0270938D0280938E0290938F02F5
:1011900039C041E050E06EE672E0CE010E94AA1E26
:1011A000892B61F4C8010E94941D6093880270939A
:1011B000890280938A0290938B0224C041E050E020
:1011C0006AE672E0CE010E94AA1E892B41F4CE018C
:1011D0000496DF91CF911F910F910C94800C41E008
:1011E00050E061E672E0CE010E94AA1E892B51F404
:1011F000CE0109960E94941DDF91CF911F910F910E
:101200000C94C90CDF91CF911F910F910895EF922B
:10121000FF920F931F93E0909402F090950200913B
:101220009602109197022091900230919102409184
:1012300092025091930260919C0270919D02809164
:101240009E0290919F020E94380E9F938F9384ED8F
:1012500091E09F938F930E94A11F0F900F900F908A
:101260000F901F910F91FF90EF900895CF93DF9310
:10127000EC01BC0188E091E00E94D31E892B71F43F
:1012800060E070E0CB010E941A0587ED93E09F9328
:101290008F930E94A11F0F900F9022C0888181110F
:1012A00013C00E9427059F938F937F936F9381ECC8
:1012B00093E09F938F930E94A11F0F900F900F9028
:1012C0000F900F900F900CC0DF93CF938DE893E0B9
:1012D0009F938F930E94A11F0F900F900F900F90DC
:1012E000DF91CF910895CF93DF93EC018BE592E0EE
:1012F0009F938F930E94A11FDF93CF9386E492E088
:101300009F938F930E94A11F41E050E064E472E03C
:10131000CE010E94AA1E0F900F900F900F900F9079
:101320000F90892BE9F48091A3028F938091A20200
:101330008F938091A1028F938091A0028F93DF936E
:10134000CF938AE392E09F938F930E94A11F8DB762
:101350009EB708960FB6F8949EBF0FBE8DBFFCC017
:1013600041E050E068E372E0CE010E94AA1E892BA2
:10137000E9F480919F028F9380919E028F938091D8
:101380009D028F9380919C028F93DF93CF938EE287
:1013900092E09F938F930E94A11F8DB79EB70896EE
:1013A0000FB6F8949EBF0FBE8DBFD6C041E050E08F
:1013B00069E272E0CE010E94AA1E892BE9F48091B5
:1013C0009B028F9380919A028F93809199028F93C1
:1013D000809198028F93DF93CF938FE192E09F9358
:1013E0008F930E94A11F8DB79EB708960FB6F894F1
:1013F0009EBF0FBE8DBFB0C041E050E06DE172E016
:10140000CE010E94AA1E892BE9F4809197028F9346
:10141000809196028F93809195028F938091940290
:101420008F93DF93CF9383E192E09F938F930E94FA
:10143000A11F8DB79EB708960FB6F8949EBF0FBE3A
:101440008DBF8AC041E050E06DE072E0CE010E94A5
:10145000AA1E892BE9F4809193028F9380919202C6
:101460008F93809191028F93809190028F93DF935D
:10147000CF9383E092E09F938F930E94A11F8DB73B
:101480009EB708960FB6F8949EBF0FBE8DBF64C07E
:1014900041E050E06FEF71E0CE010E94AA1E892B5F
:1014A000E9F480918F028F9380918E028F938091C7
:1014B0008D028F9380918C028F93DF93CF9385EF72
:1014C00091E09F938F930E94A11F8DB79EB70896BE
:1014D0000FB6F8949EBF0FBE8DBF3EC041E050E0F6
:1014E00063EF71E0CE010E94AA1E892BE9F480917E
:1014F0008B028F9380918A028F93809189028F93C0
:10150000809188028F93DF93CF9389EE91E09F9330
:101510008F930E94A11F8DB79EB708960FB6F894BF
:101520009EBF0FBE8DBF18C08091A3028F93809184
:10153000A2028F938091A1028F938091A0028F933A
:1015400088ED91E09F938F930E94A11F0F900F90C1
:101550000F900F900F900F90DF91CF9108956093AF
:10156000A0027093A1028093A2029093A302089517
:1015700060939C0270939D0280939E0290939F02C1
:101580000895609398027093990280939A029093C1
:101590009B02089560939402709395028093960243
:1015A00090939702089560939002709391028093B4
:1015B000920290939302089560938C0270938D022F
:1015C00080938E0290938F020895609388027093A7
:1015D000890280938A0290938B0208956091A00201
:1015E0007091A1028091A2029091A302089560914E
:1015F0009C0270919D0280919E0290919F0208959D
:10160000609198027091990280919A0290919B0248
:101610000895609194027091950280919602909144
:1016200097020895609190027091910280919202C8
:1016300090919302089560918C0270918D02809137
:101640008E0290918F0208956091880270918902B4
:1016500080918A0290918B0208954F925F926F92CF
:101660007F928F929F92AF92BF92CF92DF92EF9232
:10167000FF920F931F93CF93DF93CDB7DEB7C05583
:10168000D1090FB6F894DEBF0FBECDBF3C01009765
:1016900039F48AE394E09F938F930E94A11F75C051
:1016A0005090A8004090A90060E270E00E94C81E1F
:1016B0005C014C018618970880E6C82E80E0D82E81
:1016C000E12CF12CA114B10459F46AE070E0C301DB
:1016D0000E94C81E009731F08C010619170904C03A
:1016E000840102C0052D142DF60160817181A801CD
:1016F000C3010E94E31E892B09F04AC01F930F9378
:101700007F926F928AE194E09F938F930E94A11F32
:10171000B8016F5F7F4F660D771D8E010F5F1F4F02
:10172000C8010E94DC1E0F900F900F900F900F9039
:101730000F90892BB1F01F930F9381E194E09F9359
:101740008F930E94A11F86E08E9DF0018F9DF00D6A
:101750001124E05AFF4F0280F381E02DC801099562
:101760002AC088E094E09F938F930E94A11F86E097
:101770008E9DF0018F9DF00D1124E05AFF4F0280E5
:10178000F381E02D87E091E009950F900F9017C04D
:10179000FFEFEF1AFF0A86E0C80ED11CECE0EE1650
:1017A000F10409F08FCF7F926F9281EF93E09F93C6
:1017B0008F930E94A11F0F900F900F900F90C05B0E
:1017C000DF4F0FB6F894DEBF0FBECDBFDF91CF91D4
:1017D0001F910F91FF90EF90DF90CF90BF90AF904F
:1017E0009F908F907F906F905F904F9008959F9300
:1017F0008F9386E793E09F938F930E94A11F0F9092
:101800000F900F900F900895CF93DF93EC0123E09A
:1018100033E03F932F930E94A11FCE010E94941D9D
:101820000E94C90C8DEF92E09F938F930E94A11F9D
:101830000F900F900F900F90DF91CF910895CF935D
:10184000DF93EC0127EF32E03F932F930E94A11F1B
:10185000CE010E94800C81EF92E09F938F930E94B3
:10186000A11F0F900F900F900F90DF91CF910895CF
:1018700081B38C6F81BB929A959829E130E08AE020
:1018800090E0939A969AE2ECF5E03197F1F700C078
:1018900093989698E2ECF5E03197F1F700C0019744
:1018A00081F7FFEF4FE382E0F15040408040E1F7E5
:1018B00000C000002150310911F79298959A29E152
:1018C00030E08AE090E0939A969AE2ECF5E0319766
:1018D000F1F700C093989698E2ECF5E03197F1F7B4
:1018E00000C0019781F7FFEF4FE382E0F1504040E5
:1018F0008040E1F700C000002150310911F7BBCF53
:10190000CF93DF93EC01BC0186E692E00E94D31EE8
:10191000892B11F4929A11C0BE018FE692E00E94C9
:10192000D31E892B11F4929812C0BE0189E792E070
:101930000E94D31E892B19F49298959812C0BE016B
:101940008EE792E00E94D31E892B19F4929A959A01
:1019500008C085E196E09F938F930E94A11F0F908E
:101960000F90DF93CF9383E096E09F938F930E9435
:10197000A11F0F900F900F900F90DF91CF910895BE
:1019800081B38C6F81BB9498979886E692E00C9413
:10199000800C0F931F93CF93DF93EB01182F092F28
:1019A0009B01482F592F6FEC7FE089EC91E40E9456
:1019B000021B0E94741BEAEAF0E060837183628379
:1019C00073837F936F930F931F93DF93CF9389ED6F
:1019D00095E09F938F930E94A11F8DB79EB70896A5
:1019E0000FB6F8949EBF0FBE8DBFDF91CF911F91B0
:1019F0000F910895009739F0E6E6FEE03197F1F790
:101A000000000197F7CF0895009729F025E02A9567
:101A1000F1F70197F9CF0895EF92FF920F931F937B
:101A2000CF93DF939C018091AA009091AB0068EE68
:101A300073E00E94491DC9010E94491DEB01DF931B
:101A40006F933F932F9381EB95E09F938F930E9429
:101A5000A11F0F900F900F900F900F900F9000E02C
:101A600010E00C171D07E4F48AE0E82EF12C939A9D
:101A7000969A80E991E00E94040D9398969880E9E7
:101A800091E00E94040D81E0E81AF10881F780914D
:101A9000AA009091AB000E94FA0C0F5F1F4FE1CF9C
:101AA000DF91CF911F910F91FF90EF900895AF922A
:101AB000BF92CF92DF92EF92FF920F931F93CF933B
:101AC000DF9300D0CDB7DEB75C01BC01990F880B66
:101AD000990B0E94AC1B20E030E04AE754E40E94DE
:101AE000021B8C011F938F937F936F93BF92AF92D2
:101AF00083E995E09F938F9369837A830E94A11F66
:101B000028E539E344EB5DE369817A81802F912FE9
:101B10000E94021B20E030E040EA51E40E94381CA1
:101B2000162F072FD82EC92EA8019601652F742FC6
:101B3000832F922F0E94741B7B01CF92DF920F9311
:101B40001F937F936F93BF92AF928FE495E09F9323
:101B50008F930E94A11F0FB6F894DEBF0FBECDBFBA
:101B6000C12CD12CCE14DF04DCF40AE010E0939AEF
:101B7000969A80E991E00E94040D9398969880E9E6
:101B800091E00E94040D0150110989F78091AA008B
:101B90009091AB000E94FA0C9FEFC91AD90AE2CFCC
:101BA0000F900F90DF91CF911F910F91FF90EF90C9
:101BB000DF90CF90BF90AF900895EF92FF920F9378
:101BC0001F93CF93DF93EC01DF93CF938CE395E0EA
:101BD0009F938F930E94A11F0F900F900F900F90D3
:101BE00000E010E00C171D07E4F48AE0E82EF12C69
:101BF000939A969A80E991E00E94040D93989698A2
:101C000080E991E00E94040D81E0E81AF10881F773
:101C10008091AA009091AB000E94FA0C0F5F1F4FB9
:101C2000E1CFDF91CF911F910F91FF90EF90089539
:101C30008091A40208958093A40208951092A902AD
:101C40001092AA021092AB021092AC020895FC010D
:101C500080819181A281B3818093A9029093AA028D
:101C6000A093AB02B093AC02089589EA92E0089584
:101C70008F929F92AF92BF92CF92DF92EF92FF929C
:101C8000CF93DF93EC01C090A902D090AA02E0901C
:101C9000AB02F090AC022FE832EC44E152E4C70111
:101CA000B6010E94381C20E030E0A9010E94961A7B
:101CB0004B015C016093A5027093A6028093A7027A
:101CC0009093A80229E537E149E950EC68817981D0
:101CD0008A819B810E94381C9B01AC01C501B40123
:101CE0000E94961A4B015C0129E537E149E950E46D
:101CF0006C817D818E819F810E94381C9B01AC018B
:101D0000C501B4010E94961A4B015C012FE135E038
:101D10004EEE52E4688579858A859B850E94381C41
:101D20009B01AC01C501B4010E94961A6093A50203
:101D30007093A6028093A7029093A8022BED35E83A
:101D400046E45FE3C701B6010E94381C20E030E0A2
:101D5000A9010E94961A6B017C0121E039E14AEB4E
:101D60005CE3688179818A819B810E94381C9B0198
:101D7000AC01C701B6010E94961A6B017C0121E0FB
:101D800039E14AEB5CEB6C817D818E819F810E9401
:101D9000381C9B01AC01C701B6010E94961A6B0169
:101DA0007C012DE03BEA40E15FEB688579858A851F
:101DB0009B850E94381C9B01AC01C701B6010E94A3
:101DC000961A6093A9027093AA028093AB02909333
:101DD000AC0285EA92E0DF91CF91FF90EF90DF9027
:101DE000CF90BF90AF909F908F9008958EEB96E02C
:101DF0009F938F930E94A11F89B78F7789BF84EB30
:101E000096E09F938F930E94A11F0F900F900F90C9
:101E10000F9008958091AD02089584E297E09F931A
:101E20008F930E94A11F1092AD0281E297E09F93D1
:101E30008F930E94A11F14BC85B5856085BD8EE17E
:101E400097E09F938F930E94A11F89EF96E09F9345
:101E50008F930E94A11F80EF96E09F938F930E9423
:101E6000A11F8BE197E09F938F930E94A11F88E1B0
:101E700097E09F938F930E94A11F87E097E09F9325
:101E80008F930E94A11F84E097E09F938F930E94FD
:101E9000A11F8DB79EB742960FB6F8949EBF0FBE96
:101EA0008DBF08958CED96E09F938F930E94A11FA4
:101EB0000E94F60E85B58A7F85BD1092AD028AEC30
:101EC00096E09F938F930E94A11F0F900F900F9009
:101ED0000F90089585E497E09F938F930E94A11F30
:101EE0008C9A88E385BD8FEF83BD0E94520F1092BC
:101EF000AF021092AE0287E397E09F938F930E9408
:101F0000A11F0F900F900F900F90089589B7881F11
:101F10008827881F08959093AF028093AE0208959A
:101F20008091AE029091AF0208950F931F93CF93CB
:101F3000DF9303B5C9B7CC1FCC27CC1F11F00E948B
:101F4000F60E1091AD02D4B5CC2381F089EF96E066
:101F50009F938F930E94A11F80EF96E09F938F9392
:101F60000E94A11F0F900F900F900F908D2F90E067
:101F7000019F800D911D1124DF91CF911F910F9131
:101F800008950F931F93CF93DF9384EA96E09F9376
:101F90008F930E94A11F0F900F908091AE0290919D
:101FA000AF02892B61F11092AD020E94950F8C0156
:101FB000E091AE02F091AF0209950E94950FEC01FD
:101FC0008091AD02882329F10E94520F83B51F92A0
:101FD0008F939E01201B310B3F932F931F930F93E1
:101FE0008EE596E09F938F930E94A11F8DB79EB7B9
:101FF00008960FB6F8949EBF0FBE8DBF0AC00E9410
:10200000520F84E396E09F938F930E94A11F0F903D
:102010000F9086E296E09F938F930E94A11F0F90EE
:102020000F90DF91CF911F910F9108958091AD0294
:102030008F5F8093AD028091AD021F928F938CE1F0
:1020400096E09F938F930E94A11F92B380E189270E
:1020500082BB0F900F900F900F900895CF92DF9258
:10206000EF92FF920F931F93CF93DF93C090B8022C
:10207000D090B902E090BA02F090BB0225E236E0BF
:1020800049EC50E46091B0027091B1028091B202CB
:102090009091B3020E94381CE6019E014E2D5F2DE7
:1020A0000E94381C0E94A51C2091B4023091B502F8
:1020B0004091B6025091B7020E94381C9F938F93B3
:1020C0007F936F93FF92EF92DF93CF9385E597E035
:1020D0009F938F930E94A11F2AE037ED43E25CE3B8
:1020E0006091B8027091B9028091BA029091BB02DE
:1020F0000E94961A6093B8027093B9028093BA0254
:102100009093BB028091BC029091BD02A091BE024F
:10211000B091BF020197A109B1098093BC029093CD
:10212000BD02A093BE02B093BF022DB73EB7265F9B
:102130003F4F0FB6F8943EBF0FBE2DBF892B8A2BA1
:102140008B2B51F4DF91CF911F910F91FF90EF9066
:10215000DF90CF900C94520FDF91CF911F910F9190
:10216000FF90EF90DF90CF900895CF93DF93EB0136
:102170000497A9F0888199819F938F939F938F9360
:1021800080E797E09F938F930E94A11F0F900F907D
:102190000F900F900F900F90DF91CF9108958A814B
:1021A0009B810E94981D092E000CAA0BBB0B8093EB
:1021B000BC029093BD02A093BE02B093BF028C817B
:1021C0009D810E94941D6093B4027093B502809328
:1021D000B6029093B7028E819F810E94941D6093F6
:1021E000B0027093B1028093B2029093B302109246
:1021F000B8021092B9021092BA021092BB028EE598
:1022000097E09F938F930E94A11F8EE290E10E941E
:102210008B0F0F900F90DF91CF910C940D0F86EDE7
:1022200097E09F938F930E94A11F0F900F90809132
:10223000C4029091C502892B01F50E9427059F9346
:102240008F937F936F938091C3028F938091C2028B
:102250008F938091C1028F938091C0028F938CECF9
:1022600097E09F938F930E94A11F8DB79EB70A9608
:102270000FB6F8949EBF0FBE8DBF2AE037ED43E244
:102280005CE36091C0027091C1028091C2029091A2
:10229000C3020E94961A6093C0027093C102809399
:1022A000C2029093C3028091C6029091C702A0918E
:1022B000C802B091C9020197A109B1098093C60271
:1022C0009093C702A093C802B093C902892B8A2BAE
:1022D0008B2B11F40E94520F8CEB97E09F938F93FE
:1022E0000E94A11F0F900F900895CF93DF93EB01F1
:1022F000039799F0888199819F938F939F938F93F0
:1023000080E198E09F938F930E94A11F0F900F9000
:102310000F900F900F900F9035C08C819D810E947F
:10232000981D97FF0FC089818F9388818F9386EEC8
:1023300097E09F938F930E94A11F0F900F900F9093
:102340000F9020C085E090E0A0E0B0E08093C6024E
:102350009093C702A093C802B093C9021092C00222
:102360001092C1021092C2021092C3021092C502D2
:102370001092C4028FE091E10E948B0FDF91CF9108
:102380000C940D0FDF91CF9108951F920F920FB60D
:102390000F9211242F933F934F935F936F937F93EB
:1023A0008F939F93AF93BF93EF93FF930E94D004BB
:1023B000FF91EF91BF91AF919F918F917F916F911D
:1023C0005F914F913F912F910F900FBE0F901F90F3
:1023D00018951F920F920FB60F9211242F933F93CF
:1023E0004F935F936F937F938F939F93AF93BF931D
:1023F000EF93FF930E94F504FF91EF91BF91AF918E
:102400009F918F917F916F915F914F913F912F910C
:102410000F900FBE0F901F9018951F920F920FB63E
:102420000F9211242F933F934F935F936F937F935A
:102430008F939F93AF93BF93EF93FF930E94CB1221
:10244000FF91EF91BF91AF919F918F917F916F918C
:102450005F914F913F912F910F900FBE0F901F9062
:1024600018951F920F920FB60F9211242F933F933E
:102470004F935F936F937F938F939F93AF93BF938C
:10248000EF93FF930E94D712FF91EF91BF91AF910D
:102490009F918F917F916F915F914F913F912F917C
:1024A0000F900FBE0F901F9018958AEC90E00E943D
:1024B0007905892B41F48AEC90E00E94CA05082E28
:1024C000000C990B08958FEF9FEF0895CF93DF9342
:1024D0001F92CDB7DEB7682F82EC90E069830E942F
:1024E00086056981892BC1F782EC90E00E949E05E8
:1024F000559A80E090E00F90DF91CF9108958AEC9B
:1025000090E00E94730510BC87E089B988EB8AB916
:1025100086E880BDECE5F4E084EB90E09183808375
:10252000938382838AEC90E00E94730582EC90E0B2
:102530000C947305CF93DF931F92CDB7DEB79BB199
:1025400099838CB19C7111F1898184FF08C08DEC55
:1025500098E09F938F930E94A11F0F900F90898105
:1025600083FF08C081EB98E09F938F930E94A11F87
:102570000F900F90898182FF08C085E998E09F93B2
:102580008F930E94A11F0F900F908FEF90E00F90FC
:10259000DF91CF9108950E949A128F3F2FEF9207FB
:1025A00029F0682F8AEC90E00C949E05089582EC47
:1025B00090E00E947905892B11F05598089582ECDE
:1025C00090E00E94CA058CB908950E947F1285E8A8
:1025D00098E09F938F930E94A11F2FEF8FEF99E5B3
:1025E000215080409040E1F700C0000088E598E06D
:1025F0009F938F930E94A11F0E94BF040E946A0FA5
:1026000078942FEF8FEF99E5215080409040E1F7CB
:1026100000C000008EE498E09F938F930E94A11F5A
:102620000F900F900F900F900F900F900E940A0F35
:10263000882319F00E94C10FF9CF8EEA90E00E9422
:102640008E06F4CFA3E1B0E0E8E2F3E10C945D1D67
:102650006C014B012A01FC0117821682838181FFE4
:1026600043C3AE014F5F5F4F3A01F6019381F4011E
:1026700093FD859193FF81914F01882309F430C325
:10268000853239F493FD859193FF81914F01853215
:1026900039F4B60190E00E94691F52012501E5CF8F
:1026A00010E0F12C20E02032A0F48B3269F030F4FD
:1026B000803259F0833269F420612CC08D3239F0B8
:1026C000803339F4216026C02260246023C0286052
:1026D00021C027FD27C030ED380F3A3078F426FFAF
:1026E00006C0FAE01F9F300D1124132F13C04AE0DB
:1026F000F49E300D1124F32E20620CC08E3221F492
:1027000026FDEEC2206406C08C3611F4206802C09B
:10271000883641F4F40193FD859193FF81914F0137
:102720008111C1CF9BEB980F933018F42061805E2C
:1027300006C09BE9980F933008F071C12F7E26FFE9
:1027400016E02F73322E853619F42064322E08C01D
:10275000863621F4F22FF0683F2E02C0111111507D
:1027600037FE07C01C3350F4EE24E394E10E27E05B
:102770000BC0183038F027E017E005C027E04CE325
:10278000E42E02C0212FE12C520144E0A40EB11C22
:10279000F20160817181828193810E2DA3010E94DB
:1027A000B61D2C01098100FF02C003FF07C031FCE8
:1027B00008C032FE09C030E2232E07C02DE2222ECF
:1027C00004C09BE2292E01C0212C802F8C7019F0AF
:1027D000211068C2A8C237FE0FC0E40C04FF04C079
:1027E0008A81813309F4EA941E1474F5F8E0FE1529
:1027F00078F588E0E82E2CC036FC2AC0812F90E0C6
:10280000841595059CF02CEF42162FEF520674F0BC
:10281000432D4068342E0AC0E2E0F0E0EC0FFD1FCB
:10282000E10FF11D8081803319F411501111F4CFA3
:1028300037FE0EC0EE24E394E10E812F90E048169F
:1028400059062CF4141904C0EE24E39401C010E0DE
:1028500037FE06C01414150434F4C201019605C0F5
:1028600085E090E002C081E090E021100196112304
:1028700031F0212F30E02F5F3F4F820F931F2F2D1C
:1028800030E08217930714F4F81A01C0F12C832D5D
:10289000897049F4FF2039F0B60180E290E00E948F
:1028A000691FFA94F7CF222029F0B601822D90E01B
:1028B0000E94691F33FC09C0FF2039F0B60180E394
:1028C00090E00E94691FFA94F7CF37FE5AC0942D0A
:1028D000852D57FE02C090E080E0292E382E20E0A2
:1028E00030E0A2014E1951095D874C87A2014219BF
:1028F00053095F874E87612F70E044275527461B99
:10290000570B598B488B5FEF2516350649F4B601F6
:102910008EE290E02A8B3B8B0E94691F3B892A89BB
:10292000421453046CF04C855D854215530544F404
:10293000EE85FF85E20FF31FE60DF71D818101C0D3
:1029400080E351E0251A31082F5F3F4F48895989AC
:10295000241635064CF0B60190E02A8B3B8B0E9482
:10296000691F2A893B89CFCF2414350439F49A8111
:10297000963318F4953311F404FF81E3B60190E027
:102980004BC08A81813309F00F7EB60190E00E942E
:10299000691F111105C034FC18C085E690E017C00E
:1029A000B6018EE290E00E94691F82E0EE24E3947B
:1029B000E80EF301E80FF11D8081B60190E00E945E
:1029C000691F11508E2D91F7E6CF85E490E0B60196
:1029D0000E94691F57FC05C04114510439F404FFDB
:1029E00005C05194419451088DE201C08BE2B601BB
:1029F00090E00E94691F80E39AE0491651042CF090
:102A00008F5F5AE0451A5108F7CFB60190E00E9457
:102A1000691FB601C201C0960E94691F57C1833663
:102A200031F0833779F0833509F058C021C0520165
:102A3000E2E0AE0EB11CF2018081898301E010E07A
:102A4000230114C05201F2E0AF0EB11CF20140802C
:102A5000518026FF03C0612F70E002C06FEF7FEF4F
:102A6000C2012A8B0E94F11E8C012A892F7715C082
:102A70005201F2E0AF0EB11CF2014080518026FFFE
:102A800003C0612F70E002C06FEF7FEFC2012A8B9D
:102A90000E94B81E8C012A892068322E23FD1AC09C
:102AA0008F2D90E008171907A8F4B60180E290E096
:102AB0000E94691FFA94F4CFF20137FC859137FE2A
:102AC00081912F01B60190E00E94691FF110FA94E4
:102AD000015011090115110579F7F8C0843611F07C
:102AE000893659F5520127FF09C0F4E0AF0EB11C39
:102AF000F20160817181828193810AC0F2E0AF0EA0
:102B0000B11CF20160817181072E000C880B990BBA
:102B10002F76322E97FF09C090958095709561951C
:102B20007F4F8F4F9F4F2068322E2AE030E0A30165
:102B30000E94E01FE82EE6183FC0022F853721F4DF
:102B40000F7E2AE030E01DC0097F8F3691F018F427
:102B5000883559F0C5C0803719F0883711F0C0C0EA
:102B6000006104FF09C0046007C024FF08C00660BC
:102B700006C028E030E005C020E130E002C020E1DE
:102B800032E0520107FF09C0F4E0AF0EB11CF201C0
:102B9000608171818281938108C0F2E0AF0EB11C27
:102BA000F2016081718180E090E0A3010E94E01F4A
:102BB000E82EE6180F77302E36FE0BC0332D3E7F01
:102BC000E11650F434FE0AC032FC08C0332D3E7EBC
:102BD00005C00E2D332D03C00E2D01C0012F34FF73
:102BE0000CC0FE01EE0DF11D8081803311F4397EA1
:102BF00008C032FF05C00E5F04C0832F867809F03D
:102C00000F5F33FD13C030FF06C01E2D0F1518F4E3
:102C10001F0D101B0F2D0F1568F4B60180E290E018
:102C20003B8B0E94691F0F5F3B89F5CF0F1510F496
:102C3000F01A01C0F12C34FF12C0B60180E390E01D
:102C40003B8B0E94691F3B8932FF17C031FD03C0D7
:102C500088E790E002C088E590E0B6010CC0832FC1
:102C6000867859F031FF02C08BE201C080E237FD67
:102C70008DE2B60190E00E94691FE11638F4B601BA
:102C800080E390E00E94691F1150F7CFEA94F301AE
:102C9000EE0DF11D8081B60190E00E94691FE110E8
:102CA000F5CF14C0F4E0FF1558F584E0F81A33FEB0
:102CB0001EC0211026C003FF2AC002E710E0F32D3A
:102CC000F0713F2EF8018491811124C0FF2009F496
:102CD000E5CCB60180E290E00E94691FFA94F6CF3D
:102CE000F6018681978126C08FEF9FEF23C0B60142
:102CF00080E290E00E94691FFA94F110F8CFD9CFDA
:102D0000F12CB601822D90E00E94691FD4CF06E716
:102D100010E0D5CF31108052B60190E00E94691FBB
:102D20000F5F1F4FCFCF23E02F1510F483E0BECFEE
:102D3000F12CC1CF6396E2E10C94791D20FD09C00E
:102D4000FC0123FD05C022FF02C07383628351830F
:102D50004083089544FD10C046FD10C0DB01FC0116
:102D6000AA0FBB1FEE1FFF1F1094D1F76A0F7B1F26
:102D70008E1F9F1F31E003C033E001C034E0660FB7
:102D8000771F881F991F3150D1F7620F711D811D68
:102D9000911D08950F931F93CF93DF938C01C8016A
:102DA0000E942B1FEC0197FD08C00E948E1E892BEC
:102DB000B1F7B801CE010E94C71FCE01DF91CF91BC
:102DC0001F910F910895A0E0B0E0E9EEF6E10C94B8
:102DD000631D7C018B016A01D22F0E942B1F9C0175
:102DE00033272B32310521F02D32310559F4D068CB
:102DF0000150110911F480E069C0C7010E942B1F26
:102E000097FDF9CFCD2FCD7F2D2F207309F580337E
:102E1000F9F4580181E0A81AB10809F443C0C701C8
:102E20000E942B1F97FD3EC0282F2F7D283551F47F
:102E3000C26402501109B1F1C7010E942B1F97FF14
:102E400007C030C0D6FF02C0C26001C0C2618501A8
:102E5000812C912C540120ED280F283080F0C4FFE4
:102E600004C0B7010E94C71F1AC02A3040F0C6FF35
:102E7000F8CF2F7D3FEE320F363098F727504C2F8A
:102E8000C501B4010E94AA164B015C01C260015049
:102E9000110959F0C7010E942B1F97FFDCCFC1FD1C
:102EA00004C0A9CF812C912C5401C7FF08C0B09455
:102EB000A09490948094811C911CA11CB11C2C2F77
:102EC000B501A401C6010E949E1681E0CDB7DEB710
:102ED000ECE00C947F1DA0E2B0E0E1E7F7E10C9498
:102EE0005F1D4C015B017A018E010F5F1F4F68016E
:102EF00080E2F80111928A95E9F7F401638040E0DD
:102F000050E0712C412C80E0A1E0B0E0F90163FCBD
:102F1000559063FE51908F01952D9F01511003C074
:102F200080E090E080C0FEE55F1203C041155105CE
:102F300061F1682F70E0641775074CF46DE5561663
:102F400069F1EDE25E1203C0442009F103C04110B3
:102F500001C0752C692F669566956695F601E60F9A
:102F6000F11D692F67708D0102C0000F111F6A9556
:102F7000E2F7B8017081672B6083971559F09715B8
:102F800010F49F5FE7CF9150E5CF81E004C0442467
:102F9000439401C0412C4F5F5F4FB8CF442019F0DC
:102FA0009E8190629E83811103C07724739418C020
:102FB000F6019E012F5D3F4F808180958193E2173E
:102FC000F307D1F7F2CFE114F10429F0F701808380
:102FD000C70101967C0191E0A91AB108712CE9F0B2
:102FE000C4010E942B1F97FD16C0282F26952695F9
:102FF0002695F601E20FF11D208130E0AC0147700B
:10300000552702C0359527954A95E2F720FDDBCF7D
:10301000B4010E94C71F711083CFE114F10411F0B5
:10302000F7011082C801A096E0E10C947B1DA6E098
:10303000B0E0EDE1F8E10C945D1D5C017B011A014B
:103040000E942B1F9E838D8399278B32910521F03F
:103050008D9789F410E801C010E021E0E21AF10830
:1030600011F480E02CC1C5010E942B1F9E838D832B
:1030700097FF02C0F6CF10E08D819E810E94971EBF
:103080008936910549F08E36910509F03BC06CEF09
:10309000862E68E0962E04C07FEF872E78E0972E6C
:1030A000EFEF8E1A9E0AF401319704910023C9F0C4
:1030B00081E0E81AF10871F0C5010E942B1F6C0134
:1030C00097FD08C00E94971E081751F3B501C6016D
:1030D0000E94C71F92E0891699E0990609F0C1CFB6
:1030E00005C0FFEF8F16F8E09F0629F080E090E022
:1030F000A0E8BFE704C080E090E0A0ECBFE7BC011F
:10310000CD01CDC0412C512C3201C12CD12C2D81AF
:1031100020532A3018F5012F0260812F887012FF8A
:1031200006C0811121C02FEFC21AD20A1DC0882308
:1031300019F081E0C81AD10840E2C301B2010E942F
:10314000AA162B013C0198E9491699E95906690626
:1031500099E1790648F0012F066006C02E3F91F4F0
:1031600013FD10C0012F0860E1E0EE1AF10849F0EC
:10317000C5010E942B1F9E838D83102F97FFC7CF01
:1031800001C0102F11FF6DCF8D818F7D853409F027
:103190004EC04701F1E08F1A910809F462CFC501D2
:1031A0000E942B1F9E838D8397FD5BCF99278B32C7
:1031B000910519F08D9761F41061470122E0821AA0
:1031C000910809F44ECFC5010E942B1F9E838D8369
:1031D0008D819E81C0970A9708F043CF7401812C9E
:1031E000912CB401990C880B990B2D81205340E24E
:1031F0000E94AA16AB01BC014A0181E0E81AF1085D
:1032000071F0C50149835A836B837C830E942B1F15
:103210009E838D83C09749815A810A9710F314FFCA
:1032200004C088249924841A950AC80CD91CEF2854
:1032300041F0ED81FE81F7FD04C0B501CF010E9490
:10324000C71FC301B2010E94AA1BD7FE08C0D194B8
:10325000C194D1085BE1852E59E0952E04C043E36B
:10326000842E49E0942E5401F8E1AF1AB10830E2FF
:10327000E32EF12CCE14DF0450F0F40125913591AA
:10328000459154910E94381CCE18DF08F3CF24E0FA
:10329000821A9108F694E7948A149B0459F717FF51
:1032A00005C0DC01CB01B058BC01CD0121143104B3
:1032B00029F0F101608371838283938381E02696F4
:1032C000E2E10C94791DA1E0B0E0E9E6F9E10C94AB
:1032D0005F1D6C012B014A01FC0117821682A12C93
:1032E000F601F380F201F3FC8591F3FE8191482F02
:1032F0002F01882309F410C190E049830E948E1E9B
:103300004981892B21F0C6010E94CA16E9CF4532B6
:1033100041F4F201F3FC4591F3FE41912F01453256
:1033200069F4C60149830E942B1F498197FDF2C0B1
:103330004817B1F2B6010E94C71FEEC04A3239F4F5
:10334000F3FC4591F3FE41912F0151E001C050E0A3
:10335000320100E010E020ED240F2A3088F45260A2
:10336000B80180E090E040E259830E94AA168B01E8
:10337000F301F3FC4591F3FE41913F015981EBCFFD
:10338000B52E342F230151FF04C00115110519F486
:10339000C3C00FEF1FEF483619F04C3659F013C079
:1033A000F301F3FC3591F3FE31912F01383659F4D6
:1033B0005860B52EFB2DF460BF2EF201F3FC359161
:1033C000F3FE31912F01332309F4A6C0632F70E07F
:1033D0008AEE98E039830E949F1E3981892B09F477
:1033E0009BC0B0FC07C0F401E080F180C4010296EC
:1033F0004C0102C0E12CF12C3E3651F4F60146811D
:10340000578160E070E02B2DC7010E949E1668CFA7
:103410003336A9F4B1FC02C001E010E0C6010E94FD
:103420002B1F97FD77C0E114F10429F0F701808389
:10343000C70101967C010150110981F767C03B3536
:1034400059F49201A701B801C6010E946B172C0123
:10345000892B09F05BC055C0C60139830E94CA168A
:10346000398197FD57C03F36D9F140F43436A1F188
:103470003936C9F1383509F03DC02AC03337A1F0DB
:1034800018F4303729F136C0353731F1383701F1CA
:1034900031C0E114F10429F0F7016082C7010196FF
:1034A0007C010150110971F0C6010E942B1F3C01E3
:1034B00097FD08C00E948E1E892B59F3B601C301E7
:1034C0000E94C71FE114F10409F1F70110821EC028
:1034D000FB2DF064BF2E07C08B2D8062B82E03C079
:1034E0009B2D9061B92E2B2DA701B801C6010E941A
:1034F000E31605C0A701B801C6010E941718811183
:1035000005C0F6018381807329F406C0B0FCE8CEC3
:10351000A394E6CEAA2019F08A2D90E002C08FEF86
:103520009FEF2196E0E10C947B1D5058BB27AA2702
:103530000E94AD1A0C94FE1B0E94F01B38F00E94F2
:10354000F71B20F039F49F3F19F426F40C94ED1B7F
:103550000EF4E095E7FB0C94E71BE92F0E940F1C8B
:1035600058F3BA17620773078407950720F079F4B8
:10357000A6F50C94311C0EF4E0950B2EBA2FA02D5D
:103580000B01B90190010C01CA01A0011124FF2710
:10359000591B99F0593F50F4503E68F11A16F0400B
:1035A000A22F232F342F4427585FF3CF469537950A
:1035B0002795A795F0405395C9F77EF41F16BA0BCF
:1035C000620B730B840BBAF09150A1F0FF0FBB1F7D
:1035D000661F771F881FC2F70EC0BA0F621F731FC6
:1035E000841F48F4879577956795B795F7959E3F23
:1035F00008F0B0CF9395880F08F09927EE0F9795B4
:10360000879508950E94161B0C94FE1B0E94F71BC1
:1036100058F00E94F01B40F029F45F3F29F00C9411
:10362000E71B51110C94321C0C94ED1B0E940F1CD3
:1036300068F39923B1F3552391F3951B550BBB27E1
:10364000AA2762177307840738F09F5F5F4F220F26
:10365000331F441FAA1FA9F335D00E2E3AF0E0E81D
:1036600032D091505040E695001CCAF72BD0FE2F67
:1036700029D0660F771F881FBB1F261737074807FB
:10368000AB07B0E809F0BB0B802DBF01FF279358B3
:103690005F4F3AF09E3F510578F00C94E71B0C9475
:1036A000321C5F3FE4F3983ED4F386957795679597
:1036B000B795F7959F5FC9F7880F911D96958795E8
:1036C00097F90895E1E0660F771F881FBB1F621707
:1036D00073078407BA0720F0621B730B840BBA0BC5
:1036E000EE1F88F7E09508950E947B1B6894B11146
:1036F0000C94321C08950E94171C88F09F5798F074
:10370000B92F9927B751B0F0E1F0660F771F881FE6
:10371000991F1AF0BA95C9F714C0B13091F00E9400
:10372000311CB1E008950C94311C672F782F882745
:10373000B85F39F0B93FCCF3869577956795B39527
:10374000D9F73EF490958095709561957F4F8F4F96
:103750009F4F0895E89409C097FB3EF4909580959B
:10376000709561957F4F8F4F9F4F9923A9F0F92F47
:1037700096E9BB279395F695879577956795B795C5
:10378000F111F8CFFAF4BB0F11F460FF1BC06F5FAB
:103790007F4F8F4F9F4F16C0882311F096E911C0BD
:1037A000772321F09EE8872F762F05C0662371F0DE
:1037B00096E8862F70E060E02AF09A95660F771FF2
:1037C000881FDAF7880F9695879597F9089597F9E6
:1037D0009F6780E870E060E008959FEF80EC0895B7
:1037E00000240A94161617061806090608950024E0
:1037F0000A9412161306140605060895092E03945A
:10380000000C11F4882352F0BB0F40F4BF2B11F4CD
:1038100060FF04C06F5F7F4F8F4F9F4F089557FD2C
:103820009058440F551F59F05F3F71F04795880F2E
:1038300097FB991F61F09F3F79F0879508951216C5
:1038400013061406551FF2CF4695F1DF08C0161671
:1038500017061806991FF1CF869571056105089422
:103860000895E894BB2766277727CB0197F9089539
:103870000E944B1C0C94FE1B0E94F01B38F00E940F
:10388000F71B20F0952311F00C94E71B0C94ED1B13
:1038900011240C94321C0E940F1C70F3959FC1F3ED
:1038A000950F50E0551F629FF001729FBB27F00DEE
:1038B000B11D639FAA27F00DB11DAA1F649F662743
:1038C000B00DA11D661F829F2227B00DA11D621F92
:1038D000739FB00DA11D621F839FA00D611D221F4C
:1038E000749F3327A00D611D231F849F600D211D30
:1038F000822F762F6A2F11249F5750409AF0F1F0B3
:1039000088234AF0EE0FFF1FBB1F661F771F881F1B
:1039100091505040A9F79E3F510580F00C94E71B51
:103920000C94321C5F3FE4F3983ED4F38695779570
:103930006795B795F795E7959F5FC1F7FE2B880FC1
:10394000911D9695879597F908959F930E94AF1CB6
:103950000F9007FCEE5F0C94D81C0C94ED1B0E949A
:10396000171CD8F3E894E0E0BB279F57F0F02AED4E
:103970003FE049EC06C0EE0FBB0F661F771F881FA4
:1039800028F0B23A62077307840728F0B25A620B34
:10399000730B840BE3959A9572F7803830F49A95FF
:1039A000BB0F661F771F881FD2F790480C94EE1C40
:1039B000EF93E0FF07C0A2EA2AED3FE049EC5FEB9E
:1039C0000E94AD1A0E94FE1B0F90039401FC9058B8
:1039D000E4E5F0E00C94FA1C9F3F31F0915020F4A4
:1039E000879577956795B795880F911D96958795DB
:1039F00097F908959F938F937F936F93FF93EF931E
:103A00009B01AC010E94381CEF91FF910E940E1D9A
:103A10002F913F914F915F910C94381CDF93CF937E
:103A20001F930F93FF92EF92DF927B018C016894BA
:103A300006C0DA2EEF010E944B1CFE01E894A5910E
:103A40002591359145915591A6F3EF010E94AD1A4C
:103A5000FE019701A801DA9469F7DF90EF90FF90DB
:103A60000F911F91CF91DF910895AA1BBB1B51E1CC
:103A700007C0AA1FBB1FA617B70710F0A61BB70BDE
:103A8000881F991F5A95A9F780959095BC01CD0183
:103A9000089597FB072E16F4009407D077FD09D000
:103AA0000E94351D07FC05D03EF4909581959F4FEF
:103AB0000895709561957F4F08952F923F924F9290
:103AC0005F926F927F928F929F92AF92BF92CF92AE
:103AD000DF92EF92FF920F931F93CF93DF93CDB7B7
:103AE000DEB7CA1BDB0B0FB6F894DEBF0FBECDBF2F
:103AF00009942A88398848885F846E847D848C8400
:103B00009B84AA84B984C884DF80EE80FD800C8108
:103B10001B81AA81B981CE0FD11D0FB6F894DEBFEB
:103B20000FBECDBFED010895662777270C943E2088
:103B3000FC0188279927E89421912032E9F3293064
:103B400010F02E30C8F32B3241F02D3239F4689446
:103B500004C00E94231F820F911D219120532A30FF
:103B6000C0F31EF4909581959F4F0895283008F07A
:103B700027E03327DA01990F311D87FD9160009608
:103B80006105710539F432602E5F3D9330E32A956B
:103B9000E1F708959F3F30F080387105610509F025
:103BA0003C5F3C5F3D93913008F08068911DDF934E
:103BB000CF931F930F93FF92EF92192F987F9695B3
:103BC000E92F96959695E90FFF27EC52FF4F99271D
:103BD0003327EE24FF24A701E701059008940794FA
:103BE00028F4360FE71EF81E491F511D660F771F78
:103BF000881F991F0694A1F70590079428F4E70EF3
:103C0000F81E491F561FC11D770F881F991F661F79
:103C10000694A1F70590079428F4F80E491F561F43
:103C2000C71FD11D880F991F661F771F0694A1F724
:103C30000590079420F4490F561FC71FD81F990FEE
:103C4000661F771F881F0694A9F784911095177037
:103C500041F0D695C79557954795F794E7941A95EF
:103C6000C1F7EAE7F0E068941590159135916591F8
:103C7000959105907FE27395E118F10A430B560B7D
:103C8000C90BD009C0F7E10CF11E431F561FC91F15
:103C9000D01D7EF4703311F48A95E6CFE89401507C
:103CA00030F0080F0AF40027021708F4202F23959C
:103CB000022F7A3328F079E37D932A95E9F710C033
:103CC0007D932A9589F6069497956795379517956C
:103CD0001794E118F10A430B560BC90BD00998F061
:103CE00023957E9173957A3308F070E37C932013CB
:103CF000B8F77E9170617D9330F0839571E37D9389
:103D000070E32A95E1F71124EF90FF900F911F9136
:103D1000CF91DF91992787FD9095089591110C948B
:103D20009B21803219F089508550C8F70895911170
:103D3000089581548A5108F4805E855A0895FC01E3
:103D40000590061621F00020D9F7C001089531979B
:103D5000CF010895FB01DC014150504030F08D91BE
:103D60000590801919F40020B9F7881B990B089564
:103D7000FC010590615070400110D8F78095909536
:103D80008E0F9F1F08954AE554E00E94FC1E08957F
:103D9000FC018191861721F08823D9F7992708958E
:103DA0003197CF010895FB01DC018D9101908019BD
:103DB0000110D9F3990B0895FB01DC0101900D92DC
:103DC0000020E1F70895FB01DC014150504030F044
:103DD0008D910190801919F40020B9F7881B990B77
:103DE0000895FC016150704001900110D8F7809552
:103DF00090958E0F9F1F0895FA01A191B0810097B1
:103E000019F41097E1F0CD01DC01CD010D900020F7
:103E100011F4C00113C0FB012191222319F02015D8
:103E2000D9F7F3CFFB012191201519F41E921196B9
:103E300006C02223C1F70D900020A1F7D001FA019E
:103E4000A193B08308957AE0979F902D879F802D4E
:103E5000910D11240895CF93DF93EC012B8120FF66
:103E600033C026FF0AC02F7B2B838E819F81019652
:103E70009F838E838A8190E029C022FF0FC0E88152
:103E8000F9818081082E000C990B009719F42062AB
:103E90002B831AC03196F983E8830EC0EA85FB852F
:103EA000099597FF09C02B81019611F080E201C0AE
:103EB00080E1822B8B8308C02E813F812F5F3F4F93
:103EC0003F832E83992702C08FEF9FEFDF91CF9121
:103ED00008950F931F93CF93DF93FB01238121FD5F
:103EE00003C08FEF9FEF28C022FF16C04681578185
:103EF000248135814217530744F4A081B1819D018B
:103F00002F5F3F4F318320838C93268137812F5F32
:103F10003F4F3783268310C0EB01092F182F0084F1
:103F2000F185E02D0995892BE1F68E819F8101961F
:103F30009F838E83812F902FDF91CF911F910F91BF
:103F40000895A0E0B0E0E7EAFFE10C946B1DAE013C
:103F5000495F5F4FDA016D917D91AD010CE514E091
:103F6000F80182819381DC0113962C9113972860CC
:103F700013962C930E942213D8011296ED91FC9176
:103F800013972381277F2383E4E00C94871DFB0193
:103F9000238120FF12C026FD10C08F3F3FEF930703
:103FA00061F082832F7D2064238326813781215015
:103FB000310937832683992708958FEF9FEF08955E
:103FC000FA01AA27283051F1203181F1E8946F934A
:103FD0006E7F6E5F7F4F8F4F9F4FAF4FB1E03ED0F0
:103FE000B4E03CD0670F781F891F9A1FA11D680F8E
:103FF000791F8A1F911DA11D6A0F711D811D911DC1
:10400000A11D20D009F468943F912AE0269F112435
:104010003019305D3193DEF6CF010895462F477099
:10402000405D4193B3E00FD0C9F7F6CF462F4F70F4
:10403000405D4A3318F0495D31FD4052419302D052
:10404000A9F7EACFB4E0A6959795879577956795F8
:10405000BA95C9F700976105710508959B01AC01F8
:104060000A2E06945795479537952795BA95C9F71F
:10407000620F731F841F951FA01D0895A0E0B0E07C
:10408000E4E4F0E20C94611DEC017B016115710523
:1040900019F0DB018D939C938E010F5F1F4F788089
:1040A000872D90E00E948E1E892B11F0E801F4CF3D
:1040B000BDE27B1205C00F5F1F4F7980C1E008C0D1
:1040C000EBE27E1204C08E010E5F1F4F7980C0E0CC
:1040D0006801F1E0CF1AD10843E050E06CE771E0ED
:1040E000C6010E949E21892BF1F4680122E0C20ED4
:1040F000D11C45E050E067E771E0C6010E949E21B7
:10410000892B21F4680187E0C80ED11CE114F10469
:1041100019F0D701CD92DC92C111FFC060E070E0D0
:1041200080E89FE703C143E050E064E771E0C60127
:104130000E949E21892B51F4E114F10409F4F2C08C
:104140000E5F1F4FF70111830083ECC0680160E030
:1041500070E0CB0100E010E0F601D0EDD70DDA30D1
:1041600058F52C2F2260622E2C2F2870C2FF05C01C
:10417000211128C00F5F1F4F25C0222311F00150CD
:104180001109A5E0B0E09B01AC010E94DF214B01C9
:104190005C01880C991CAA1CBB1CC501B4016D0FE5
:1041A000711D811D911D6839A9E97A078A07A9E166
:1041B0009A0740F0C66005C0DE3F51F4C3FD44C01D
:1041C000C8606C2EBFEFCB1ADB0A7080C62DC4CF3F
:1041D0002D2F2F7D2531C1F540814D3211F4C06165
:1041E00006C04B3221F0319621E030E006C0329615
:1041F000D60111964C9122E030E0A0EDA40FAA3038
:1042000018F0E21BF30B20C040E050E04038BCE067
:104210005B075CF49A01220F331F220F331F420FFA
:10422000531F440F551F4A0F511D3196DF0111973F
:104230002C91A0EDA20FAA3048F3C4FF03C0519502
:1042400041955109040F151FC1FF07C0E114F10486
:1042500021F03197D701ED93FC930E94AA1BC37004
:10426000C33019F06B017C0106C06B017C01F7FAC9
:10427000F094F7F8F09420E030E0A901C701B6010E
:104280000E94B621882309F445C017FF06C0119586
:1042900001951109C3E9D1E002C0CBEAD1E05E018A
:1042A000B8E1AB1AB1084601BE2DAF2D90E2E92E60
:1042B000F12C0E151F0584F0FE01259135914591D5
:1042C0005491B4018B2F9A2F0E94381C4B01B82FA8
:1042D000A92F0E191F09EDCF2497F594E794CA155D
:1042E000DB0539F76401EB2EFA2E8E2D880F8F2D0A
:1042F000881F8F3F49F020E030E0A901C701B601D7
:104300000E94B621811106C082E290E0909363047E
:1043100080936204C701B60109C060E070E080E8E4
:104320009FEF04C060E070E080EC9FE7CDB7DEB7A0
:10433000EEE00C947D1D992788270895FB01DC0190
:104340004150504088F08D9181341CF08B350CF435
:10435000805E659161341CF06B350CF4605E861BE9
:10436000611171F3990B0895881BFCCF0E94BB214A
:1043700008F481E00895990F0008550FAA0BE0E8B2
:10438000FEEF16161706E807F907C0F01216130617
:10439000E407F50798F0621B730B840B950B39F457
:1043A0000A2661F0232B242B252B21F408950A26BD
:1043B00009F4A140A6958FEF811D811D08950E94EB
:1043C000EA21A59F900DB49F900DA49F800D911D93
:1043D00011240895A29FB001B39FC001A39F700D47
:1043E000811D1124911DB29F700D811D1124911DFD
:0643F0000895F894FFCFD0
:1043F6000701C70607010E01D4061301020136099B
:1044060026013E0119074C0170014E077E019401F9
:104416006907A301FE008407B801CC01AC07D001EF
:104426000A011208E401FC017309000210020709DF
:1044360015023C02C5064C0214006400640000002C
:104446005000CA0200000003000000006612551268
:1044560000000000000000011A03000000004000F8
:104466001A040002040003000140030200000302D4
:10447600010006000400060500800605040003008E
:104486000200140073D9A03E5839B43D90016C6FF8
:104496006700656E63002000726573657400686569
:1044A6006C7000476976657320616C6C20636F6D74
:1044B6006D616E6473004765747320616E6420736A
:1044C60065747320656E632076616C7565006D6F2B
:1044D60076655F7365745F64697374006D6F766586
:1044E6005F7365745F646973742044697374616E85
:1044F60063655F6D6D205B737465707065725D00DA
:104506006D6F76655F7365745F74696D65006D6F59
:1045160076655F7365745F74696D65207365636F37
:104526006E6473006D6F76655F7365745F73746533
:104536007073006D6F76655F7365745F7374657015
:1045460073207374657073006C6F67205B656E63B0
:104556005D203C73616D706C65733E0073696E001F
:1045660073696E203C2320417267733E2041726757
:10457600735B5D00736574205B74686574617C7041
:10458600686F5D203C76616C75653E0067657400FA
:10459600676574205B74686574617C70686F5D0024
:1045A6006374726C006374726C202D20726574756E
:1045B600726E73206E657874207374657020696EF0
:1045C60020636F6E74726F6C6C65720074657374C1
:1045D600696E675F737465707065720072756E736D
:1045E6002061207374657070657220746573742021
:1045F600737569746500666F7277617264730062C1
:1046060061636B7761726473006C656674007269CE
:04461600676874005D
:00000001FF
