:100000000C9454040C942C110C9461110C947104F4
:100010000C9471040C9471040C9471040C9471048C
:100020000C9471040C9471040C9471040C9471047C
:100030000C9471040C9496110C94BA110C947104E4
:100040000C9471040C9471040C9471040C9471045C
:100050000C94710405A84CCDB2D44EB93836A9021F
:100060000C50B9918688083CA6AAAA2ABE000000B6
:10007000803F6E616E00696E660000407A10F35A30
:1000800000A0724E18090010A5D4E80000E87648D8
:10009000170000E40B54020000CA9A3B000000E184
:1000A000F505000080969800000040420F00000017
:1000B000A08601000000102700000000E8030000F7
:1000C00000006400000000000A00000000000100C1
:1000D000000000002C76D888DC674F0823DFC1DFE2
:1000E000AE59E1B1B796E5E3E453C63AE6519976E5
:1000F00096E8E6C28426EB898C9B62ED407C6FFC1F
:10010000EFBC9C9F40F2BAA56FA5F490055A2AF760
:100110005C936B6CF9676DC11BFCE0E40D47FEF569
:1001200020E6B500D0ED902E0300943577050080D1
:10013000841E080000204E0A000000C80C33333330
:10014000330F986E12831141EF8D2114893BE655D0
:1001500016CFFEE6DB18D1844B381BF77C1D901DB3
:10016000A4BBE424203284725E228100C9F124EC15
:10017000A1E53D274E414E494E495459494E46CD81
:10018000CCCC3D0AD7233C17B7D13877CC2B32954E
:1001900095E6241FB14F0A000020410000C842002C
:1001A000401C4620BCBE4CCA1B0E5AAEC59D7441B5
:1001B0006E74692D636C6F636B776973650A0043B6
:1001C0006C6F636B776973650A002A2A2A204D6178
:1001D0007820636F6D6D616E64206C656E67746806
:1001E000206578636565646564202A2A2A0A0025EB
:1001F000660A00534849543B2078207761732025D4
:1002000066200A0025732069732025660A006200B3
:1002100025732069732025660A0052686F002573D4
:100220002069732025660A0074686574610025736F
:100230002069732025660A007600257320697320E3
:1002400025660A007672656600257320697320258D
:10025000660A00790025732069732025660A0078F4
:100260000050617273656420636861722077617306
:10027000202573200A004F4B41590A0076656C6FA8
:10028000636974790064697200620072686F004F7C
:100290004B41592C20255320666F756E642E2053D8
:1002A000657474696E672069742066726F6D2025AD
:1002B0007320746F202566200A00746865746100DD
:1002C0007600767265660079007800506172736519
:1002D00064206368617220776173202573200A00AF
:1002E0004F4B41590A00444F4E450A004F4B41596C
:1002F0002025730A00444F4E450A004F4B41590ACE
:1003000000444F4E450A004F4B41590A00444F4E9E
:10031000450A004F4B41590A00444F4E450A004FD1
:100320004B41590A00444F4E450A004F4B41590A70
:1003300000444F4E450A0044697374616E63652042
:1003400061746F692764206973202564200A004462
:10035000697374616E63652070617273656420698E
:100360006E20617320612063686172207761732061
:100370002573200A004F4B41590A00556E6B6E6F72
:10038000776E20636F6D6D616E643A202225732253
:100390000A00556E6B6E6F776E20636F6D6D616EC8
:1003A000643A20222573220A00656E633A20696E42
:1003B00076616C696420617267756D656E74202268
:1003C0002573222C2073796E7461782069733A202A
:1003D000656E63205B72657365745D0A00456E63CC
:1003E0006F64657220636F756E7420697320256C6D
:1003F000640A00456E636F64657220636F756E7486
:1004000020726573657420746F20300A00556E6B1E
:100410006E6F776E20636F6D6D616E643A2022257A
:1004200073220A004E6F20417267200A00417267F2
:100430003A2025730A00436F6D6D616E643A202582
:1004400073207C205370616365466F756E643A203B
:100450002564207C20004552524F523A2054726944
:10046000656420746F207061727365204E554C4C2A
:1004700020636F6D6D616E6420706F696E7465725C
:100480000A00202D2D2D2D2D2D2D2D2D2D2D2D2DF9
:100490002D2D2D2D2D2D2D2D2D2D2D2D2D2D2D2D8C
:1004A0002D2D2D2D2D2D2D2D2D2D2D2D2D2D2D2D7C
:1004B0002D2D2D2D2D2D2D2D2D2D2D2D2D2D2D2D6C
:1004C0002D2D200A007C20257320090909092025EB
:1004D00073200A00417661696C61626C6520636F0C
:1004E0006D6D616E64733A0A00202D2D2D2D2D2D1A
:1004F0002D2D2D2D2D2D2D2D2D2D2D2D2D2D2D2D2C
:100500002D2D2D2D2D2D2D2D2D2D2D2D2D2D2D2D1B
:100510002D2D2D2D2D2D2D2D2D2D2D2D2D2D2D2D0B
:100520002D2D2D2D2D2D2D2D2D200A4333323036FE
:10053000323436204255494C4420444154453A20F7
:100540004E6F7620203320323031372031313A322D
:10055000353A32300A0A0A0044697374616E636581
:10056000206F662027256427200A00446973746180
:100570006E6365206F66202725642720736574737A
:1005800020737465705F64697374616E636520665F
:100590006F7220272564272066726F6D207468694A
:1005A0007320666C6F61742027256627200A00443B
:1005B000697374616E63655F6D6D2025640A4469BB
:1005C0007374616E63655F6D2025660A0054696D02
:1005D0006520272564272073657473207374657004
:1005E0005F64697374616E636520666F722027258E
:1005F0006427200A0056656C6F636974792027258B
:100600006627207365742076656C6F636974795F03
:1006100064656C617920746F20272564270A004483
:1006200069722073657420746F2027257327200A50
:10063000004552524F520A002A2A2A205461736BF5
:100640002063616C6C65642077697468204E554C3A
:100650004C2063616C6C6261636B21202A2A2A0A38
:10066000002A2A2A205461736B20696E636F6D70B3
:100670006C657465206265666F7265206E6578745E
:10068000207472696767657221205B7461722F64E0
:1006900075722F6D61783A2025752F25752F257578
:1006A0005D202A2A2A0A00252E32662C25670A0098
:1006B00054696D65205B7365635D2C56616C75656F
:1006C0000A0025733A20657870656374696E672047
:1006D0003320617267756D656E74732C2073796E4B
:1006E0007461782069733A202573203C73616D70C2
:1006F0006C65733E203C616D706C69747564653E19
:10070000203C6672657175656E63793E0A00252E20
:1007100032662C256C640A0025733A20756E6B6E68
:100720006F776E2064657669636520222573222CBD
:100730002073796E7461782069733A202573205B89
:10074000706F747C656E635D203C73616D706C6569
:10075000733E0A0054696D65205B7365635D2C45CB
:100760006E636F646572205B2D5D0A00656E6300C9
:1007700025733A20657870656374696E6720706FC1
:10078000736974697665206E756D626572206F6637
:100790002073616D706C65730A0025733A2065786B
:1007A00070656374696E67203220617267756D656C
:1007B0006E74732C2073796E7461782069733A209B
:1007C0002573205B706F747C656E635D203C736184
:1007D0006D706C65733E0A000A4333323036323432
:1007E00036204255494C4420444154453A204E6FEE
:1007F0007620203320323031372031313A32353AC9
:1008000032310A0A002A2A2A2055415254207061A6
:1008100072697479206572726F7221202A2A2A0AFD
:10082000002A2A2A20554152542064617461206FA5
:1008300076657272756E21202A2A2A0A002A2A2ACF
:100840002055415254206672616D696E6720657251
:10085000726F7221202A2A2A0A006364696E6F70FF
:10086000737578585B65666745464700616E006E34
:1008700066696E69747900CDCCCC3D0AD7233C17EC
:10088000B7D13877CC2B329595E6241FB14F0A00AB
:100890000020410000C84200401C4620BCBE4CCA9B
:1008A0001B0E5AAEC59D740011241FBECFE5D8E0C3
:1008B000DEBFCDBF12E0A0E6B0E0ECEEF2E402C095
:1008C00005900D92A438B107D9F724E0A4E8B2E06E
:1008D00001C01D92A736B207E1F70E946E120C9478
:1008E00074210C9400008BB7806C8BBF0895E0914D
:1008F0008402880F682BEF7084E0E89FF0011124D8
:10090000E60FF11D67FDFA95EE52FF4F808180934F
:10091000840280918402807C08950E947704882359
:1009200079F1803491F48FEB91E09F938F930E9443
:100930001C1F8091850290918602A0918702B09140
:1009400088020197A109B10911C08FEA91E09F9334
:100950008F930E941C1F8091850290918602A09126
:100960008702B09188020196A11DB11D8093850276
:1009700090938602A0938702B09388020F900F9005
:1009800008958AE085BF81B381BB82B38C6082BB4E
:1009900010928502109286021092870210928802AD
:1009A0000C94730420B330B381E022FB222720F99A
:1009B000282733FB332730F938278091850290911F
:1009C0008602A0918702B0918802231304C0019689
:1009D000A11DB11D03C00197A109B1098093850232
:1009E00090938602A0938702B0938802089520B363
:1009F00030B381E022FB222720F9282733FB33275D
:100A000030F938278091850290918602A091870263
:100A1000B0918802231304C00197A109B10903C052
:100A20000196A11DB11D8093850290938602A0932B
:100A30008702B093880208952BB72F732BBF609362
:100A400085027093860280938702909388020C94AB
:100A50007304CF93DF9300D000D0CDB7DEB78BB750
:100A60008F738BBF6091850270918602809187029F
:100A70009091880269837A838B839C830E9473049C
:100A800069817A818B819C810F900F900F900F90DC
:100A9000DF91CF910895CF93DF9300D000D0CDB7F1
:100AA000DEB78BB78F738BBF609185027091860222
:100AB000809187029091880210928502109286029E
:100AC000109287021092880269837A838B839C83B9
:100AD0000E94730469817A818B819C810F900F90B1
:100AE0000F900F90DF91CF910895FC011182108239
:100AF000138212820895FC01408151812281338149
:100B000081E090E04217530711F080E090E00895F3
:100B1000CF93DF93FC0120813181C281D381C90150
:100B20000196648175810E94A71C9C0181E090E080
:100B30002C173D0711F080E090E0DF91CF910895F0
:100B40000F931F93CF93DF931F92CDB7DEB78C0126
:100B500069830E9488056981892BC1F4D8018D9130
:100B60009C9111971696ED91FC911797E80FF91F3C
:100B700060838D919C911197019614966D917C9153
:100B800015970E94A71CF801918380830F90DF9135
:100B9000CF911F910F910895FC01208131818281B5
:100BA00093812817390791F082819381A681B781BB
:100BB000A80FB91F2C918281938101966481758160
:100BC0000E94A71C93838283822F089580E008955A
:100BD000FC018481958101970895DC0111961C9296
:100BE0001E921496ED91FC91159710820895FC01C8
:100BF00081E020813181232B09F080E00895FC0100
:100C000081E040815181228133814217530708F4EA
:100C100080E00895FC01208131812115310521F00A
:100C200021503109318320830895DC012D913C91BD
:100C300011972115310559F01496ED91FC911597F6
:100C40002E0F3F1FF901319781E09081911180E0D3
:100C500081700895DC012D913C91119712964D9170
:100C60005C9113972417350778F4FC014481558172
:100C7000F9013196ED93FC93FA01E20FF31F6083C3
:100C80000E94150690E008958FEF9FEF0895683059
:100C900019F40E940A060CC06D3051F06A3031F42C
:100CA000FC0120813181232B19F060E00C942A068D
:100CB00080E090E008950F931F93CF93DF938C0112
:100CC000EB0180E090E06991662329F0C8010E9461
:100CD000470697FFF8CFDF91CF911F910F910895AD
:100CE0000F931F93CF93DF938C01EB010E941506A6
:100CF000882359F0F80180819181C817D90728F419
:100D0000848195818C0F9D1F02C080E090E0DF916F
:100D1000CF911F910F91089560E070E00C947006E0
:100D20000F931F93CF93DF93EC010AEC11E08091B6
:100D30005F04909160040E94A61E8F3F2FEF9207E0
:100D400009F1682FCE010E9447068F3F2FEF9207CF
:100D500069F0019761F7CE010E948C060E94200B7A
:100D600019821882EC81FD811082E1CF1F930F93CD
:100D70000E941C1F19821882EC81FD8110820F9045
:100D80000F90D5CFDF91CF911F910F9108950C94C3
:100D90002B0C9F938F938BE793E09F938F930E94ED
:100DA0001C1F0F900F900F900F9008950F931F939B
:100DB000CF93DF9389EE94E09F938F930E941C1F43
:100DC00084ED94E09F938F930E941C1FC0E6D0E0B7
:100DD0000F900F900F900F9005EC14E08D818F9382
:100DE0008C818F9389818F9388818F931F930F9329
:100DF0000E941C1F2FEF8FE794E02150804090400D
:100E0000E1F700C0000026960F900F900F900F9012
:100E10000F900F9020E0C83AD20701F782E894E0E3
:100E20009F938F930E941C1F0F900F90DF91CF9183
:100E30001F910F910895CF93DF93D82FC92F85E786
:100E400093E09F938F930E941C1FCF93DF938FE4B7
:100E500093E09F938F930E941C1F8D2F9C2F0E94C5
:100E60000A1D9F938F9387E393E09F938F930E9434
:100E70001C1F8D2F9C2F0E940A1D0E944A0D81E38A
:100E800093E09F938F930E941C1F8DB79EB70C9683
:100E90000FB6F8949EBF0FBE8DBFDF91CF9108951E
:100EA000CF93DF93EC012BE233E03F932F930E942B
:100EB0001C1FCE010E940A1D0E94FF0C85E293E0D8
:100EC0009F938F930E941C1F0F900F900F900F9075
:100ED000DF91CF910895CF93DF93EC0127E033E0CA
:100EE0003F932F930E941C1FCE010E940A1D0E9457
:100EF000D00D81E093E09F938F930E941C1F0F9071
:100F00000F900F900F90DF91CF910895CF93DF93C3
:100F1000EC012BEF32E03F932F930E941C1FCE0178
:100F20000E94AC1085EF92E09F938F930E941C1F4C
:100F30000F900F900F900F90DF91CF910895CF9267
:100F4000DF92EF92FF920F931F93CF93DF93CDB772
:100F5000DEB7C05AD1090FB6F894DEBF0FBECDBFC1
:100F6000D82EC92E6EEF70E00E943E1E00E010E009
:100F7000E12CF12C0097A1F0E1E0F0E0EC0FFD1F77
:100F8000EE0DFF1D918380836EEF70E080E090E0B6
:100F90000E943E1E0F5F1F4F22E0E20EF11CEACFBF
:100FA000F801EE0FFF1F81E090E08C0F9D1FE80F0E
:100FB000F91F11821082CF92DF928CEE92E09F9304
:100FC0008F930E941C1FBE016F5F7F4FC8010E945C
:100FD000FC0F86EE92E09F938F930E941C1F0F9050
:100FE0000F900F900F900F900F90C056DF4F0FB6DD
:100FF000F894DEBF0FBECDBFDF91CF911F910F914F
:10100000FF90EF90DF90CF9008950F931F93CF93B1
:10101000DF93EC0180EE92E09F938F930E941C1F60
:10102000DF93CF938BEC92E09F938F930E941C1FD2
:1010300019828E010E5F1F4F41E050E069EC72E0B3
:10104000CE010E94251E0F900F900F900F900F90D1
:101050000F90892B61F4C8010E94061D6093A102C4
:101060007093A2028093A3029093A402BEC041E0B9
:1010700050E067EC72E0CE010E94251E892B61F4DE
:10108000C8010E94061D60939D0270939E0280938A
:101090009F029093A002A9C041E050E062EC72E090
:1010A000CE010E94251E892B61F4C8010E94061DF5
:1010B0006093990270939A0280939B0290939C0292
:1010C00094C041E050E060EC72E0CE010E94251E29
:1010D000892B61F4C8010E94061D609395027093EC
:1010E000960280939702909398027FC041E050E06F
:1010F0006AEB72E0CE010E94251E892B41F58E011C
:101100000A5F1F4FC8010E94061D9F938F937F9314
:101110006F931F930F93DF93CF938FE892E09F938A
:101120008F930E941C1FC8010E94061D60939102AC
:101130007093920280939302909394028DB79EB71E
:101140000A960FB6F8949EBF0FBE8DBF4EC041E009
:1011500050E06BE872E0CE010E94251E892B61F4FD
:10116000C8010E94061D60938D0270938E028093C9
:101170008F029093900239C041E050E069E872E03C
:10118000CE010E94251E892B61F4C8010E94061D14
:101190006093890270938A0280938B0290938C02F1
:1011A00024C041E050E065E872E0CE010E94251EB7
:1011B000892B41F4CE010496DF91CF911F910F91BD
:1011C0000C94730C41E050E06CE772E0CE010E9499
:1011D000251E892B51F4CE0109960E94061DDF9130
:1011E000CF911F910F910C94BC0CDF91CF911F9167
:1011F0000F910895EF92FF920F931F93E090950245
:10120000F09096020091970210919802209191021D
:1012100030919202409193025091940260919D020C
:1012200070919E0280919F029091A0020E942B0ECD
:101230009F938F938FEE91E09F938F930E941C1F3B
:101240000F900F900F900F901F910F91FF90EF90C4
:101250000895CF93DF93EC01BC0180E091E00E9400
:101260004E1E892B71F460E070E0CB010E941C05DA
:1012700083EF93E09F938F930E941C1F0F900F901A
:1012800022C08881811113C00E9429059F938F93EA
:101290007F936F938DED93E09F938F930E941C1F1C
:1012A0000F900F900F900F900F900F900CC0DF9346
:1012B000CF9389EA93E09F938F930E941C1F0F9016
:1012C0000F900F900F90DF91CF910895CF93DF9300
:1012D000EC0186E792E09F938F930E941C1FDF939F
:1012E000CF9381E692E09F938F930E941C1F41E071
:1012F00050E06FE572E0CE010E94251E0F900F9026
:101300000F900F900F900F90892BE9F48091A40219
:101310008F938091A3028F938091A2028F938091EB
:10132000A1028F93DF93CF9385E592E09F938F93F4
:101330000E941C1F8DB79EB708960FB6F8949EBFEB
:101340000FBE8DBFFCC041E050E063E572E0CE010E
:101350000E94251E892BE9F48091A0028F93809131
:101360009F028F9380919E028F9380919D028F9315
:10137000DF93CF9389E492E09F938F930E941C1F89
:101380008DB79EB708960FB6F8949EBF0FBE8DBF5F
:10139000D6C041E050E064E472E0CE010E94251E18
:1013A000892BE9F480919C028F9380919B028F930B
:1013B00080919A028F93809199028F93DF93CF93BC
:1013C0008AE392E09F938F930E941C1F8DB79EB774
:1013D00008960FB6F8949EBF0FBE8DBFB0C041E017
:1013E00050E068E372E0CE010E94251E892BE9F4EB
:1013F000809198028F93809197028F9380919602AB
:101400008F93809195028F93DF93CF938EE292E03A
:101410009F938F930E941C1F8DB79EB708960FB69F
:10142000F8949EBF0FBE8DBF8AC041E050E068E2D5
:1014300072E0CE010E94251E892BE9F4809194026E
:101440008F93809193028F93809192028F938091DA
:1014500091028F93DF93CF938EE192E09F938F93CE
:101460000E941C1F8DB79EB708960FB6F8949EBFBA
:101470000FBE8DBF64C041E050E06AE172E0CE0172
:101480000E94251E892BE9F4809190028F93809110
:101490008F028F9380918E028F9380918D028F9314
:1014A000DF93CF9380E192E09F938F930E941C1F64
:1014B0008DB79EB708960FB6F8949EBF0FBE8DBF2E
:1014C0003EC041E050E06EE072E0CE010E94251E79
:1014D000892BE9F480918C028F9380918B028F93FA
:1014E00080918A028F93809189028F93DF93CF93AB
:1014F00084E092E09F938F930E941C1F8DB79EB74C
:1015000008960FB6F8949EBF0FBE8DBF18C080918D
:10151000A4028F938091A3028F938091A2028F9354
:101520008091A1028F9383EF91E09F938F930E940C
:101530001C1F0F900F900F900F900F900F90DF9146
:10154000CF9108956093A1027093A2028093A302A9
:101550009093A402089560939D0270939E028093DD
:101560009F029093A00208956093990270939A024B
:1015700080939B0290939C020895609395027093D0
:101580009602809397029093980208956093910237
:1015900070939202809393029093940208956093C3
:1015A0008D0270938E0280938F0290939002089523
:1015B0006093890270938A0280938B0290938C02CD
:1015C00008956091A1027091A2028091A30290916E
:1015D000A402089560919D0270919E0280919F02E5
:1015E0009091A00208956091990270919A02809161
:1015F0009B0290919C0208956091950270919602D1
:101600008091970290919802089560919102709153
:1016100092028091930290919402089560918D02BC
:1016200070918E0280918F02909190020895609146
:10163000890270918A0280918B0290918C020895A8
:101640004F925F926F927F928F929F92AF92BF92D2
:10165000CF92DF92EF92FF920F931F93CF93DF937E
:10166000CDB7DEB7C055D1090FB6F894DEBF0FBEB7
:10167000CDBF3C01009739F486E594E09F938F93AA
:101680000E941C1F75C05090A8004090A90060E205
:1016900070E00E94431E5C014C018618970880E6AA
:1016A000C82E80E0D82EE12CF12CA114B10459F4FD
:1016B0006AE070E0C3010E94431E009731F08C0184
:1016C0000619170904C0840102C0052D142DF60166
:1016D00060817181A801C3010E945E1E892B09F0FF
:1016E0004AC01F930F937F926F9286E394E09F937B
:1016F0008F930E941C1FB8016F5F7F4F660D771D8F
:101700008E010F5F1F4FC8010E94571E0F900F9050
:101710000F900F900F900F90892BB1F01F930F93A4
:101720008DE294E09F938F930E941C1F86E08E9D14
:10173000F0018F9DF00D1124E05AFF4F0280F381DC
:10174000E02DC80109952AC084E294E09F938F930D
:101750000E941C1F86E08E9DF0018F9DF00D1124CC
:10176000E05AFF4F0280F381E02D8FEF90E0099562
:101770000F900F9017C0FFEFEF1AFF0A86E0C80E18
:10178000D11CECE0EE16F10409F08FCF7F926F923E
:101790008DE094E09F938F930E941C1F0F900F90F9
:1017A0000F900F90C05BDF4F0FB6F894DEBF0FBEF7
:1017B000CDBFDF91CF911F910F91FF90EF90DF9000
:1017C000CF90BF90AF909F908F907F906F905F90E1
:1017D0004F9008959F938F9382E993E09F938F9307
:1017E0000E941C1F0F900F900F900F900895CF93A1
:1017F000DF93EC012FE133E03F932F930E941C1FF6
:10180000CE010E94061D0E94BC0C89E193E09F93CB
:101810008F930E941C1F0F900F900F900F90DF91DD
:10182000CF910895CF93DF93EC0123E133E03F9311
:101830002F930E941C1FCE010E94730C8DE093E039
:101840009F938F930E941C1F0F900F900F900F90EB
:10185000DF91CF91089581B38C6F81BB929A959857
:1018600029E130E08AE090E0939A969AE2ECF5E084
:101870003197F1F700C093989698E2ECF5E0319734
:10188000F1F700C0019781F7FFEF4FE382E0F150DD
:1018900040408040E1F700C000002150310911F7BD
:1018A0009298959A29E130E08AE090E0939A969A8E
:1018B000E2ECF5E03197F1F700C093989698E2ECEE
:1018C000F5E03197F1F700C0019781F7FFEF4FE3A3
:1018D00082E0F15040408040E1F700C0000021501C
:1018E000310911F7BBCFCF93DF93EC01BC0186E642
:1018F00092E00E944E1E892B11F4929A11C0BE01F3
:101900008FE692E00E944E1E892B11F4929812C02D
:10191000BE0189E792E00E944E1E892B19F492982D
:10192000959812C0BE018EE792E00E944E1E892B50
:1019300019F4929A959A08C081E396E09F938F9349
:101940000E941C1F0F900F90DF93CF938FE196E0C2
:101950009F938F930E941C1F0F900F900F900F90DA
:10196000DF91CF91089581B38C6F81BB9498979844
:1019700086E692E00C94730C0F931F93CF93DF9342
:10198000EB01182F092F9B01482F592F6FEC7FE097
:1019900089EC91E40E94741A0E94E61AEAEAF0E0E7
:1019A00060837183628373837F936F930F931F931D
:1019B000DF93CF9385EF95E09F938F930E941C1F39
:1019C0008DB79EB708960FB6F8949EBF0FBE8DBF19
:1019D000DF91CF911F910F910895009739F0E6E6BE
:1019E000FEE03197F1F700000197F7CF08950097D7
:1019F00029F025E02A95F1F70197F9CF0895EF92A4
:101A0000FF920F931F93CF93DF939C018091AA00C5
:101A10009091AB0068EE73E00E94BB1CC9010E946C
:101A2000BB1CEB01DF936F933F932F938DEC95E0FD
:101A30009F938F930E941C1F0F900F900F900F90F9
:101A40000F900F9000E010E00C171D07E4F48AE0FF
:101A5000E82EF12C939A969A80E991E00E94F70C77
:101A60009398969880E991E00E94F70C81E0E81A3B
:101A7000F10881F78091AA009091AB000E94ED0CD3
:101A80000F5F1F4FE1CFDF91CF911F910F91FF901B
:101A9000EF900895AF92BF92CF92DF92EF92FF92B4
:101AA0000F931F93CF93DF9300D0CDB7DEB75C01C8
:101AB000BC01990F880B990B0E941E1B20E030E09F
:101AC0004AE754E40E94741A8C011F938F937F930A
:101AD0006F93BF92AF928FEA95E09F938F93698344
:101AE0007A830E941C1F28E539E344EB5DE369819A
:101AF0007A81802F912F0E94741A20E030E040EA12
:101B000051E40E94AA1B162F072FD82EC92EA80118
:101B10009601652F742F832F922F0E94E61A7B0166
:101B2000CF92DF920F931F937F936F93BF92AF92E9
:101B30008BE695E09F938F930E941C1F0FB6F8943D
:101B4000DEBF0FBECDBFC12CD12CCE14DF04DCF420
:101B50000AE010E0939A969A80E991E00E94F70CCF
:101B60009398969880E991E00E94F70C0150110932
:101B700089F78091AA009091AB000E94ED0C9FEF35
:101B8000C91AD90AE2CF0F900F90DF91CF911F9120
:101B90000F91FF90EF90DF90CF90BF90AF9008959E
:101BA000EF92FF920F931F93CF93DF93EC01DF939C
:101BB000CF9388E595E09F938F930E941C1F0F9011
:101BC0000F900F900F9000E010E00C171D07E4F449
:101BD0008AE0E82EF12C939A969A80E991E00E948F
:101BE000F70C9398969880E991E00E94F70C81E0B9
:101BF000E81AF10881F78091AA009091AB000E9449
:101C0000ED0C0F5F1F4FE1CFDF91CF911F910F912F
:101C1000FF90EF9008958091A50208958093A5020A
:101C200008951092AA021092AB021092AC02109288
:101C3000AD020895FC0180819181A281B3818093DE
:101C4000AA029093AB02A093AC02B093AD020895A8
:101C50008AEA92E008958F929F92AF92BF92CF92BC
:101C6000DF92EF92FF92CF93DF93EC01C090AA0234
:101C7000D090AB02E090AC02F090AD022FE832ECD5
:101C800044E152E4C701B6010E94AA1B20E030E003
:101C9000A9010E94081A4B015C016093A60270938F
:101CA000A7028093A8029093A90229E537E149E9A8
:101CB00050EC688179818A819B810E94AA1B9B01DB
:101CC000AC01C501B4010E94081A4B015C0129E571
:101CD00037E149E950E46C817D818E819F810E94CA
:101CE000AA1B9B01AC01C501B4010E94081A4B015B
:101CF0005C012FE135E04EEE52E4688579858A85F6
:101D00009B850E94AA1B9B01AC01C501B4010E94E6
:101D1000081A6093A6027093A7028093A80290937A
:101D2000A9022BED35E846E45FE3C701B6010E9446
:101D3000AA1B20E030E0A9010E94081A6B017C0177
:101D400021E039E14AEB5CE3688179818A819B81FA
:101D50000E94AA1B9B01AC01C701B6010E94081A90
:101D60006B017C0121E039E14AEB5CEB6C817D8108
:101D70008E819F810E94AA1B9B01AC01C701B60105
:101D80000E94081A6B017C012DE03BEA40E15FEB09
:101D9000688579858A859B850E94AA1B9B01AC0179
:101DA000C701B6010E94081A6093AA027093AB02A1
:101DB0008093AC029093AD0286EA92E0DF91CF91DE
:101DC000FF90EF90DF90CF90BF90AF909F908F905B
:101DD00008958091AE0208951092AE0214BC89B7A6
:101DE000806889BF85B5856085BD089589B719BEAE
:101DF00085B515BC1092AE02089588E385BD87E4D1
:101E000083BD0E94F60E1092B0021092AF020895A8
:101E100089B7881F8827881F08959093B002809300
:101E2000AF0208958091AF029091B002089533B54A
:101E300099B7991F9927991F11F089B719BE209159
:101E4000AE0284B5992319F099B7906899BF90E0D4
:101E5000329F800D911D112408950F931F93CF93EE
:101E6000DF93C091AF02D091B002209749F1109258
:101E7000AE020E94170F8C01FE0109950E94170FF8
:101E8000EC018091AE02882329F10E94F60E83B501
:101E90001F928F939E01201B310B3F932F931F9313
:101EA0000F9381E696E09F938F930E941C1F8DB73E
:101EB0009EB708960FB6F8949EBF0FBE8DBF0AC09E
:101EC0000E94F60E88E396E09F938F930E941C1F5A
:101ED0000F900F90DF91CF911F910F9108958091F6
:101EE000AE028F5F8093AE020895CF92DF92EF92A1
:101EF000FF920F931F93CF93DF93C090B902D090BE
:101F0000BA02E090BB02F090BC0225E236E049EC58
:101F100050E46091B1027091B2028091B30290914D
:101F2000B4020E94AA1BE6019E014E2D5F2D0E9465
:101F3000AA1B0E94171C2091B5023091B602409155
:101F4000B7025091B8020E94AA1B9F938F937F9370
:101F50006F93FF92EF92DF93CF9387EA96E09F9380
:101F60008F930E941C1F2AE037ED43E25CE36091EF
:101F7000B9027091BA028091BB029091BC020E949A
:101F8000081A6093B9027093BA028093BB029093CF
:101F9000BC028091BD029091BE02A091BF02B0919F
:101FA000C0020197A109B1098093BD029093BE02BE
:101FB000A093BF02B093C0022DB73EB7265F3F4F3C
:101FC0000FB6F8943EBF0FBE2DBF892B8A2B8B2BEB
:101FD00051F4DF91CF911F910F91FF90EF90DF901F
:101FE000CF900C94F60EDF91CF911F910F91FF903F
:101FF000EF90DF90CF900895CF93DF93EB0104979C
:10200000A9F0888199819F938F939F938F9382ECFE
:1020100096E09F938F930E941C1F0F900F900F903C
:102020000F900F900F90DF91CF9108958A819B813F
:102030000E940A1D092E000CAA0BBB0B8093BD0247
:102040009093BE02A093BF02B093C0028C819D8189
:102050000E94061D6093B5027093B6028093B7028A
:102060009093B8028E819F810E94061D6093B102F9
:102070007093B2028093B3029093B4021092B902AB
:102080001092BA021092BB021092BC0280EB96E052
:102090009F938F930E941C1F85E79FE00E940D0F66
:1020A0000F900F90DF91CF910C94EC0E8091C502B0
:1020B0009091C602892B01F50E9429059F938F9369
:1020C0007F936F938091C4028F938091C3028F930B
:1020D0008091C2028F938091C1028F938EE097E02E
:1020E0009F938F930E941C1F8DB79EB70A960FB6C1
:1020F000F8949EBF0FBE8DBF2AE037ED43E25CE34C
:102100006091C1027091C2028091C3029091C40299
:102110000E94081A6093C1027093C2028093C302A6
:102120009093C4028091C7029091C802A091C90205
:10213000B091CA020197A109B1098093C702909397
:10214000C802A093C902B093CA02892B8A2B8B2B99
:1021500011F40C94F60E08950F931F93CF93DF9311
:10216000EB01039799F0888199819F938F939F93B7
:102170008F938AE997E09F938F930E941C1F0F9083
:102180000F900F900F900F900F9061C08C819D81E8
:102190000E940A1D97FF0FC089818F9388818F93BA
:1021A00080E797E09F938F930E941C1F0F900F90E2
:1021B0000F900F904CC0092E000CAA0BBB0B809304
:1021C000C7029093C802A093C902B093CA021092AA
:1021D000C1021092C2021092C3021092C4021A816C
:1021E0000B816CE677E0812F902F0E941C1E892BBB
:1021F000C1F41092C6021092C5020E94C10484E587
:1022000097E09F938F930E941C1F86E590E10E94A8
:102210000D0F0F900F90DF91CF911F910F910C94A4
:10222000EC0E288139813F932F930F931F933F9397
:102230002F9388E197E09F938F930E941C1F8DB787
:102240009EB708960FB6F8949EBF0FBE8DBFDF9164
:10225000CF911F910F9108951F920F920FB60F9279
:1022600011242F933F934F935F936F937F938F939B
:102270009F93AF93BF93EF93FF9380B391E082FB63
:10228000882780F9892780931C0360B363FB662746
:1022900060F9692760931B0370E090E00E948D0451
:1022A000FF91EF91BF91AF919F918F917F916F912E
:1022B0005F914F913F912F910F900FBE0F901F9004
:1022C00018951F920F920FB60F9211242F933F93E0
:1022D0004F935F936F937F938F939F93AF93BF932E
:1022E000EF93FF9380B391E082FB882780F98927E1
:1022F00080931C0360B363FB662760F969276093D2
:102300001B0370E090E00E948D04FF91EF91BF915C
:10231000AF919F918F917F916F915F914F913F917D
:102320002F910F900FBE0F901F9018951F920F9234
:102330000FB60F9211242F933F934F935F936F9398
:102340007F938F939F93AF93BF93EF93FF930E94DD
:102350005412FF91EF91BF91AF919F918F917F9117
:102360006F915F914F913F912F910F900FBE0F9002
:102370001F9018951F920F920FB60F9211242F9352
:102380003F934F935F936F937F938F939F93AF93FD
:10239000BF93EF93FF930E946012FF91EF91BF9163
:1023A000AF919F918F917F916F915F914F913F91ED
:1023B0002F910F900FBE0F901F9018958AEC90E010
:1023C0000E947B05892B41F48AEC90E00E94CC05A9
:1023D000082E000C990B08958FEF9FEF0895CF936F
:1023E000DF931F92CDB7DEB7682F82EC90E0698350
:1023F0000E9488056981892BC1F782EC90E00E94D8
:10240000A005559A80E090E00F90DF91CF9108955C
:102410008AEC90E00E94750510BC87E089B988EBD2
:102420008AB986E880BDEFE5F4E084EB90E0918323
:102430008083938382838AEC90E00E94750582EC0E
:1024400090E00C947505CF93DF931F92CDB7DEB764
:102450009BB199838CB19C7111F1898184FF08C073
:102460008DE398E09F938F930E941C1F0F900F9015
:10247000898183FF08C081E298E09F938F930E9437
:102480001C1F0F900F90898182FF08C085E098E0A3
:102490009F938F930E941C1F0F900F908FEF90E0DF
:1024A0000F90DF91CF9108950E9423128F3F2FEF5D
:1024B000920729F0682F8AEC90E00C94A00508950B
:1024C00082EC90E00E947B05892B11F055980895CD
:1024D00082EC90E00E94CC058CB908950E94C10462
:1024E0000E9408120E94FD0E0E94B30C78942FEFF8
:1024F0008FEF90EE215080409040E1F700C0000047
:1025000088ED97E09F938F930E941C1F0F900F9070
:102510000E94E90E882319F00E942D0FF9CF8EEA50
:1025200090E00E949006F4CFA3E1B0E0EAE9F2E186
:102530000C94CF1C6C014B012A01FC0117821682FE
:10254000838181FF43C3AE014F5F5F4F3A01F601C4
:102550009381F40193FD859193FF81914F0188232D
:1025600009F430C3853239F493FD859193FF81914D
:102570004F01853239F4B60190E00E94E41E520109
:102580002501E5CF10E0F12C20E02032A0F48B32C1
:1025900069F030F4803259F0833269F420612CC044
:1025A0008D3239F0803339F4216026C022602460F6
:1025B00023C0286021C027FD27C030ED380F3A30F6
:1025C00078F426FF06C0FAE01F9F300D1124132F68
:1025D00013C04AE0F49E300D1124F32E20620CC08B
:1025E0008E3221F426FDEEC2206406C08C3611F432
:1025F000206802C0883641F4F40193FD859193FF71
:1026000081914F018111C1CF9BEB980F933018F44A
:102610002061805E06C09BE9980F933008F071C17D
:102620002F7E26FF16E02F73322E853619F4206494
:10263000322E08C0863621F4F22FF0683F2E02C0F9
:102640001111115037FE07C01C3350F4EE24E394EF
:10265000E10E27E00BC0183038F027E017E005C086
:1026600027E04CE3E42E02C0212FE12C520144E08C
:10267000A40EB11CF20160817181828193810E2DC3
:10268000A3010E94281D2C01098100FF02C003FF45
:1026900007C031FC08C032FE09C030E2232E07C05B
:1026A0002DE2222E04C09BE2292E01C0212C802F76
:1026B0008C7019F0211068C2A8C237FE0FC0E40C5C
:1026C00004FF04C08A81813309F4EA941E1474F56E
:1026D000F8E0FE1578F588E0E82E2CC036FC2AC01C
:1026E000812F90E0841595059CF02CEF42162FEF7A
:1026F000520674F0432D4068342E0AC0E2E0F0E048
:10270000EC0FFD1FE10FF11D8081803319F4115092
:102710001111F4CF37FE0EC0EE24E394E10E812FA9
:1027200090E0481659062CF4141904C0EE24E394E2
:1027300001C010E037FE06C01414150434F4C201C1
:10274000019605C085E090E002C081E090E0211094
:102750000196112331F0212F30E02F5F3F4F820F80
:10276000931F2F2D30E08217930714F4F81A01C03D
:10277000F12C832D897049F4FF2039F0B60180E2F5
:1027800090E00E94E41EFA94F7CF222029F0B601CF
:10279000822D90E00E94E41E33FC09C0FF2039F036
:1027A000B60180E390E00E94E41EFA94F7CF37FE72
:1027B0005AC0942D852D57FE02C090E080E0292E4E
:1027C000382E20E030E0A2014E1951095D874C8778
:1027D000A201421953095F874E87612F70E0442799
:1027E0005527461B570B598B488B5FEF251635062F
:1027F00049F4B6018EE290E02A8B3B8B0E94E41EE6
:102800003B892A89421453046CF04C855D8542153E
:10281000530544F4EE85FF85E20FF31FE60DF71D27
:10282000818101C080E351E0251A31082F5F3F4FBD
:1028300048895989241635064CF0B60190E02A8B58
:102840003B8B0E94E41E2A893B89CFCF2414350498
:1028500039F49A81963318F4953311F404FF81E327
:10286000B60190E04BC08A81813309F00F7EB6013A
:1028700090E00E94E41E111105C034FC18C085E6EA
:1028800090E017C0B6018EE290E00E94E41E82E064
:10289000EE24E394E80EF301E80FF11D8081B60108
:1028A00090E00E94E41E11508E2D91F7E6CF85E452
:1028B00090E0B6010E94E41E57FC05C0411451048B
:1028C00039F404FF05C05194419451088DE201C0D0
:1028D0008BE2B60190E00E94E41E80E39AE0491684
:1028E00051042CF08F5F5AE0451A5108F7CFB6011A
:1028F00090E00E94E41EB601C201C0960E94E41E50
:1029000057C1833631F0833779F0833509F058C0E9
:1029100021C05201E2E0AE0EB11CF2018081898338
:1029200001E010E0230114C05201F2E0AF0EB11C2F
:10293000F2014080518026FF03C0612F70E002C089
:102940006FEF7FEFC2012A8B0E946C1E8C012A89D7
:102950002F7715C05201F2E0AF0EB11CF20140809A
:10296000518026FF03C0612F70E002C06FEF7FEF40
:10297000C2012A8B0E94331E8C012A892068322EC4
:1029800023FD1AC08F2D90E008171907A8F4B6018F
:1029900080E290E00E94E41EFA94F4CFF20137FC4A
:1029A000859137FE81912F01B60190E00E94E41ECF
:1029B000F110FA94015011090115110579F7F8C0C9
:1029C000843611F0893659F5520127FF09C0F4E029
:1029D000AF0EB11CF20160817181828193810AC0C6
:1029E000F2E0AF0EB11CF20160817181072E000C84
:1029F000880B990B2F76322E97FF09C09095809502
:102A0000709561957F4F8F4F9F4F2068322E2AE03F
:102A100030E0A3010E945B1FE82EE6183FC0022FA2
:102A2000853721F40F7E2AE030E01DC0097F8F3604
:102A300091F018F4883559F0C5C0803719F08837FF
:102A400011F0C0C0006104FF09C0046007C024FF8A
:102A500008C0066006C028E030E005C020E130E094
:102A600002C020E132E0520107FF09C0F4E0AF0EDE
:102A7000B11CF201608171818281938108C0F2E012
:102A8000AF0EB11CF2016081718180E090E0A30182
:102A90000E945B1FE82EE6180F77302E36FE0BC023
:102AA000332D3E7FE11650F434FE0AC032FC08C0DC
:102AB000332D3E7E05C00E2D332D03C00E2D01C0DB
:102AC000012F34FF0CC0FE01EE0DF11D808180331B
:102AD00011F4397E08C032FF05C00E5F04C0832F99
:102AE000867809F00F5F33FD13C030FF06C01E2D3E
:102AF0000F1518F41F0D101B0F2D0F1568F4B601DC
:102B000080E290E03B8B0E94E41E0F5F3B89F5CF93
:102B10000F1510F4F01A01C0F12C34FF12C0B601E9
:102B200080E390E03B8B0E94E41E3B8932FF17C09C
:102B300031FD03C088E790E002C088E590E0B6016F
:102B40000CC0832F867859F031FF02C08BE201C0A0
:102B500080E237FD8DE2B60190E00E94E41EE116AE
:102B600038F4B60180E390E00E94E41E1150F7CFE4
:102B7000EA94F301EE0DF11D8081B60190E00E9410
:102B8000E41EE110F5CF14C0F4E0FF1558F584E021
:102B9000F81A33FE1EC0211026C003FF2AC002E728
:102BA00010E0F32DF0713F2EF8018491811124C0C3
:102BB000FF2009F4E5CCB60180E290E00E94E41E1B
:102BC000FA94F6CFF6018681978126C08FEF9FEFAA
:102BD00023C0B60180E290E00E94E41EFA94F11056
:102BE000F8CFD9CFF12CB601822D90E00E94E41EDF
:102BF000D4CF06E710E0D5CF31108052B60190E077
:102C00000E94E41E0F5F1F4FCFCF23E02F1510F45B
:102C100083E0BECFF12CC1CF6396E2E10C94EB1CB4
:102C200020FD09C0FC0123FD05C022FF02C0738303
:102C3000628351834083089544FD10C046FD10C057
:102C4000DB01FC01AA0FBB1FEE1FFF1F1094D1F781
:102C50006A0F7B1F8E1F9F1F31E003C033E001C04E
:102C600034E0660F771F881F991F3150D1F7620F2C
:102C7000711D811D911D08950F931F93CF93DF93B5
:102C80008C01C8010E94A61EEC0197FD08C00E949D
:102C9000001E892BB1F7B801CE010E94421FCE0160
:102CA000DF91CF911F910F910895A0E0B0E0EBE587
:102CB000F6E10C94D51C7C018B016A01D22F0E9495
:102CC000A61E9C0133272B32310521F02D32310510
:102CD00059F4D0680150110911F480E069C0C701AE
:102CE0000E94A61E97FDF9CFCD2FCD7F2D2F2073EB
:102CF00009F58033F9F4580181E0A81AB10809F404
:102D000043C0C7010E94A61E97FD3EC0282F2F7DFD
:102D1000283551F4C26402501109B1F1C7010E9473
:102D2000A61E97FF07C030C0D6FF02C0C26001C018
:102D3000C2618501812C912C540120ED280F28308F
:102D400080F0C4FF04C0B7010E94421F1AC02A309D
:102D500040F0C6FFF8CF2F7D3FEE320F363098F7A8
:102D600027504C2FC501B4010E941C164B015C0179
:102D7000C2600150110959F0C7010E94A61E97FFB9
:102D8000DCCFC1FD04C0A9CF812C912C5401C7FF19
:102D900008C0B094A09490948094811C911CA11CB4
:102DA000B11C2C2FB501A401C6010E94101681E0B0
:102DB000CDB7DEB7ECE00C94F11CA0E2B0E0E3EE9E
:102DC000F6E10C94D11C4C015B017A018E010F5F7E
:102DD0001F4F680180E2F80111928A95E9F7F4012A
:102DE000638040E050E0712C412C80E0A1E0B0E035
:102DF000F90163FC559063FE51908F01952D9F0161
:102E0000511003C080E090E080C0FEE55F1203C077
:102E10004115510561F1682F70E0641775074CF496
:102E20006DE5561669F1EDE25E1203C0442009F12A
:102E300003C0411001C0752C692F66956695669593
:102E4000F601E60FF11D692F67708D0102C0000FBA
:102E5000111F6A95E2F7B8017081672B608397159F
:102E600059F0971510F49F5FE7CF9150E5CF81E0BF
:102E700004C04424439401C0412C4F5F5F4FB8CF3E
:102E8000442019F09E8190629E83811103C07724B3
:102E9000739418C0F6019E012F5D3F4F808180958D
:102EA0008193E217F307D1F7F2CFE114F10429F08F
:102EB000F7018083C70101967C0191E0A91AB1084E
:102EC000712CE9F0C4010E94A61E97FD16C0282FA0
:102ED000269526952695F601E20FF11D208130E01A
:102EE000AC014770552702C0359527954A95E2F702
:102EF00020FDDBCFB4010E94421F711083CFE1148B
:102F0000F10411F0F7011082C801A096E0E10C94E1
:102F1000ED1CA6E0B0E0EFE8F7E10C94CF1C5C01FB
:102F20007B011A010E94A61E9E838D8399278B32F6
:102F3000910521F08D9789F410E801C010E021E09F
:102F4000E21AF10811F480E02CC1C5010E94A61E0E
:102F50009E838D8397FF02C0F6CF10E08D819E8106
:102F60000E94091E8936910549F08E36910509F0B7
:102F70003BC06CE6862E68E0962E04C07FE6872E66
:102F800078E0972EEFEF8E1A9E0AF40131970491A4
:102F90000023C9F081E0E81AF10871F0C5010E9430
:102FA000A61E6C0197FD08C00E94091E081751F368
:102FB000B501C6010E94421F92E7891698E0990662
:102FC00009F0C1CF05C0FFE68F16F8E09F0629F093
:102FD00080E090E0A0E8BFE704C080E090E0A0ECD3
:102FE000BFE7BC01CD01CDC0412C512C3201C12C19
:102FF000D12C2D8120532A3018F5012F0260812F0A
:10300000887012FF06C0811121C02FEFC21AD20AA8
:103010001DC0882319F081E0C81AD10840E2C3011D
:10302000B2010E941C162B013C0198E9491699E94E
:103030005906690699E1790648F0012F066006C035
:103040002E3F91F413FD10C0012F0860E1E0EE1A4D
:10305000F10849F0C5010E94A61E9E838D83102FA2
:1030600097FFC7CF01C0102F11FF6DCF8D818F7DCE
:10307000853409F04EC04701F1E08F1A910809F438
:1030800062CFC5010E94A61E9E838D8397FD5BCFF4
:1030900099278B32910519F08D9761F410614701E2
:1030A00022E0821A910809F44ECFC5010E94A61EA3
:1030B0009E838D838D819E81C0970A9708F043CFB0
:1030C0007401812C912CB401990C880B990B2D81E2
:1030D000205340E20E941C16AB01BC014A0181E072
:1030E000E81AF10871F0C50149835A836B837C8328
:1030F0000E94A61E9E838D83C09749815A810A979C
:1031000010F314FF04C088249924841A950AC80C6B
:10311000D91CEF2841F0ED81FE81F7FD04C0B50117
:10312000CF010E94421FC301B2010E941C1BD7FEA7
:1031300008C0D194C194D1085BE8852E58E0952E43
:1031400004C043EA842E48E0942E5401F8E1AF1AFB
:10315000B10830E2E32EF12CCE14DF0450F0F4017C
:1031600025913591459154910E94AA1BCE18DF08F4
:10317000F3CF24E0821A9108F694E7948A149B0412
:1031800059F717FF05C0DC01CB01B058BC01CD01D8
:103190002114310429F0F1016083718382839383C8
:1031A00081E02696E2E10C94EB1CA1E0B0E0EBEDAF
:1031B000F8E10C94D11C6C012B014A01FC0117822F
:1031C0001682A12CF601F380F201F3FC8591F3FE47
:1031D0008191482F2F01882309F410C190E0498381
:1031E0000E94001E4981892B21F0C6010E943C16D5
:1031F000E9CF453241F4F201F3FC4591F3FE4191F0
:103200002F01453269F4C60149830E94A61E4981F7
:1032100097FDF2C04817B1F2B6010E94421FEEC0FE
:103220004A3239F4F3FC4591F3FE41912F0151E00C
:1032300001C050E0320100E010E020ED240F2A3000
:1032400088F45260B80180E090E040E259830E9427
:103250001C168B01F301F3FC4591F3FE41913F01F4
:103260005981EBCFB52E342F230151FF04C0011536
:10327000110519F4C3C00FEF1FEF483619F04C3693
:1032800059F013C0F301F3FC3591F3FE31912F0196
:10329000383659F45860B52EFB2DF460BF2EF2017C
:1032A000F3FC3591F3FE31912F01332309F4A6C0CD
:1032B000632F70E08AE598E039830E94111E3981FE
:1032C000892B09F49BC0B0FC07C0F401E080F180B9
:1032D000C40102964C0102C0E12CF12C3E3651F49F
:1032E000F6014681578160E070E02B2DC7010E94F6
:1032F000101668CF3336A9F4B1FC02C001E010E02B
:10330000C6010E94A61E97FD77C0E114F10429F0C2
:10331000F7018083C70101967C010150110981F7F3
:1033200067C03B3559F49201A701B801C6010E945C
:10333000DD162C01892B09F05BC055C0C60139830D
:103340000E943C16398197FD57C03F36D9F140F4B1
:103350003436A1F13936C9F1383509F03DC02AC0FB
:103360003337A1F018F4303729F136C0353731F151
:10337000383701F131C0E114F10429F0F70160821E
:10338000C70101967C010150110971F0C6010E942C
:10339000A61E3C0197FD08C00E94001E892B59F310
:1033A000B601C3010E94421FE114F10409F1F701C3
:1033B00010821EC0FB2DF064BF2E07C08B2D8062D3
:1033C000B82E03C09B2D9061B92E2B2DA701B801FB
:1033D000C6010E94551605C0A701B801C6010E948A
:1033E0008917811105C0F6018381807329F406C015
:1033F000B0FCE8CEA394E6CEAA2019F08A2D90E086
:1034000002C08FEF9FEF2196E0E10C94ED1C505825
:10341000BB27AA270E941F1A0C94701B0E94621BD4
:1034200038F00E94691B20F039F49F3F19F426F40C
:103430000C945F1B0EF4E095E7FB0C94591BE92FED
:103440000E94811B58F3BA17620773078407950718
:1034500020F079F4A6F50C94A31B0EF4E0950B2E46
:10346000BA2FA02D0B01B90190010C01CA01A001D6
:103470001124FF27591B99F0593F50F4503E68F131
:103480001A16F040A22F232F342F4427585FF3CF72
:10349000469537952795A795F0405395C9F77EF443
:1034A0001F16BA0B620B730B840BBAF09150A1F08C
:1034B000FF0FBB1F661F771F881FC2F70EC0BA0F12
:1034C000621F731F841F48F4879577956795B7959A
:1034D000F7959E3F08F0B0CF9395880F08F0992795
:1034E000EE0F9795879508950E94881A0C94701B8B
:1034F0000E94691B58F00E94621B40F029F45F3F54
:1035000029F00C94591B51110C94A41B0C945F1BB3
:103510000E94811B68F39923B1F3552391F3951B06
:10352000550BBB27AA2762177307840738F09F5FE4
:103530005F4F220F331F441FAA1FA9F335D00E2E51
:103540003AF0E0E832D091505040E695001CCAF7BE
:103550002BD0FE2F29D0660F771F881FBB1F261781
:1035600037074807AB07B0E809F0BB0B802DBF0158
:10357000FF2793585F4F3AF09E3F510578F00C9427
:10358000591B0C94A41B5F3FE4F3983ED4F386953B
:1035900077956795B795F7959F5FC9F7880F911D48
:1035A0009695879597F90895E1E0660F771F881F34
:1035B000BB1F621773078407BA0720F0621B730BE7
:1035C000840BBA0BEE1F88F7E09508950E94ED1A60
:1035D0006894B1110C94A41B08950E94891B88F073
:1035E0009F5798F0B92F9927B751B0F0E1F0660FC7
:1035F000771F881F991F1AF0BA95C9F714C0B13008
:1036000091F00E94A31BB1E008950C94A31B672FB7
:10361000782F8827B85F39F0B93FCCF38695779536
:103620006795B395D9F73EF490958095709561951F
:103630007F4F8F4F9F4F0895E89409C097FB3EF44A
:1036400090958095709561957F4F8F4F9F4F9923EF
:10365000A9F0F92F96E9BB279395F695879577956D
:103660006795B795F111F8CFFAF4BB0F11F460FF2D
:103670001BC06F5F7F4F8F4F9F4F16C0882311F085
:1036800096E911C0772321F09EE8872F762F05C099
:10369000662371F096E8862F70E060E02AF09A9534
:1036A000660F771F881FDAF7880F9695879597F929
:1036B000089597F99F6780E870E060E008959FEFB4
:1036C00080EC089500240A941616170618060906B9
:1036D000089500240A941216130614060506089588
:1036E000092E0394000C11F4882352F0BB0F40F410
:1036F000BF2B11F460FF04C06F5F7F4F8F4F9F4F50
:10370000089557FD9058440F551F59F05F3F71F0D1
:103710004795880F97FB991F61F09F3F79F0879538
:103720000895121613061406551FF2CF4695F1DFC1
:1037300008C0161617061806991FF1CF8695710551
:10374000610508940895E894BB2766277727CB0185
:1037500097F908950E94BD1B0C94701B0E94621B78
:1037600038F00E94691B20F0952311F00C94591B2E
:103770000C945F1B11240C94A41B0E94811B70F3FA
:10378000959FC1F3950F50E0551F629FF001729F06
:10379000BB27F00DB11D639FAA27F00DB11DAA1F15
:1037A000649F6627B00DA11D661F829F2227B00D62
:1037B000A11D621F739FB00DA11D621F839FA00DED
:1037C000611D221F749F3327A00D611D231F849F3D
:1037D000600D211D822F762F6A2F11249F57504094
:1037E0009AF0F1F088234AF0EE0FFF1FBB1F661F0F
:1037F000771F881F91505040A9F79E3F510580F0D8
:103800000C94591B0C94A41B5F3FE4F3983ED4F333
:10381000869577956795B795F795E7959F5FC1F77B
:10382000FE2B880F911D9695879597F908959F9384
:103830000E94211C0F9007FCEE5F0C944A1C0C9414
:103840005F1B0E94891BD8F3E894E0E0BB279F57D9
:10385000F0F02AED3FE049EC06C0EE0FBB0F661F0B
:10386000771F881F28F0B23A62077307840728F091
:10387000B25A620B730B840BE3959A9572F78038FA
:1038800030F49A95BB0F661F771F881FD2F79048B8
:103890000C94601CEF93E0FF07C0A2EA2AED3FE022
:1038A00049EC5FEB0E941F1A0E94701B0F9003945B
:1038B00001FC9058E4E5F0E00C946C1C9F3F31F063
:1038C000915020F4879577956795B795880F911D4E
:1038D0009695879597F908959F938F937F936F930C
:1038E000FF93EF939B01AC010E94AA1BEF91FF9104
:1038F0000E94801C2F913F914F915F910C94AA1BC5
:10390000DF93CF931F930F93FF92EF92DF927B0190
:103910008C01689406C0DA2EEF010E94BD1BFE01E7
:10392000E894A5912591359145915591A6F3EF0124
:103930000E941F1AFE019701A801DA9469F7DF902F
:10394000EF90FF900F911F91CF91DF910895AA1BE7
:10395000BB1B51E107C0AA1FBB1FA617B70710F07A
:10396000A61BB70B881F991F5A95A9F780959095AC
:10397000BC01CD01089597FB072E16F4009407D0E3
:1039800077FD09D00E94A71C07FC05D03EF4909556
:1039900081959F4F0895709561957F4F08952F925F
:1039A0003F924F925F926F927F928F929F92AF92CF
:1039B000BF92CF92DF92EF92FF920F931F93CF931C
:1039C000DF93CDB7DEB7CA1BDB0B0FB6F894DEBFB3
:1039D0000FBECDBF09942A88398848885F846E84D9
:1039E0007D848C849B84AA84B984C884DF80EE8023
:1039F000FD800C811B81AA81B981CE0FD11D0FB62C
:103A0000F894DEBF0FBECDBFED010895662777277E
:103A10000C94B91FFC0188279927E8942191203242
:103A2000E9F3293010F02E30C8F32B3241F02D325B
:103A300039F4689404C00E949E1E820F911D21914A
:103A400020532A30C0F31EF4909581959F4F08951E
:103A5000283008F027E03327DA01990F311D87FD60
:103A6000916000966105710539F432602E5F3D93D7
:103A700030E32A95E1F708959F3F30F080387105D3
:103A8000610509F03C5F3C5F3D93913008F0806830
:103A9000911DDF93CF931F930F93FF92EF92192FF6
:103AA000987F9695E92F96959695E90FFF27EC520A
:103AB000FF4F99273327EE24FF24A701E701059044
:103AC0000894079428F4360FE71EF81E491F511D6D
:103AD000660F771F881F991F0694A1F7059007941A
:103AE00028F4E70EF81E491F561FC11D770F881FC7
:103AF000991F661F0694A1F70590079428F4F80E05
:103B0000491F561FC71FD11D880F991F661F771F9A
:103B10000694A1F70590079420F4490F561FC71F7C
:103B2000D81F990F661F771F881F0694A9F78491E5
:103B30001095177041F0D695C79557954795F7940E
:103B4000E7941A95C1F7EAE7F0E0689415901591AB
:103B500035916591959105907FE27395E118F10A91
:103B6000430B560BC90BD009C0F7E10CF11E431FE4
:103B7000561FC91FD01D7EF4703311F48A95E6CF0D
:103B8000E894015030F0080F0AF40027021708F4F7
:103B9000202F2395022F7A3328F079E37D932A95FD
:103BA000E9F710C07D932A9589F606949795679555
:103BB000379517951794E118F10A430B560BC90B6B
:103BC000D00998F023957E9173957A3308F070E3CD
:103BD0007C932013B8F77E9170617D9330F08395CC
:103BE00071E37D9370E32A95E1F71124EF90FF9044
:103BF0000F911F91CF91DF91992787FD909508959F
:103C000091110C941621803219F089508550C8F713
:103C100008959111089581548A5108F4805E855A5F
:103C20000895FC010590061621F00020D9F7C00187
:103C300008953197CF010895FB01DC018D91059026
:103C400080190110D9F3990B0895FB01DC01415053
:103C5000504030F08D910590801919F40020B9F78B
:103C6000881B990B0895FC0105906150704001106C
:103C7000D8F7809590958E0F9F1F08954DE554E0DD
:103C80000E94771E0895FC018191861721F08823F8
:103C9000D9F7992708953197CF010895FB01DC01E9
:103CA0008D91019080190110D9F3990B0895FB01B2
:103CB000DC0101900D920020E1F70895FB01DC0189
:103CC0004150504030F08D910190801919F400203E
:103CD000B9F7881B990B0895FC0161507040019061
:103CE0000110D8F7809590958E0F9F1F0895FA01C7
:103CF000A191B081009719F41097E1F0CD01DC019A
:103D0000CD010D90002011F4C00113C0FB012191E1
:103D1000222319F02015D9F7F3CFFB0121912015AB
:103D200019F41E92119606C02223C1F70D900020AF
:103D3000A1F7D001FA01A193B08308957AE0979F8B
:103D4000902D879F802D910D11240895CF93DF939F
:103D5000EC012B8120FF33C026FF0AC02F7B2B8371
:103D60008E819F8101969F838E838A8190E029C0F6
:103D700022FF0FC0E881F9818081082E000C990B89
:103D8000009719F420622B831AC03196F983E883D7
:103D90000EC0EA85FB85099597FF09C02B81019626
:103DA00011F080E201C080E1822B8B8308C02E815C
:103DB0003F812F5F3F4F3F832E83992702C08FEFB4
:103DC0009FEFDF91CF9108950F931F93CF93DF93D0
:103DD000FB01238121FD03C08FEF9FEF28C022FF4D
:103DE00016C046815781248135814217530744F418
:103DF000A081B1819D012F5F3F4F318320838C9340
:103E0000268137812F5F3F4F3783268310C0EB0118
:103E1000092F182F0084F185E02D0995892BE1F6F3
:103E20008E819F8101969F838E83812F902FDF91BA
:103E3000CF911F910F910895A0E0B0E0E2E2FFE181
:103E40000C94DD1CAE01495F5F4FDA016D917D91ED
:103E5000AD010FE514E0F80182819381DC01139636
:103E60002C911397286013962C930E949412D801DA
:103E70001296ED91FC9113972381277F2383E4E031
:103E80000C94F91CFB01238120FF12C026FD10C0F9
:103E90008F3F3FEF930761F082832F7D2064238360
:103EA0002681378121503109378326839927089548
:103EB0008FEF9FEF0895FA01AA27283051F12031A2
:103EC00081F1E8946F936E7F6E5F7F4F8F4F9F4FAE
:103ED000AF4FB1E03ED0B4E03CD0670F781F891FF0
:103EE0009A1FA11D680F791F8A1F911DA11D6A0FBE
:103EF000711D811D911DA11D20D009F468943F9171
:103F00002AE0269F11243019305D3193DEF6CF016F
:103F10000895462F4770405D4193B3E00FD0C9F735
:103F2000F6CF462F4F70405D4A3318F0495D31FDA2
:103F30004052419302D0A9F7EACFB4E0A6959795F5
:103F4000879577956795BA95C9F7009761057105CB
:103F500008959B01AC010A2E069457954795379515
:103F60002795BA95C9F7620F731F841F951FA01D6F
:103F70000895A0E0B0E0EFEBFFE10C94D31CEC015E
:103F80007B016115710519F0DB018D939C938E0106
:103F90000F5F1F4F7880872D90E00E94001E892BB5
:103FA00011F0E801F4CFBDE27B1205C00F5F1F4F97
:103FB0007980C1E008C0EBE27E1204C08E010E5F82
:103FC0001F4F7980C0E06801F1E0CF1AD10843E0CB
:103FD00050E06CE771E0C6010E941921892BF1F4D1
:103FE000680122E0C20ED11C45E050E067E771E0B5
:103FF000C6010E941921892B21F4680187E0C80EAF
:10400000D11CE114F10419F0D701CD92DC92C11159
:10401000FFC060E070E080E89FE703C143E050E04C
:1040200064E771E0C6010E941921892B51F4E11463
:10403000F10409F4F2C00E5F1F4FF70111830083F2
:10404000ECC0680160E070E0CB0100E010E0F60138
:10405000D0EDD70DDA3058F52C2F2260622E2C2FA0
:104060002870C2FF05C0211128C00F5F1F4F25C057
:10407000222311F001501109A5E0B0E09B01AC0131
:104080000E945A214B015C01880C991CAA1CBB1C84
:10409000C501B4016D0F711D811D911D6839A9E91C
:1040A0007A078A07A9E19A0740F0C66005C0DE3F9B
:1040B00051F4C3FD44C0C8606C2EBFEFCB1ADB0ABD
:1040C0007080C62DC4CF2D2F2F7D2531C1F54081A5
:1040D0004D3211F4C06106C04B3221F0319621E01F
:1040E00030E006C03296D60111964C9122E030E0C5
:1040F000A0EDA40FAA3018F0E21BF30B20C040E0A3
:1041000050E04038BCE05B075CF49A01220F331F9B
:10411000220F331F420F531F440F551F4A0F511DCB
:104120003196DF0111972C91A0EDA20FAA3048F330
:10413000C4FF03C0519541955109040F151FC1FFDC
:1041400007C0E114F10421F03197D701ED93FC93FE
:104150000E941C1BC370C33019F06B017C0106C0A8
:104160006B017C01F7FAF094F7F8F09420E030E06E
:10417000A901C701B6010E943121882309F445C075
:1041800017FF06C0119501951109C3E9D1E002C0DE
:10419000CBEAD1E05E01B8E1AB1AB1084601BE2D11
:1041A000AF2D90E2E92EF12C0E151F0584F0FE01D3
:1041B0002591359145915491B4018B2F9A2F0E94EE
:1041C000AA1B4B01B82FA92F0E191F09EDCF249759
:1041D000F594E794CA15DB0539F76401EB2EFA2E46
:1041E0008E2D880F8F2D881F8F3F49F020E030E003
:1041F000A901C701B6010E943121811106C082E2E6
:1042000090E09093660480936504C701B60109C0ED
:1042100060E070E080E89FEF04C060E070E080EC58
:104220009FE7CDB7DEB7EEE00C94EF1C9927882707
:104230000895FB01DC014150504088F08D9181349C
:104240001CF08B350CF4805E659161341CF06B358D
:104250000CF4605E861B611171F3990B0895881B45
:10426000FCCF0E94362108F481E00895990F0008E0
:10427000550FAA0BE0E8FEEF16161706E807F90738
:10428000C0F012161306E407F50798F0621B730BD3
:10429000840B950B39F40A2661F0232B242B252B54
:1042A00021F408950A2609F4A140A6958FEF811DF7
:1042B000811D08950E946521A59F900DB49F900DCA
:1042C000A49F800D911D11240895A29FB001B39F5A
:1042D000C001A39F700D811D1124911DB29F700D0F
:0C42E000811D1124911D0895F894FFCF5A
:1042EC00FF00C906FF000601D6060B011E012909B5
:1042FC0022013A011B0748016C0150077A01900119
:10430C006B079F01B4018607B801CC019F07D00150
:10431C0002010508E401FC01660900021002FA081A
:10432C0015023C02C7064C02140064006400000035
:10433C005000CB020000000300000000EF11DE1162
:10434C0000000000000000011D0300000000400000
:10435C001D040002040003000140030200000302DC
:10436C000100060004000605008006050400030099
:10437C000200140073D9A03E5839B43D90012000BE
:10438C0072657365740068656C7000476976657357
:10439C0020616C6C20636F6D6D616E647300656E73
:1043AC0063004765747320616E64207365747320B9
:1043BC00656E632076616C7565006D6F76655F73F5
:1043CC0065745F64697374006D6F76655F73657493
:1043DC005F646973742044697374616E63655F6DA7
:1043EC006D205B737465707065725D006D6F7665C2
:1043FC005F7365745F74696D65006D6F76655F736F
:10440C0065745F74696D65207365636F6E647300AA
:10441C006D6F76655F7365745F7374657073006D33
:10442C006F76655F7365745F7374657073207374F6
:10443C00657073006C6F67006C6F67205B656E63F3
:10444C005D203C73616D706C65733E0073696E002A
:10445C0073696E203C2320417267733E2041726762
:10446C00735B5D00736574205B74686574617C704C
:10447C00686F5D203C76616C75653E006765740005
:10448C00676574205B74686574617C70686F5D002F
:10449C006374726C006374726C202D207265747579
:1044AC00726E73206E657874207374657020696EFB
:1044BC0020636F6E74726F6C6C65720074657374CC
:1044CC00696E675F737465707065720072756E7378
:1044DC00206120737465707065722074657374202C
:1044EC00737569746500666F7277617264730062CC
:1044FC0061636B7761726473006C656674007269DA
:04450C006768740068
:00000001FF
