:100000000C940E020C9482050C94A6050C942B0201
:100010000C942B020C942B020C942B020C942B02AC
:100020000C942B020C942B020C942B020C942B029C
:100030000C942B020C94CA050C94EE050C942B0224
:100040000C942B020C942B020C942B020C942B027C
:100050000C942B026E616E00696E660000407A108F
:10006000F35A00A0724E18090010A5D4E80000E869
:100070007648170000E40B54020000CA9A3B0000C7
:1000800000E1F505000080969800000040420F0056
:100090000000A08601000000102700000000E80317
:1000A000000000006400000000000A0000000000E2
:1000B0000100000000002C76D888DC674F0823DFA1
:1000C000C1DFAE59E1B1B796E5E3E453C63AE65174
:1000D000997696E8E6C28426EB898C9B62ED407C9B
:1000E0006FFCEFBC9C9F40F2BAA56FA5F490055A37
:1000F0002AF75C936B6CF9676DC11BFCE0E40D475C
:10010000FEF520E6B500D0ED902E0300943577057E
:100110000080841E080000204E0A000000C80C3336
:100120003333330F986E12831141EF8D2114893BC5
:10013000E65516CFFEE6DB18D1844B381BF77C1D45
:10014000901DA4BBE424203284725E228100C9F198
:1001500024ECA1E53D272A2A2A204D617820636FEF
:100160006D6D616E64206C656E6774682065786380
:100170006565646564202A2A2A0A00556E6B6E6FD5
:10018000776E20636F6D6D616E643A202225732255
:100190000A00556E6B6E6F776E20636F6D6D616ECA
:1001A000643A20222573220A00656E633A20696E44
:1001B00076616C696420617267756D656E7420226A
:1001C0002573222C2073796E7461782069733A202C
:1001D000656E63205B72657365745D0A00456E63CE
:1001E0006F64657220636F756E7420697320256C6F
:1001F000640A00456E636F64657220636F756E7488
:1002000020726573657420746F20300A00556E6B20
:100210006E6F776E20636F6D6D616E643A2022257C
:1002200073220A004552524F523A20547269656453
:1002300020746F207061727365204E554C4C2063A2
:100240006F6D6D616E6420706F696E7465720A0007
:10025000202D2D2D2D2D2D2D2D2D2D2D2D2D2D2DDB
:100260002D2D2D2D2D2D2D2D2D2D2D2D2D2D2D2DBE
:100270002D2D2D2D2D2D2D2D2D2D2D2D2D2D2D2DAE
:100280002D2D2D2D2D2D2D2D2D2D2D2D2D2D2D2D9E
:10029000200A4333323036323436204255494C44FA
:1002A00020444154453A204F637420323720323085
:1002B00031372030303A32333A33350A0A0A007483
:1002C00065737400417661696C61626C6520636F6F
:1002D0006D6D616E64733A0A000A000A0A000A43EF
:1002E00033323036323436204255494C4420444172
:1002F00054453A204F637420323720323031372052
:1003000030303A32333A33350A0A002A2A2A205545
:1003100041525420706172697479206572726F72F3
:1003200021202A2A2A0A002A2A2A2055415254200A
:1003300064617461206F76657272756E21202A2A5D
:100340002A0A002A2A2A2055415254206672616DD9
:10035000696E67206572726F7221202A2A2A0A004C
:100360002A2A2A205461736B2063616C6C656420B7
:1003700077697468204E554C4C2063616C6C6261E7
:10038000636B21202A2A2A0A002A2A2A2054617310
:100390006B20696E636F6D706C6574652062656655
:1003A0006F7265206E657874207472696767657214
:1003B00021205B7461722F6475722F6D61783A2011
:1003C00025752F25752F25755D202A2A2A0A006399
:1003D00064696E6F70737578585B656667454647EC
:1003E00000616E006E66696E69747900CDCCCC3D9B
:1003F0000AD7233C17B7D13877CC2B329595E62412
:100400001FB14F0A000020410000C84200401C46B6
:1004100020BCBE4CCA1B0E5AAEC59D7411241FBE13
:10042000CFE5D8E0DEBFCDBF10E0A0E6B0E0E0ED64
:10043000F4E202C005900D92A63BB107D9F722E085
:10044000A6EBB0E001C01D92A435B207E1F70E940F
:100450002E070C9466120C94000085B7856085BF4A
:100460001092B6001092B7001092B8001092B90026
:1004700080EC8BBF089529B339B320952170369550
:1004800031708091B6009091B700A091B800B09102
:10049000B900231721F00196A11DB11D03C00197DA
:1004A000A109B1098093B6009093B700A093B8005A
:1004B000B093B900089529B339B3209521703695CA
:1004C00031708091B6009091B700A091B800B091C2
:1004D000B900231721F00197A109B10903C00196C2
:1004E000A11DB11D8093B6009093B700A093B800F2
:1004F000B093B90008952BB72F732BBF6093B6004C
:100500007093B7008093B8009093B90080EC8BBFD4
:1005100008958BB78F738BBF6091B6007091B70051
:100520008091B8009091B90020EC2BBF08958BB753
:100530008F738BBF6091B6007091B7008091B80047
:100540009091B9001092B6001092B7001092B800C6
:100550001092B90020EC2BBF089586E886B980E49C
:1005600087B90895369A86B184B195B10895FC0192
:1005700011821082138212820895FC014081518100
:100580002281338181E090E04217530711F080E02F
:1005900090E00895CF93DF93FC0120813181C281E7
:1005A000D381C9010196648175810E94C00F9C01AD
:1005B00081E090E02C173D0711F080E090E0DF91A2
:1005C000CF9108950F931F93CF93DF931F92CDB7D1
:1005D000DEB78C0169830E94CA026981892BC1F44C
:1005E000D8018D919C9111971696ED91FC911797DA
:1005F000E80FF91F60838D919C91119701961496D5
:100600006D917C9115970E94C00FF80191838083B2
:100610000F90DF91CF911F910F910895FC012081E0
:100620003181828193812817390791F082819381EA
:10063000A681B781A80FB91F2C9182819381019661
:10064000648175810E94C00F93838283822F0895F5
:1006500080E00895FC018481958101970895DC0173
:1006600011961C921E921496ED91FC911597108292
:100670000895FC0181E020813181232B09F080E085
:100680000895FC0181E0408151812281338142172C
:10069000530708F480E00895FC0120813181211581
:1006A000310521F021503109318320830895DC0187
:1006B0002D913C9111972115310559F01496ED912A
:1006C000FC9115972E0F3F1FF901319781E0908122
:1006D000911180E081700895DC012D913C9111977A
:1006E00012964D915C9113972417350778F4FC010D
:1006F00044815581F9013196ED93FC93FA01E20FA3
:10070000F31F60830E94570390E008958FEF9FEFDF
:100710000895683019F40E944C030CC06D3051F0FC
:100720006A3031F4FC0120813181232B19F060E023
:100730000C946C0380E090E008950F931F93CF9387
:10074000DF938C01EB0180E090E06991662329F052
:10075000C8010E94890397FFF8CFDF91CF911F91C5
:100760000F9108950F931F93CF93DF938C01EB01AB
:100770000E945703882359F0F80180819181C8179E
:10078000D90728F4848195818C0F9D1F02C080E0D9
:1007900090E0DF91CF911F910F91089560E070E09C
:1007A0000C94B2030F931F93CF93DF93EC0106E5F4
:1007B00011E080914E0290914F020E9437118F3FBD
:1007C0002FEF920709F1682FCE010E9489038F3F16
:1007D0002FEF920769F0019761F7CE010E94CE03D7
:1007E0000E948B0419821882EC81FD811082E1CF76
:1007F0001F930F930E94AD1119821882EC81FD8125
:1008000010820F900F90D5CFDF91CF911F910F9154
:1008100008950895CF93DF938BED92E09F938F938C
:100820000E94AD1189ED92E09F938F930E94AD11CC
:1008300084EC92E09F938F930E94AD11CFEBD2E0B6
:10084000DF93CF930E94AD11DF93CF930E94AD1140
:10085000DF93CF930E94AD11DF93CF930E94AD1130
:1008600080E592E09F938F930E94AD118DB79EB764
:1008700040960FB6F8949EBF0FBE8DBFDF91CF910B
:1008800008959F938F938BE791E09F938F930E949E
:10089000AD110F900F900F900F900895CF93DF93AD
:1008A000EC01BC0186E990E00E941511892B71F4DE
:1008B00060E070E0CB010E947B0283EF91E09F93A8
:1008C0008F930E94AD110F900F9022C088818111EB
:1008D00013C00E9489029F938F937F936F938DED36
:1008E00091E09F938F930E94AD110F900F900F9006
:1008F0000F900F900F900CC0DF93CF9389EA91E097
:100900009F938F930E94AD110F900F900F900F90B7
:10091000DF91CF910895AF92BF92CF92DF92EF9285
:10092000FF920F931F93CF93DF93CDB7DEB7C055E0
:10093000D1090FB6F894DEBF0FBECDBF8C01009772
:1009400049F484E292E09F938F930E94AD110F903F
:100950000F9065C0D0907000C090710060E270E0B0
:100960000E940A119C01201B310B40E6A42E40E09E
:10097000B42E892B11F0D22EC32EE12CF12CF501CF
:10098000608171814D2D5C2DC8010E941E11892B43
:1009900079F5CE0101966C019F938F938CE990E0DD
:1009A0009F938F930D5F1F4F1F930F930E94D3113F
:1009B0000F900F900F900F900F900F908701000FE6
:1009C000111F000F111F1816190644F4F801E05A00
:1009D000FF4F0280F381E02DC6010995F801E05A2E
:1009E000FF4F0280F381E02D87EA90E0099517C060
:1009F0009FEFE91AF90AE4E0AE0EB11CF3E0EF163E
:100A0000F10409F0BCCF1F930F938DE092E09F9308
:100A10008F930E94AD110F900F900F900F90C05BBD
:100A2000DF4F0FB6F894DEBF0FBECDBFDF91CF9181
:100A30001F910F91FF90EF90DF90CF90BF90AF90FC
:100A400008959F938F9382E991E09F938F930E94E3
:100A5000AD110F900F900F900F90089581B38C6F90
:100A600081BB94989798089581B38C6F81BB929ABB
:100A7000959829E130E08AE090E0939A969AE2EC2A
:100A8000F5E03197F1F700C093989698E2ECF5E025
:100A90003197F1F700C0019781F7FFEF4FE382E054
:100AA000F15040408040E1F700C000002150310982
:100AB00011F79298959A29E130E08AE090E0939AB4
:100AC000969AE2ECF5E03197F1F700C0939896988A
:100AD000E2ECF5E03197F1F700C0019781F7FFEF05
:100AE0004FE382E0F15040408040E1F700C0000059
:100AF0002150310911F7BBCF8091BA00089580933E
:100B0000BA0008951F920F920FB60F9211242F93DF
:100B10003F934F935F936F937F938F939F93AF9385
:100B2000BF93EF93FF930E943B02FF91EF91BF9120
:100B3000AF919F918F917F916F915F914F913F9175
:100B40002F910F900FBE0F901F9018951F920F922C
:100B50000FB60F9211242F933F934F935F936F9390
:100B60007F938F939F93AF93BF93EF93FF930E94D5
:100B70005B02FF91EF91BF91AF919F918F917F9118
:100B80006F915F914F913F912F910F900FBE0F90FA
:100B90001F9018951F920F920FB60F9211242F934A
:100BA0003F934F935F936F937F938F939F93AF93F5
:100BB000BF93EF93FF930E948806FF91EF91BF913F
:100BC000AF919F918F917F916F915F914F913F91E5
:100BD0002F910F900FBE0F901F9018951F920F929C
:100BE0000FB60F9211242F933F934F935F936F9300
:100BF0007F938F939F93AF93BF93EF93FF930E9445
:100C00009406FF91EF91BF91AF919F918F917F914A
:100C10006F915F914F913F912F910F900FBE0F9069
:100C20001F9018958EE890E00E94BD02892B41F438
:100C30008EE890E00E940E03082E000C990B089598
:100C40008FEF9FEF0895CF93DF931F92CDB7DEB75D
:100C5000682F86E890E069830E94CA026981892B27
:100C6000C1F786E890E00E94E202559A80E090E0A9
:100C70000F90DF91CF9108958EE890E00E94B70227
:100C800010BC87E089B988EB8AB986E880BDEEE4BC
:100C9000F2E088E790E091838083938382838EE8FB
:100CA00090E00E94B70286E890E00C94B702CF93E0
:100CB000DF931F92CDB7DEB79BB199838CB19C7146
:100CC00011F1898184FF08C083E493E09F938F939F
:100CD0000E94AD110F900F90898183FF08C087E2B9
:100CE00093E09F938F930E94AD110F900F90898195
:100CF00082FF08C08BE093E09F938F930E94AD1119
:100D00000F900F908FEF90E00F90DF91CF910895AB
:100D10000E9457068F3F2FEF920729F0682F8EE829
:100D200090E00C94E202089586E890E00E94BD02F3
:100D3000892B11F05598089586E890E00E940E03E3
:100D40008CB9089580914B02089510924B0214BC07
:100D500089B7806889BF85B5856085BD089589B7E5
:100D600019BE85B515BC10924B02089588E385BD68
:100D700087E483BD0E94AF0610924D0210924C0290
:100D8000089589B7881F8827881F089590934D027A
:100D900080934C02089580914C0290914D020895E9
:100DA00033B599B7991F9927991F11F089B719BEC3
:100DB00020914B0284B5992319F099B7906899BF97
:100DC00090E0329F800D911D112408950F931F9381
:100DD000CF93DF93C0914C02D0914D02209749F1FF
:100DE00010924B020E94D0068C01FE0109950E94D0
:100DF000D006EC0180914B02882329F10E94AF06B6
:100E000083B51F928F939E01201B310B3F932F932D
:100E10001F930F9389E893E09F938F930E94AD11E6
:100E20008DB79EB708960FB6F8949EBF0FBE8DBFC4
:100E30000AC00E94AF0680E693E09F938F930E94C2
:100E4000AD110F900F90DF91CF911F910F910895E9
:100E500080914B028F5F80934B0208950E942D0278
:100E60000E943C060E94B60678942FEF8FEF9CE21A
:100E7000215080409040E1F700C000008EED92E0EC
:100E80009F938F930E94AD110F900F900E94A20626
:100E9000882319F00E94E606F9CF82E790E00E94CD
:100EA000D203F4CFA3E1B0E0E8E5F7E00C94D40F6F
:100EB0006C014B012A01FC0117821682838181FF9C
:100EC00043C3AE014F5F5F4F3A01F6019381F401D6
:100ED00093FD859193FF81914F01882309F430C3DD
:100EE000853239F493FD859193FF81914F018532CD
:100EF00039F4B60190E00E94751152012501E5CF49
:100F000010E0F12C20E02032A0F48B3269F030F4B4
:100F1000803259F0833269F420612CC08D3239F06F
:100F2000803339F4216026C02260246023C0286009
:100F300021C027FD27C030ED380F3A3078F426FF66
:100F400006C0FAE01F9F300D1124132F13C04AE092
:100F5000F49E300D1124F32E20620CC08E3221F449
:100F600026FDEEC2206406C08C3611F4206802C053
:100F7000883641F4F40193FD859193FF81914F01EF
:100F80008111C1CF9BEB980F933018F42061805EE4
:100F900006C09BE9980F933008F071C12F7E26FFA1
:100FA00016E02F73322E853619F42064322E08C0D5
:100FB000863621F4F22FF0683F2E02C01111115035
:100FC00037FE07C01C3350F4EE24E394E10E27E013
:100FD0000BC0183038F027E017E005C027E04CE3DD
:100FE000E42E02C0212FE12C520144E0A40EB11CDA
:100FF000F20160817181828193810E2DA3010E9493
:101000000B102C01098100FF02C003FF07C031FC57
:1010100008C032FE09C030E2232E07C02DE2222E86
:1010200004C09BE2292E01C0212C802F8C7019F066
:10103000211068C2A8C237FE0FC0E40C04FF04C030
:101040008A81813309F4EA941E1474F5F8E0FE15E0
:1010500078F588E0E82E2CC036FC2AC0812F90E07D
:10106000841595059CF02CEF42162FEF520674F074
:10107000432D4068342E0AC0E2E0F0E0EC0FFD1F83
:10108000E10FF11D8081803319F411501111F4CF5B
:1010900037FE0EC0EE24E394E10E812F90E0481657
:1010A00059062CF4141904C0EE24E39401C010E096
:1010B00037FE06C01414150434F4C201019605C0AD
:1010C00085E090E002C081E090E0211001961123BC
:1010D00031F0212F30E02F5F3F4F820F931F2F2DD4
:1010E00030E08217930714F4F81A01C0F12C832D15
:1010F000897049F4FF2039F0B60180E290E00E9447
:101100007511FA94F7CF222029F0B601822D90E0D4
:101110000E94751133FC09C0FF2039F0B60180E34D
:1011200090E00E947511FA94F7CF37FE5AC0942DC3
:10113000852D57FE02C090E080E0292E382E20E059
:1011400030E0A2014E1951095D874C87A201421976
:1011500053095F874E87612F70E044275527461B50
:10116000570B598B488B5FEF2516350649F4B601AE
:101170008EE290E02A8B3B8B0E9475113B892A8975
:10118000421453046CF04C855D854215530544F4BC
:10119000EE85FF85E20FF31FE60DF71D818101C08B
:1011A00080E351E0251A31082F5F3F4F4889598964
:1011B000241635064CF0B60190E02A8B3B8B0E943A
:1011C00075112A893B89CFCF2414350439F49A81CB
:1011D000963318F4953311F404FF81E3B60190E0DF
:1011E0004BC08A81813309F00F7EB60190E00E94E6
:1011F0007511111105C034FC18C085E690E017C0C8
:10120000B6018EE290E00E94751182E0EE24E39434
:10121000E80EF301E80FF11D8081B60190E00E9415
:10122000751111508E2D91F7E6CF85E490E0B6014F
:101230000E94751157FC05C04114510439F404FF94
:1012400005C05194419451088DE201C08BE2B60172
:1012500090E00E94751180E39AE0491651042CF049
:101260008F5F5AE0451A5108F7CFB60190E00E940F
:101270007511B601C201C0960E94751157C183361F
:1012800031F0833779F0833509F058C021C052011D
:10129000E2E0AE0EB11CF2018081898301E010E032
:1012A000230114C05201F2E0AF0EB11CF2014080E4
:1012B000518026FF03C0612F70E002C06FEF7FEF07
:1012C000C2012A8B0E942C118C012A892F7715C00C
:1012D0005201F2E0AF0EB11CF2014080518026FFB6
:1012E00003C0612F70E002C06FEF7FEFC2012A8B55
:1012F0000E94FF108C012A892068322E23FD1AC01B
:101300008F2D90E008171907A8F4B60180E290E04D
:101310000E947511FA94F4CFF20137FC859137FEE3
:1013200081912F01B60190E00E947511F110FA949D
:10133000015011090115110579F7F8C0843611F033
:10134000893659F5520127FF09C0F4E0AF0EB11CF0
:10135000F20160817181828193810AC0F2E0AF0E57
:10136000B11CF20160817181072E000C880B990B72
:101370002F76322E97FF09C09095809570956195D4
:101380007F4F8F4F9F4F2068322E2AE030E0A3011D
:101390000E940512E82EE6183FC0022F853721F47F
:1013A0000F7E2AE030E01DC0097F8F3691F018F4DF
:1013B000883559F0C5C0803719F0883711F0C0C0A2
:1013C000006104FF09C0046007C024FF08C0066074
:1013D00006C028E030E005C020E130E002C020E196
:1013E00032E0520107FF09C0F4E0AF0EB11CF20178
:1013F000608171818281938108C0F2E0AF0EB11CDF
:10140000F2016081718180E090E0A3010E940512E9
:10141000E82EE6180F77302E36FE0BC0332D3E7FB8
:10142000E11650F434FE0AC032FC08C0332D3E7E73
:1014300005C00E2D332D03C00E2D01C0012F34FF2A
:101440000CC0FE01EE0DF11D8081803311F4397E58
:1014500008C032FF05C00E5F04C0832F867809F0F4
:101460000F5F33FD13C030FF06C01E2D0F1518F49B
:101470001F0D101B0F2D0F1568F4B60180E290E0D0
:101480003B8B0E9475110F5F3B89F5CF0F1510F450
:10149000F01A01C0F12C34FF12C0B60180E390E0D5
:1014A0003B8B0E9475113B8932FF17C031FD03C091
:1014B00088E790E002C088E590E0B6010CC0832F79
:1014C000867859F031FF02C08BE201C080E237FD1F
:1014D0008DE2B60190E00E947511E11638F4B60174
:1014E00080E390E00E9475111150F7CFEA94F30168
:1014F000EE0DF11D8081B60190E00E947511E110A2
:10150000F5CF14C0F4E0FF1558F584E0F81A33FE67
:101510001EC0211026C003FF2AC004E510E0F32DF1
:10152000F0713F2EF8018491811124C0FF2009F44D
:10153000E5CCB60180E290E00E947511FA94F6CFF6
:10154000F6018681978126C08FEF9FEF23C0B601F9
:1015500080E290E00E947511FA94F110F8CFD9CF93
:10156000F12CB601822D90E00E947511D4CF08E5D0
:1015700010E0D5CF31108052B60190E00E94751175
:101580000F5F1F4FCFCF23E02F1510F483E0BECFA6
:10159000F12CC1CF6396E2E10C94F00F20FD09C05D
:1015A000FC0123FD05C022FF02C0738362835183C7
:1015B0004083089544FD10C046FD10C0DB01FC01CE
:1015C000AA0FBB1FEE1FFF1F1094D1F76A0F7B1FDE
:1015D0008E1F9F1F31E003C033E001C034E0660F6F
:1015E000771F881F991F3150D1F7620F711D811D20
:1015F000911D08950F931F93CF93DF938C01C80122
:101600000E943711EC0197FD08C00E94E310892B5E
:10161000B1F7B801CE010E94EC11CE01DF91CF915C
:101620001F910F910895A0E0B0E0E9E1FBE00C9478
:10163000DA0F7C018B016A01D22F0E9437119C01C5
:1016400033272B32310521F02D32310559F4D06882
:101650000150110911F480E069C0C7010E943711DF
:1016600097FDF9CFCD2FCD7F2D2F207309F5803336
:10167000F9F4580181E0A81AB10809F443C0C70180
:101680000E94371197FD3EC0282F2F7D283551F439
:10169000C26402501109B1F1C7010E94371197FFCE
:1016A00007C030C0D6FF02C0C26001C0C261850160
:1016B000812C912C540120ED280F283080F0C4FF9C
:1016C00004C0B7010E94EC111AC02A3040F0C6FFD6
:1016D000F8CF2F7D3FEE320F363098F727504C2F42
:1016E000C501B4010E94DA0A4B015C01C2600150DD
:1016F000110959F0C7010E94371197FFDCCFC1FDD6
:1017000004C0A9CF812C912C5401C7FF08C0B0940C
:10171000A09490948094811C911CA11CB11C2C2F2E
:10172000B501A401C6010E94CE0A81E0CDB7DEB7A3
:10173000ECE00C94F60FA0E2B0E0E1EAFBE00C94E0
:10174000D60F4C015B017A018E010F5F1F4F6801BC
:1017500080E2F80111928A95E9F7F401638040E094
:1017600050E0712C412C80E0A1E0B0E0F90163FC75
:10177000559063FE51908F01952D9F01511003C02C
:1017800080E090E080C0FEE55F1203C04115510586
:1017900061F1682F70E0641775074CF46DE556161B
:1017A00069F1EDE25E1203C0442009F103C041106B
:1017B00001C0752C692F669566956695F601E60F52
:1017C000F11D692F67708D0102C0000F111F6A950E
:1017D000E2F7B8017081672B6083971559F0971570
:1017E00010F49F5FE7CF9150E5CF81E004C044241F
:1017F000439401C0412C4F5F5F4FB8CF442019F094
:101800009E8190629E83811103C07724739418C0D7
:10181000F6019E012F5D3F4F808180958193E217F5
:10182000F307D1F7F2CFE114F10429F0F701808337
:10183000C70101967C0191E0A91AB108712CE9F069
:10184000C4010E94371197FD16C0282F26952695B2
:101850002695F601E20FF11D208130E0AC014770C2
:10186000552702C0359527954A95E2F720FDDBCF35
:10187000B4010E94EC11711083CFE114F10411F056
:10188000F7011082C801A096E0E10C94F20FA6E0E7
:10189000B0E0EDE4FCE00C94D40F5C017B011A0194
:1018A0000E9437119E838D8399278B32910521F0F9
:1018B0008D9789F410E801C010E021E0E21AF108E8
:1018C00011F480E02CC1C5010E9437119E838D83E5
:1018D00097FF02C0F6CF10E08D819E810E94EC1030
:1018E0008936910549F08E36910509F03BC061EECD
:1018F000862E63E0962E04C074EE872E73E0972E3A
:10190000EFEF8E1A9E0AF401319704910023C9F07B
:1019100081E0E81AF10871F0C5010E9437116C01ED
:1019200097FD08C00E94EC10081751F3B501C601DD
:101930000E94EC1197EE891693E0990609F0C1CF49
:1019400005C0F4EE8F16F3E09F0629F080E090E0EA
:10195000A0E8BFE704C080E090E0A0ECBFE7BC01D6
:10196000CD01CDC0412C512C3201C12CD12C2D8167
:1019700020532A3018F5012F0260812F887012FF42
:1019800006C0811121C02FEFC21AD20A1DC08823C0
:1019900019F081E0C81AD10840E2C301B2010E94E7
:1019A000DA0A2B013C0198E9491699E959066906BA
:1019B00099E1790648F0012F066006C02E3F91F4A8
:1019C00013FD10C0012F0860E1E0EE1AF10849F0A4
:1019D000C5010E9437119E838D83102F97FFC7CFBB
:1019E00001C0102F11FF6DCF8D818F7D853409F0DF
:1019F0004EC04701F1E08F1A910809F462CFC5018A
:101A00000E9437119E838D8397FD5BCF99278B3280
:101A1000910519F08D9761F41061470122E0821A57
:101A2000910809F44ECFC5010E9437119E838D8322
:101A30008D819E81C0970A9708F043CF7401812C55
:101A4000912CB401990C880B990B2D81205340E205
:101A50000E94DA0AAB01BC014A0181E0E81AF108F0
:101A600071F0C50149835A836B837C830E943711CF
:101A70009E838D83C09749815A810A9710F314FF82
:101A800004C088249924841A950AC80CD91CEF280C
:101A900041F0ED81FE81F7FD04C0B501CF010E9448
:101AA000EC11C301B2010E94C50ED7FE08C0D1944B
:101AB000C194D10850E0852E54E0952E04C048E131
:101AC000842E44E0942E5401F8E1AF1AB10830E2BC
:101AD000E32EF12CCE14DF0450F0F4012591359162
:101AE000459154910E94020FCE18DF08F3CF24E0F5
:101AF000821A9108F694E7948A149B0459F717FF09
:101B000005C0DC01CB01B058BC01CD01211431046A
:101B100029F0F101608371838283938381E02696AB
:101B2000E2E10C94F00FA1E0B0E0E9E9FDE00C94F3
:101B3000D60F6C012B014A01FC0117821682A12CE1
:101B4000F601F380F201F3FC8591F3FE8191482FB9
:101B50002F01882309F410C190E049830E94E3100B
:101B60004981892B21F0C6010E94FA0AE9CF45324A
:101B700041F4F201F3FC4591F3FE41912F0145320E
:101B800069F4C60149830E943711498197FDF2C06B
:101B90004817B1F2B6010E94EC11EEC04A3239F496
:101BA000F3FC4591F3FE41912F0151E001C050E05B
:101BB000320100E010E020ED240F2A3088F452605A
:101BC000B80180E090E040E259830E94DA0A8B017C
:101BD000F301F3FC4591F3FE41913F015981EBCFB5
:101BE000B52E342F230151FF04C00115110519F43E
:101BF000C3C00FEF1FEF483619F04C3659F013C031
:101C0000F301F3FC3591F3FE31912F01383659F48D
:101C10005860B52EFB2DF460BF2EF201F3FC359118
:101C2000F3FE31912F01332309F4A6C0632F70E036
:101C30008FEC93E039830E94F4103981892B09F4E9
:101C40009BC0B0FC07C0F401E080F180C4010296A3
:101C50004C0102C0E12CF12C3E3651F4F6014681D4
:101C6000578160E070E02B2DC7010E94CE0A68CF3B
:101C70003336A9F4B1FC02C001E010E0C6010E94B5
:101C8000371197FD77C0E114F10429F0F701808343
:101C9000C70101967C010150110981F767C03B35EE
:101CA00059F49201A701B801C6010E949B0B2C01B7
:101CB000892B09F05BC055C0C60139830E94FA0A1E
:101CC000398197FD57C03F36D9F140F43436A1F140
:101CD0003936C9F1383509F03DC02AC03337A1F093
:101CE00018F4303729F136C0353731F1383701F182
:101CF00031C0E114F10429F0F7016082C7010196B7
:101D00007C010150110971F0C6010E9437113C019C
:101D100097FD08C00E94E310892B59F3B601C30157
:101D20000E94EC11E114F10409F1F70110821EC0C8
:101D3000FB2DF064BF2E07C08B2D8062B82E03C030
:101D40009B2D9061B92E2B2DA701B801C6010E94D1
:101D5000130B05C0A701B801C6010E94470C8111F1
:101D600005C0F6018381807329F406C0B0FCE8CE7B
:101D7000A394E6CEAA2019F08A2D90E002C08FEF3E
:101D80009FEF2196E0E10C94F20FE89409C097FBD5
:101D90003EF490958095709561957F4F8F4F9F4F42
:101DA0009923A9F0F92F96E9BB279395F695879586
:101DB00077956795B795F111F8CFFAF4BB0F11F449
:101DC00060FF1BC06F5F7F4F8F4F9F4F16C08823F0
:101DD00011F096E911C0772321F09EE8872F762F26
:101DE00005C0662371F096E8862F70E060E02AF067
:101DF0009A95660F771F881FDAF7880F9695879553
:101E000097F908950E94150F0C94860F0E94780F81
:101E100038F00E947F0F20F0952311F00C946F0F83
:101E20000C94750F11240C94BA0F0E94970F70F345
:101E3000959FC1F3950F50E0551F629FF001729F6F
:101E4000BB27F00DB11D639FAA27F00DB11DAA1F7E
:101E5000649F6627B00DA11D661F829F2227B00DCB
:101E6000A11D621F739FB00DA11D621F839FA00D56
:101E7000611D221F749F3327A00D611D231F849FA6
:101E8000600D211D822F762F6A2F11249F575040FD
:101E90009AF0F1F088234AF0EE0FFF1FBB1F661F78
:101EA000771F881F91505040A9F79E3F510580F041
:101EB0000C946F0F0C94BA0F5F3FE4F3983ED4F389
:101EC000869577956795B795F795E7959F5FC1F7E5
:101ED000FE2B880F911D9695879597F9089597F990
:101EE0009F6780E870E060E008959FEF80EC0895C0
:101EF00000240A94161617061806090608950024E9
:101F00000A9412161306140605060895092E039462
:101F1000000C11F4882352F0BB0F40F4BF2B11F4D6
:101F200060FF04C06F5F7F4F8F4F9F4F089557FD35
:101F30009058440F551F59F05F3F71F04795880F37
:101F400097FB991F61F09F3F79F0879508951216CE
:101F500013061406551FF2CF4695F1DF08C016167A
:101F600017061806991FF1CF86957105610508942B
:101F70000895E894BB2766277727CB0197F9089542
:101F8000AA1BBB1B51E107C0AA1FBB1FA617B7079F
:101F900010F0A61BB70B881F991F5A95A9F78095BB
:101FA0009095BC01CD0108952F923F924F925F9280
:101FB0006F927F928F929F92AF92BF92CF92DF9259
:101FC000EF92FF920F931F93CF93DF93CDB7DEB7BE
:101FD000CA1BDB0B0FB6F894DEBF0FBECDBF099452
:101FE0002A88398848885F846E847D848C849B84A9
:101FF000AA84B984C884DF80EE80FD800C811B81B7
:10200000AA81B981CE0FD11D0FB6F894DEBF0FBEE5
:10201000CDBFED010895283008F027E03327DA011D
:10202000990F311D87FD916000966105710539F4A6
:1020300032602E5F3D9330E32A95E1F708959F3F8C
:1020400030F080387105610509F03C5F3C5F3D93DD
:10205000913008F08068911DDF93CF931F930F9309
:10206000FF92EF92192F987F9695E92F9695969566
:10207000E90FFF27EA54FF4F99273327EE24FF2467
:10208000A701E70105900894079428F4360FE71E8E
:10209000F81E491F511D660F771F881F991F069450
:1020A000A1F70590079428F4E70EF81E491F561F64
:1020B000C11D770F881F991F661F0694A1F7059011
:1020C000079428F4F80E491F561FC71FD11D880F0B
:1020D000991F661F771F0694A1F70590079420F4B7
:1020E000490F561FC71FD81F990F661F771F881FDC
:1020F0000694A9F784911095177041F0D695C7956D
:1021000057954795F794E7941A95C1F7ECE5F0E0F9
:1021100068941590159135916591959105907FE2A0
:102120007395E118F10A430B560BC90BD009C0F7A0
:10213000E10CF11E431F561FC91FD01D7EF47033E2
:1021400011F48A95E6CFE894015030F0080F0AF4B4
:102150000027021708F4202F2395022F7A3328F046
:1021600079E37D932A95E9F710C07D932A9589F646
:10217000069497956795379517951794E118F10A86
:10218000430B560BC90BD00998F023957E9173959C
:102190007A3308F070E37C932013B8F77E91706176
:1021A0007D9330F0839571E37D9370E32A95E1F799
:1021B0001124EF90FF900F911F91CF91DF919927FC
:1021C00087FD9095089591110C946312803219F057
:1021D00089508550C8F708959111089581548A5106
:1021E00008F4805E855A0895FC010590061621F0DA
:1021F0000020D9F7C00108953197CF010895FC015F
:102200000590615070400110D8F7809590958E0F21
:102210009F1F0895FC018191861721F08823D9F72B
:10222000992708953197CF010895FB01DC018D9125
:10223000019080190110D9F3990B0895FB01DC017D
:102240004150504030F08D910190801919F40020D8
:10225000B9F7881B990B0895FC01615070400190FB
:102260000110D8F7809590958E0F9F1F0895CF93FA
:10227000DF93EC012B8120FF33C026FF0AC02F7BA8
:102280002B838E819F8101969F838E838A8190E02C
:1022900029C022FF0FC0E881F9818081082E000C3F
:1022A000990B009719F420622B831AC03196F98399
:1022B000E8830EC0EA85FB85099597FF09C02B814D
:1022C000019611F080E201C080E1822B8B8308C06F
:1022D0002E813F812F5F3F4F3F832E83992702C07E
:1022E0008FEF9FEFDF91CF9108950F931F93CF93BF
:1022F000DF93FB01238121FD03C08FEF9FEF28C0F7
:1023000022FF16C046815781248135814217530729
:1023100044F4A081B1819D012F5F3F4F3183208321
:102320008C93268137812F5F3F4F3783268310C0E0
:10233000EB01092F182F0084F185E02D0995892BD9
:10234000E1F68E819F8101969F838E83812F902F4E
:10235000DF91CF911F910F910895A0E0B0E0E3EBE2
:10236000F1E10C94E20FAE01495F5F4FDA016D912C
:102370007D91AD010EE412E0F80182819381DC01D0
:1023800013962C911397286013962C930E94520752
:10239000D8011296ED91FC9113972381277F238317
:1023A000E4E00C94FE0FAEE0B0E0E9EDF1E10C9456
:1023B000E40F85E08C838B899C899A838983AE01A5
:1023C000495E5F4F6D897E89CE0101960E94930D13
:1023D0002E96E2E00C940010FB01238120FF12C036
:1023E00026FD10C08F3F3FEF930761F082832F7D62
:1023F0002064238326813781215031093783268346
:10240000992708958FEF9FEF0895FA01AA272830A2
:1024100051F1203181F1E8946F936E7F6E5F7F4FB1
:102420008F4F9F4FAF4FB1E03ED0B4E03CD0670F2D
:10243000781F891F9A1FA11D680F791F8A1F911D80
:10244000A11D6A0F711D811D911DA11D20D009F4D0
:1024500068943F912AE0269F11243019305D319312
:10246000DEF6CF010895462F4770405D4193B3E0FB
:102470000FD0C9F7F6CF462F4F70405D4A3318F0A2
:10248000495D31FD4052419302D0A9F7EACFB4E053
:10249000A6959795879577956795BA95C9F700970B
:1024A0006105710508959B01AC010A2E06945795AC
:1024B000479537952795BA95C9F7620F731F841F03
:1024C000951FA01D0895992788270895F894FFCF98
:1024D000A70041049F000A04A4004E04A8000904B8
:1024E000040000005000BB000000000300000000DA
:1024F0002306120600000000000000010B0100008E
:10250000000040000B02726573657400257300685B
:10251000656C7000656E630074657374696E675FE7
:06252000736869740000FD
:00000001FF
