:100000000C94BA020C9408080C942C080C94D70297
:100010000C94D7020C94D7020C94D7020C94D702FC
:100020000C94D7020C94D7020C94D7020C94D702EC
:100030000C94D7020C9450080C9474080C94D702BA
:100040000C94D7020C94D7020C94D7020C94D702CC
:100050000C94D7026E616E00696E660000407A10E3
:10006000F35A00A0724E18090010A5D4E80000E869
:100070007648170000E40B54020000CA9A3B0000C7
:1000800000E1F505000080969800000040420F0056
:100090000000A08601000000102700000000E80317
:1000A000000000006400000000000A0000000000E2
:1000B0000100000000002C76D888DC674F0823DFA1
:1000C000C1DFAE59E1B1B796E5E3E453C63AE65174
:1000D000997696E8E6C28426EB898C9B62ED407C9B
:1000E0006FFCEFBC9C9F40F2BAA56FA5F490055A37
:1000F0002AF75C936B6CF9676DC11BFCE0E40D475C
:10010000FEF520E6B500D0ED902E0300943577057E
:100110000080841E080000204E0A000000C80C3336
:100120003333330F986E12831141EF8D2114893BC5
:10013000E65516CFFEE6DB18D1844B381BF77C1D45
:10014000901DA4BBE424203284725E228100C9F198
:1001500024ECA1E53D274E414E494E495459494EA4
:1001600046CDCCCC3D0AD7233C17B7D13877CC2B22
:10017000329595E6241FB14F0A000020410000C8C7
:100180004200401C4620BCBE4CCA1B0E5AAEC59D48
:10019000742A2A2A204D617820636F6D6D616E6428
:1001A000206C656E67746820657863656564656456
:1001B000202A2A2A0A00444F4E450A004F4B415933
:1001C0000A00444F4E450A004F4B41590A00444F24
:1001D0004E450A004F4B41590A00444F4E450A0014
:1001E0004F4B41590A00556E6B6E6F776E20636FEF
:1001F0006D6D616E643A20222573220A00556E6B84
:100200006E6F776E20636F6D6D616E643A2022258C
:1002100073220A00656E633A20696E76616C6964C8
:1002200020617267756D656E7420222573222C2003
:1002300073796E7461782069733A20656E63205B10
:1002400072657365745D0A00456E636F6465722044
:10025000636F756E7420697320256C640A00456EA7
:10026000636F64657220636F756E74207265736569
:100270007420746F20300A00556E6B6E6F776E209D
:10028000636F6D6D616E643A20222573220A00450A
:1002900052524F523A20547269656420746F207034
:1002A00061727365204E554C4C20636F6D6D616EAD
:1002B0006420706F696E7465720A00202D2D2D2DDB
:1002C0002D2D2D2D2D2D2D2D2D2D2D2D2D2D2D2D5E
:1002D0002D2D2D2D2D2D2D2D2D2D2D2D2D2D2D2D4E
:1002E0002D2D2D2D2D2D2D2D2D2D2D2D2D2D2D2D3E
:1002F0002D2D2D2D2D2D2D2D2D2D2D200A007C2049
:1003000025732009090909202573200A0041766117
:10031000696C61626C6520636F6D6D616E64733AC8
:100320000A00202D2D2D2D2D2D2D2D2D2D2D2D2D5A
:100330002D2D2D2D2D2D2D2D2D2D2D2D2D2D2D2DED
:100340002D2D2D2D2D2D2D2D2D2D2D2D2D2D2D2DDD
:100350002D2D2D2D2D2D2D2D2D2D2D2D2D2D2D2DCD
:100360002D2D200A4333323036323436204255495F
:100370004C4420444154453A204F63742032372086
:10038000323031372031393A32343A32340A0A0ABB
:100390000044697374616E6365206F66202725646D
:1003A00027207365747320737465705F6469737458
:1003B000616E636520666F72202725642720667250
:1003C0006F6D2027256427200A0054696D6520275A
:1003D000256427207365747320737465705F646986
:1003E0007374616E636520666F7220272564272011
:1003F0000A0056656C6F636974792027256627208B
:100400007365742076656C6F636974795F64656C7D
:10041000617920746F20272564270A0044697220BF
:1004200073657420746F2027257327200A004552B6
:10043000524F520A000A43333230363234362042A9
:1004400055494C4420444154453A204F637420326E
:100450003720323031372031393A32343A32340AA7
:100460000A002A2A2A205541525420706172697468
:1004700079206572726F7221202A2A2A0A002A2A9C
:100480002A20554152542064617461206F76657250
:1004900072756E21202A2A2A0A002A2A2A2055410A
:1004A0005254206672616D696E67206572726F7258
:1004B00021202A2A2A0A002A2A2A205461736B2022
:1004C00063616C6C65642077697468204E554C4C90
:1004D0002063616C6C6261636B21202A2A2A0A0006
:1004E0002A2A2A205461736B20696E636F6D706CC9
:1004F000657465206265666F7265206E657874202C
:100500007472696767657221205B7461722F64750C
:10051000722F6D61783A2025752F25752F25755D11
:10052000202A2A2A0A006364696E6F7073757858EE
:100530005B65666745464700616E006E66696E6979
:10054000747900CDCCCC3D0AD7233C17B7D138778E
:10055000CC2B329595E6241FB14F0A0000204100B4
:1005600000C84200401C4620BCBE4CCA1B0E5AAEFE
:10057000C59D740011241FBECFE5D8E0DEBFCDBFFE
:1005800011E0A0E6B0E0ECE1FFE202C005900D92C0
:10059000AC3EB107D9F723E0ACEEB1E001C01D924B
:1005A000AC38B207E1F70E94B4090C948C170C9494
:1005B000000085B7856085BF1092EC011092ED01B7
:1005C0001092EE011092EF0180EC8BBF089529B3D9
:1005D00039B320952170369531708091EC0190915E
:1005E000ED01A091EE01B091EF01231721F00196EA
:1005F000A11DB11D03C00197A109B1098093EC01B0
:100600009093ED01A093EE01B093EF01089529B30B
:1006100039B320952170369531708091EC0190911D
:10062000ED01A091EE01B091EF01231721F00197A8
:10063000A109B10903C00196A11DB11D8093EC0170
:100640009093ED01A093EE01B093EF0108952BB7C5
:100650002F732BBF6093EC017093ED018093EE013B
:100660009093EF0180EC8BBF08958BB78F738BBF96
:100670006091EC017091ED018091EE019091EF019C
:1006800020EC2BBF08958BB78F738BBF6091EC016B
:100690007091ED018091EE019091EF011092EC01CB
:1006A0001092ED011092EE011092EF0120EC2BBFA1
:1006B000089586E886B980E487B90895369A86B1A8
:1006C00084B195B10895FC011182108213821282C7
:1006D0000895FC01408151812281338181E090E0C5
:1006E0004217530711F080E090E00895CF93DF9315
:1006F000FC0120813181C281D381C90101966481CD
:1007000075810E94F0129C0181E090E02C173D075A
:1007100011F080E090E0DF91CF9108950F931F9347
:10072000CF93DF931F92CDB7DEB78C0169830E9410
:1007300076036981892BC1F4D8018D919C91119721
:100740001696ED91FC911797E80FF91F60838D9134
:100750009C911197019614966D917C9115970E942A
:10076000F012F801918380830F90DF91CF911F9158
:100770000F910895FC012081318182819381281796
:10078000390791F082819381A681B781A80FB91FA3
:100790002C91828193810196648175810E94F0126F
:1007A00093838283822F089580E00895FC018481E1
:1007B000958101970895DC0111961C921E92149662
:1007C000ED91FC91159710820895FC0181E0208144
:1007D0003181232B09F080E00895FC0181E0408104
:1007E0005181228133814217530708F480E0089534
:1007F000FC01208131812115310521F02150310981
:10080000318320830895DC012D913C9111972115AE
:10081000310559F01496ED91FC9115972E0F3F1F5D
:10082000F901319781E09081911180E08170089504
:10083000DC012D913C91119712964D915C9113978B
:100840002417350778F4FC0144815581F90131966C
:10085000ED93FC93FA01E20FF31F60830E940304FF
:1008600090E008958FEF9FEF0895683019F40E948B
:10087000F8030CC06D3051F06A3031F4FC01208176
:100880003181232B19F060E00C94180480E090E093
:1008900008950F931F93CF93DF938C01EB0180E0BA
:1008A00090E06991662329F0C8010E94350497FF02
:1008B000F8CFDF91CF911F910F9108950F931F9360
:1008C000CF93DF938C01EB010E940304882359F03E
:1008D000F80180819181C817D90728F48481958116
:1008E0008C0F9D1F02C080E090E0DF91CF911F919F
:1008F0000F91089560E070E00C945E040F931F93D5
:10090000CF93DF93EC0101E911E080918403909192
:1009100085030E94A5148F3F2FEF920709F1682FDE
:10092000CE010E9435048F3F2FEF920769F00197A7
:1009300061F7CE010E947A040E94B00519821882E4
:10094000EC81FD811082E1CF1F930F930E941B1554
:1009500019821882EC81FD8110820F900F90D5CF03
:10096000DF91CF911F910F9108950C9472069F9380
:100970008F9386EE91E09F938F930E941B150F90AB
:100980000F900F900F9008950F931F93CF93DF93C5
:1009900082E293E09F938F930E941B158DE093E07A
:1009A0009F938F930E941B15C0E6D0E00F900F908D
:1009B0000F900F900EEF12E08D818F938C818F93AB
:1009C00089818F9388818F931F930F930E941B15AA
:1009D0002FEF8FE794E0215080409040E1F700C076
:1009E000000026960F900F900F900F900F900F9091
:1009F00020E0C039D20701F78BEB92E09F938F93F1
:100A00000E941B150F900F90DF91CF911F910F91B6
:100A10000895CF93DF93EC0120EE31E03F932F93C5
:100A20000E941B15CE010E9453130E9491078AED6C
:100A300091E09F938F930E941B150F900F900F9042
:100A40000F90DF91CF910895CF93DF93EC0124EDC8
:100A500031E03F932F930E941B15CE010E94531348
:100A60000E9446078EEC91E09F938F930E941B1586
:100A70000F900F900F900F90DF91CF910895CF932B
:100A8000DF93EC0128EC31E03F932F930E941B157C
:100A9000CE010E944F130E94030782EC91E09F93C6
:100AA0008F930E941B150F900F900F900F90DF9166
:100AB000CF910895CF93DF93EC012CEB31E03F937E
:100AC0002F930E941B15CE010E94BA0686EB91E07F
:100AD0009F938F930E941B150F900F900F900F9074
:100AE000DF91CF910895CF93DF93EC01BC0186ECA9
:100AF00090E00E947B14892B71F460E070E0CB01E0
:100B00000E9427038EE592E09F938F930E941B150E
:100B10000F900F9022C08881811113C00E9435036D
:100B20009F938F937F936F9388E492E09F938F932B
:100B30000E941B150F900F900F900F900F900F9029
:100B40000CC0DF93CF9384E192E09F938F930E9438
:100B50001B150F900F900F900F90DF91CF9108957C
:100B60004F925F926F927F928F929F92AF92BF92BD
:100B7000CF92DF92EF92FF920F931F93CF93DF9369
:100B8000CDB7DEB7C055D1090FB6F894DEBF0FBEA2
:100B9000CDBF7C01009749F48FE892E09F938F933B
:100BA0000E941B150F900F9078C0509090004090BD
:100BB000910060E270E00E9470145C014C018E189C
:100BC0009F0880E6C82E80E0D82E612C712CA114DD
:100BD000B10459F46AE070E0C7010E9470140097F4
:100BE00031F08C010E191F0904C0840102C0052DCB
:100BF000142DF60160817181A801C7010E9484143F
:100C0000892BA1F5CE0101966C019F938F938CECFB
:100C100090E09F938F930E0D1F1D1F930F930E94C3
:100C200041150F900F900F900F900F900F90181686
:100C300019066CF486E0869DF001879DF00D112465
:100C4000E05AFF4F0280F381E02DC6010DC086E01F
:100C5000869DF001879DF00D1124E05AFF4F028020
:100C6000F381E02D84E391E0099517C09FEF691AA5
:100C7000790AE6E0CE0ED11CF8E06F16710409F097
:100C8000A6CFFF92EF9288E792E09F938F930E9406
:100C90001B150F900F900F900F90C05BDF4F0FB69A
:100CA000F894DEBF0FBECDBFDF91CF911F910F91A2
:100CB000FF90EF90DF90CF90BF90AF909F908F907C
:100CC0007F906F905F904F9008959F938F938DEFDB
:100CD00091E09F938F930E941B150F900F900F90A0
:100CE0000F90089581B38C6F81BB929A959829E1FA
:100CF00030E08AE090E0939A969AE2ECF5E0319742
:100D0000F1F700C093989698E2ECF5E03197F1F78F
:100D100000C0019781F7FFEF4FE382E0F1504040C0
:100D20008040E1F700C000002150310911F792988E
:100D3000959A29E130E08AE090E0939A969AE2EC65
:100D4000F5E03197F1F700C093989698E2ECF5E062
:100D50003197F1F700C0019781F7FFEF4FE382E091
:100D6000F15040408040E1F700C0000021503109BF
:100D700011F7BBCFCF93DF93EC01BC018EEC91E078
:100D80000E947B14892B11F4929A11C0BE0187ED49
:100D900091E00E947B14892B11F4929812C0BE013D
:100DA00081EE91E00E947B14892B19F4929895981A
:100DB00012C0BE0186EE91E00E947B14892B19F4CB
:100DC000929A959A08C08EE294E09F938F930E9426
:100DD0001B150F900F90DF93CF938CE194E09F93BE
:100DE0008F930E941B150F900F900F900F90DF9123
:100DF000CF91089581B38C6F81BB949897988EECB6
:100E000091E00C94BA060F931F93CF93DF93EB01FD
:100E1000182F092F9B01482F592F62E779ED80E2A7
:100E200090E40E944D110E94BF11E2E9F0E060835E
:100E30007183628373837F936F930F931F93DF9309
:100E4000CF9382EF93E09F938F930E941B158DB7F2
:100E50009EB708960FB6F8949EBF0FBE8DBFDF9168
:100E6000CF911F910F910895009739F0E6E6FEE0CB
:100E70003197F1F700000197F7CF0895009729F017
:100E800025E02A95F1F70197F9CF0895EF92FF92A7
:100E90000F931F93CF93DF939C01809192009091C9
:100EA000930068EE73E00E940413C9010E940413CA
:100EB000EB01DF936F933F932F938AEC93E09F9323
:100EC0008F930E941B150F900F900F900F900F9013
:100ED0000F9000E010E00C171D07E4F48AE0E82E04
:100EE000F12C939A969A80E991E00E943E0793989C
:100EF000969880E991E00E943E0781E0E81AF108A7
:100F000081F780919200909193000E9434070F5FC7
:100F10001F4FE1CFDF91CF911F910F91FF90EF9085
:100F20000895CF92DF92EF92FF920F931F93CF938A
:100F3000DF93EC01BC01990F880B990B0E94F7110C
:100F400020E030E04AE754E40E944D1128E539E3FF
:100F500044EB5DE30E944D1120E030E048E453E4AF
:100F60000E94831228E539E344EB5DE30E9483127B
:100F7000162F072FD82EC92EA8019601652F742F82
:100F8000832F922F0E94BF117B01CF92DF920F938C
:100F90001F937F936F93DF93CF9381E993E09F93A8
:100FA0008F930E941B158DB79EB70A960FB6F894C3
:100FB0009EBF0FBE8DBFC0E0D0E0CE15DF05CCF4E4
:100FC0000AE010E0939A969A80E991E00E943E0729
:100FD0009398969880E991E00E943E07015011098C
:100FE00089F780919200909193000E943407219696
:100FF000E4CFDF91CF911F910F91FF90EF90DF90A1
:10100000CF9008958091F00108958093F0010895A4
:101010001F920F920FB60F9211242F933F934F936D
:101020005F936F937F938F939F93AF93BF93EF9350
:10103000FF930E94E702FF91EF91BF91AF919F91C3
:101040008F917F916F915F914F913F912F910F9071
:101050000FBE0F901F9018951F920F920FB60F9210
:1010600011242F933F934F935F936F937F938F93AD
:101070009F93AF93BF93EF93FF930E940703FF915A
:10108000EF91BF91AF919F918F917F916F915F9100
:101090004F913F912F910F900FBE0F901F90189579
:1010A0001F920F920FB60F9211242F933F934F93DD
:1010B0005F936F937F938F939F93AF93BF93EF93C0
:1010C000FF930E940E09FF91EF91BF91AF919F9105
:1010D0008F917F916F915F914F913F912F910F90E1
:1010E0000FBE0F901F9018951F920F920FB60F9280
:1010F00011242F933F934F935F936F937F938F931D
:101100009F93AF93BF93EF93FF930E941A09FF91B0
:10111000EF91BF91AF919F918F917F916F915F916F
:101120004F913F912F910F900FBE0F901F901895E8
:1011300082EB90E00E946903892B41F482EB90E0FE
:101140000E94BA03082E000C990B08958FEF9FEFB1
:101150000895CF93DF931F92CDB7DEB7682F8AEA49
:1011600090E069830E9476036981892BC1F78AEA3E
:1011700090E00E948E03559A80E090E00F90DF91FE
:10118000CF91089582EB90E00E94630310BC87E04A
:1011900089B988EB8AB986E880BDE4E8F3E08CE998
:1011A00090E0918380839383828382EB90E00E941E
:1011B00063038AEA90E00C946303CF93DF931F925A
:1011C000CDB7DEB79BB199838CB19C7111F1898148
:1011D00084FF08C08AE994E09F938F930E941B15B7
:1011E0000F900F90898183FF08C08EE794E09F9352
:1011F0008F930E941B150F900F90898182FF08C06A
:1012000082E694E09F938F930E941B150F900F909E
:101210008FEF90E00F90DF91CF9108950E94DD084D
:101220008F3F2FEF920729F0682F82EB90E00C940C
:101230008E0308958AEA90E00E946903892B11F0D9
:10124000559808958AEA90E00E94BA038CB90895EF
:101250008091810308951092810314BC89B780683E
:1012600089BF85B5856085BD089589B719BE85B5E7
:1012700015BC10928103089588E385BD87E483BD82
:101280000E9435091092830310928203089589B752
:10129000881F8827881F0895909383038093820373
:1012A00008958091820390918303089533B599B78F
:1012B000991F9927991F11F089B719BE20918103B1
:1012C00084B5992319F099B7906899BF90E0329F3F
:1012D000800D911D112408950F931F93CF93DF93D9
:1012E000C0918203D0918303209749F1109281032A
:1012F0000E9456098C01FE0109950E945609EC01D5
:1013000080918103882329F10E94350983B51F92BA
:101310008F939E01201B310B3F932F931F930F93AD
:1013200080EE94E09F938F930E941B158DB79EB71C
:1013300008960FB6F8949EBF0FBE8DBF0AC00E94DC
:10134000350987EB94E09F938F930E941B150F90B4
:101350000F90DF91CF911F910F910895809181039C
:101360008F5F8093810308950E94D9020E94C20872
:101370000E943C090E94FA0678942FEF8FEF90EEBE
:10138000215080409040E1F700C0000085E394E0E8
:101390009F938F930E941B150F900F900E94280916
:1013A000882319F00E946C09F9CF86E990E00E9429
:1013B0007E04F4CFA3E1B0E0E0EEF9E00C94181362
:1013C0006C014B012A01FC0117821682838181FF87
:1013D00043C3AE014F5F5F4F3A01F6019381F401C1
:1013E00093FD859193FF81914F01882309F430C3C8
:1013F000853239F493FD859193FF81914F018532B8
:1014000039F4B60190E00E94E31452012501E5CFC2
:1014100010E0F12C20E02032A0F48B3269F030F49F
:10142000803259F0833269F420612CC08D3239F05A
:10143000803339F4216026C02260246023C02860F4
:1014400021C027FD27C030ED380F3A3078F426FF51
:1014500006C0FAE01F9F300D1124132F13C04AE07D
:10146000F49E300D1124F32E20620CC08E3221F434
:1014700026FDEEC2206406C08C3611F4206802C03E
:10148000883641F4F40193FD859193FF81914F01DA
:101490008111C1CF9BEB980F933018F42061805ECF
:1014A00006C09BE9980F933008F071C12F7E26FF8C
:1014B00016E02F73322E853619F42064322E08C0C0
:1014C000863621F4F22FF0683F2E02C01111115020
:1014D00037FE07C01C3350F4EE24E394E10E27E0FE
:1014E0000BC0183038F027E017E005C027E04CE3C8
:1014F000E42E02C0212FE12C520144E0A40EB11CC5
:10150000F20160817181828193810E2DA3010E947D
:1015100071132C01098100FF02C003FF07C031FCD9
:1015200008C032FE09C030E2232E07C02DE2222E71
:1015300004C09BE2292E01C0212C802F8C7019F051
:10154000211068C2A8C237FE0FC0E40C04FF04C01B
:101550008A81813309F4EA941E1474F5F8E0FE15CB
:1015600078F588E0E82E2CC036FC2AC0812F90E068
:10157000841595059CF02CEF42162FEF520674F05F
:10158000432D4068342E0AC0E2E0F0E0EC0FFD1F6E
:10159000E10FF11D8081803319F411501111F4CF46
:1015A00037FE0EC0EE24E394E10E812F90E0481642
:1015B00059062CF4141904C0EE24E39401C010E081
:1015C00037FE06C01414150434F4C201019605C098
:1015D00085E090E002C081E090E0211001961123A7
:1015E00031F0212F30E02F5F3F4F820F931F2F2DBF
:1015F00030E08217930714F4F81A01C0F12C832D00
:10160000897049F4FF2039F0B60180E290E00E9431
:10161000E314FA94F7CF222029F0B601822D90E04E
:101620000E94E31433FC09C0FF2039F0B60180E3C7
:1016300090E00E94E314FA94F7CF37FE5AC0942D3D
:10164000852D57FE02C090E080E0292E382E20E044
:1016500030E0A2014E1951095D874C87A201421961
:1016600053095F874E87612F70E044275527461B3B
:10167000570B598B488B5FEF2516350649F4B60199
:101680008EE290E02A8B3B8B0E94E3143B892A89EF
:10169000421453046CF04C855D854215530544F4A7
:1016A000EE85FF85E20FF31FE60DF71D818101C076
:1016B00080E351E0251A31082F5F3F4F488959894F
:1016C000241635064CF0B60190E02A8B3B8B0E9425
:1016D000E3142A893B89CFCF2414350439F49A8145
:1016E000963318F4953311F404FF81E3B60190E0CA
:1016F0004BC08A81813309F00F7EB60190E00E94D1
:10170000E314111105C034FC18C085E690E017C041
:10171000B6018EE290E00E94E31482E0EE24E394AE
:10172000E80EF301E80FF11D8081B60190E00E9400
:10173000E31411508E2D91F7E6CF85E490E0B601C9
:101740000E94E31457FC05C04114510439F404FF0E
:1017500005C05194419451088DE201C08BE2B6015D
:1017600090E00E94E31480E39AE0491651042CF0C3
:101770008F5F5AE0451A5108F7CFB60190E00E94FA
:10178000E314B601C201C0960E94E31457C1833628
:1017900031F0833779F0833509F058C021C0520108
:1017A000E2E0AE0EB11CF2018081898301E010E01D
:1017B000230114C05201F2E0AF0EB11CF2014080CF
:1017C000518026FF03C0612F70E002C06FEF7FEFF2
:1017D000C2012A8B0E9492148C012A892F7715C08E
:1017E0005201F2E0AF0EB11CF2014080518026FFA1
:1017F00003C0612F70E002C06FEF7FEFC2012A8B40
:101800000E9465148C012A892068322E23FD1AC09B
:101810008F2D90E008171907A8F4B60180E290E038
:101820000E94E314FA94F4CFF20137FC859137FE5D
:1018300081912F01B60190E00E94E314F110FA9417
:10184000015011090115110579F7F8C0843611F01E
:10185000893659F5520127FF09C0F4E0AF0EB11CDB
:10186000F20160817181828193810AC0F2E0AF0E42
:10187000B11CF20160817181072E000C880B990B5D
:101880002F76322E97FF09C09095809570956195BF
:101890007F4F8F4F9F4F2068322E2AE030E0A30108
:1018A0000E947315E82EE6183FC0022F853721F4F9
:1018B0000F7E2AE030E01DC0097F8F3691F018F4CA
:1018C000883559F0C5C0803719F0883711F0C0C08D
:1018D000006104FF09C0046007C024FF08C006605F
:1018E00006C028E030E005C020E130E002C020E181
:1018F00032E0520107FF09C0F4E0AF0EB11CF20163
:10190000608171818281938108C0F2E0AF0EB11CC9
:10191000F2016081718180E090E0A3010E94731563
:10192000E82EE6180F77302E36FE0BC0332D3E7FA3
:10193000E11650F434FE0AC032FC08C0332D3E7E5E
:1019400005C00E2D332D03C00E2D01C0012F34FF15
:101950000CC0FE01EE0DF11D8081803311F4397E43
:1019600008C032FF05C00E5F04C0832F867809F0DF
:101970000F5F33FD13C030FF06C01E2D0F1518F486
:101980001F0D101B0F2D0F1568F4B60180E290E0BB
:101990003B8B0E94E3140F5F3B89F5CF0F1510F4CA
:1019A000F01A01C0F12C34FF12C0B60180E390E0C0
:1019B0003B8B0E94E3143B8932FF17C031FD03C00B
:1019C00088E790E002C088E590E0B6010CC0832F64
:1019D000867859F031FF02C08BE201C080E237FD0A
:1019E0008DE2B60190E00E94E314E11638F4B601EE
:1019F00080E390E00E94E3141150F7CFEA94F301E2
:101A0000EE0DF11D8081B60190E00E94E314E1101B
:101A1000F5CF14C0F4E0FF1558F584E0F81A33FE52
:101A20001EC0211026C003FF2AC004E510E0F32DDC
:101A3000F0713F2EF8018491811124C0FF2009F438
:101A4000E5CCB60180E290E00E94E314FA94F6CF70
:101A5000F6018681978126C08FEF9FEF23C0B601E4
:101A600080E290E00E94E314FA94F110F8CFD9CF0D
:101A7000F12CB601822D90E00E94E314D4CF08E54A
:101A800010E0D5CF31108052B60190E00E94E314EF
:101A90000F5F1F4FCFCF23E02F1510F483E0BECF91
:101AA000F12CC1CF6396E2E10C94341320FD09C000
:101AB000FC0123FD05C022FF02C0738362835183B2
:101AC0004083089544FD10C046FD10C0DB01FC01B9
:101AD000AA0FBB1FEE1FFF1F1094D1F76A0F7B1FC9
:101AE0008E1F9F1F31E003C033E001C034E0660F5A
:101AF000771F881F991F3150D1F7620F711D811D0B
:101B0000911D08950F931F93CF93DF938C01C8010C
:101B10000E94A514EC0197FD08C00E944914892B6E
:101B2000B1F7B801CE010E945A15CE01DF91CF91D5
:101B30001F910F910895A0E0B0E0E1EAFDE00C9460
:101B40001E137C018B016A01D22F0E94A5149C01F7
:101B500033272B32310521F02D32310559F4D0686D
:101B60000150110911F480E069C0C7010E94A51459
:101B700097FDF9CFCD2FCD7F2D2F207309F5803321
:101B8000F9F4580181E0A81AB10809F443C0C7016B
:101B90000E94A51497FD3EC0282F2F7D283551F4B3
:101BA000C26402501109B1F1C7010E94A51497FF48
:101BB00007C030C0D6FF02C0C26001C0C26185014B
:101BC000812C912C540120ED280F283080F0C4FF87
:101BD00004C0B7010E945A151AC02A3040F0C6FF4F
:101BE000F8CF2F7D3FEE320F363098F727504C2F2D
:101BF000C501B4010E94620D4B015C01C26001503D
:101C0000110959F0C7010E94A51497FFDCCFC1FD4F
:101C100004C0A9CF812C912C5401C7FF08C0B094F7
:101C2000A09490948094811C911CA11CB11C2C2F19
:101C3000B501A401C6010E94560D81E0CDB7DEB703
:101C4000ECE00C943A13A0E2B0E0E9E2FEE00C9480
:101C50001A134C015B017A018E010F5F1F4F68015F
:101C600080E2F80111928A95E9F7F401638040E07F
:101C700050E0712C412C80E0A1E0B0E0F90163FC60
:101C8000559063FE51908F01952D9F01511003C017
:101C900080E090E080C0FEE55F1203C04115510571
:101CA00061F1682F70E0641775074CF46DE5561606
:101CB00069F1EDE25E1203C0442009F103C0411056
:101CC00001C0752C692F669566956695F601E60F3D
:101CD000F11D692F67708D0102C0000F111F6A95F9
:101CE000E2F7B8017081672B6083971559F097155B
:101CF00010F49F5FE7CF9150E5CF81E004C044240A
:101D0000439401C0412C4F5F5F4FB8CF442019F07E
:101D10009E8190629E83811103C07724739418C0C2
:101D2000F6019E012F5D3F4F808180958193E217E0
:101D3000F307D1F7F2CFE114F10429F0F701808322
:101D4000C70101967C0191E0A91AB108712CE9F054
:101D5000C4010E94A51497FD16C0282F269526952C
:101D60002695F601E20FF11D208130E0AC014770AD
:101D7000552702C0359527954A95E2F720FDDBCF20
:101D8000B4010E945A15711083CFE114F10411F0CF
:101D9000F7011082C801A096E0E10C943613A6E08A
:101DA000B0E0E5EDFEE00C9418135C017B011A0134
:101DB0000E94A5149E838D8399278B32910521F073
:101DC0008D9789F410E801C010E021E0E21AF108D3
:101DD00011F480E02CC1C5010E94A5149E838D835F
:101DE00097FF02C0F6CF10E08D819E810E945214B1
:101DF0008936910549F08E36910509F03BC068E3BC
:101E0000862E65E0962E04C07BE3872E75E0972E24
:101E1000EFEF8E1A9E0AF401319704910023C9F066
:101E200081E0E81AF10871F0C5010E94A5146C0167
:101E300097FD08C00E945214081751F3B501C6015E
:101E40000E945A159EE3891695E0990609F0C1CFC4
:101E500005C0FBE38F16F5E09F0629F080E090E0D7
:101E6000A0E8BFE704C080E090E0A0ECBFE7BC01C1
:101E7000CD01CDC0412C512C3201C12CD12C2D8152
:101E800020532A3018F5012F0260812F887012FF2D
:101E900006C0811121C02FEFC21AD20A1DC08823AB
:101EA00019F081E0C81AD10840E2C301B2010E94D2
:101EB000620D2B013C0198E9491699E9590669061A
:101EC00099E1790648F0012F066006C02E3F91F493
:101ED00013FD10C0012F0860E1E0EE1AF10849F08F
:101EE000C5010E94A5149E838D83102F97FFC7CF35
:101EF00001C0102F11FF6DCF8D818F7D853409F0CA
:101F00004EC04701F1E08F1A910809F462CFC50174
:101F10000E94A5149E838D8397FD5BCF99278B32FA
:101F2000910519F08D9761F41061470122E0821A42
:101F3000910809F44ECFC5010E94A5149E838D839C
:101F40008D819E81C0970A9708F043CF7401812C40
:101F5000912CB401990C880B990B2D81205340E2F0
:101F60000E94620DAB01BC014A0181E0E81AF10850
:101F700071F0C50149835A836B837C830E94A51449
:101F80009E838D83C09749815A810A9710F314FF6D
:101F900004C088249924841A950AC80CD91CEF28F7
:101FA00041F0ED81FE81F7FD04C0B501CF010E9433
:101FB0005A15C301B2010E94F511D7FE08C0D19491
:101FC000C194D10857E5852E55E0952E04C04FE603
:101FD000842E45E0942E5401F8E1AF1AB10830E2A6
:101FE000E32EF12CCE14DF0450F0F401259135914D
:101FF000459154910E948312CE18DF08F3CF24E05C
:10200000821A9108F694E7948A149B0459F717FFF3
:1020100005C0DC01CB01B058BC01CD012114310455
:1020200029F0F101608371838283938381E0269696
:10203000E2E10C943413A1E0B0E0E1E2F0E10C94B1
:102040001A136C012B014A01FC0117821682A12C84
:10205000F601F380F201F3FC8591F3FE8191482FA4
:102060002F01882309F410C190E049830E9449148C
:102070004981892B21F0C6010E94820DE9CF4532AA
:1020800041F4F201F3FC4591F3FE41912F014532F9
:1020900069F4C60149830E94A514498197FDF2C0E5
:1020A0004817B1F2B6010E945A15EEC04A3239F40F
:1020B000F3FC4591F3FE41912F0151E001C050E046
:1020C000320100E010E020ED240F2A3088F4526045
:1020D000B80180E090E040E259830E94620D8B01DC
:1020E000F301F3FC4591F3FE41913F015981EBCFA0
:1020F000B52E342F230151FF04C00115110519F429
:10210000C3C00FEF1FEF483619F04C3659F013C01B
:10211000F301F3FC3591F3FE31912F01383659F478
:102120005860B52EFB2DF460BF2EF201F3FC359103
:10213000F3FE31912F01332309F4A6C0632F70E021
:1021400086E295E039830E945A143981892B09F47B
:102150009BC0B0FC07C0F401E080F180C40102968E
:102160004C0102C0E12CF12C3E3651F4F6014681BF
:10217000578160E070E02B2DC7010E94560D68CF9B
:102180003336A9F4B1FC02C001E010E0C6010E94A0
:10219000A51497FD77C0E114F10429F0F7018083BD
:1021A000C70101967C010150110981F767C03B35D9
:1021B00059F49201A701B801C6010E94230E2C0117
:1021C000892B09F05BC055C0C60139830E94820D7E
:1021D000398197FD57C03F36D9F140F43436A1F12B
:1021E0003936C9F1383509F03DC02AC03337A1F07E
:1021F00018F4303729F136C0353731F1383701F16D
:1022000031C0E114F10429F0F7016082C7010196A1
:102210007C010150110971F0C6010E94A5143C0116
:1022200097FD08C00E944914892B59F3B601C301D8
:102230000E945A15E114F10409F1F70110821EC041
:10224000FB2DF064BF2E07C08B2D8062B82E03C01B
:102250009B2D9061B92E2B2DA701B801C6010E94BC
:102260009B0D05C0A701B801C6010E94CF0E8111C8
:1022700005C0F6018381807329F406C0B0FCE8CE66
:10228000A394E6CEAA2019F08A2D90E002C08FEF29
:102290009FEF2196E0E10C9436130E9461110C949B
:1022A00049120E94421258F00E943B1240F029F459
:1022B0005F3F29F00C94321251110C947D120C9452
:1022C00038120E945A1268F39923B1F3552391F3FF
:1022D000951B550BBB27AA2762177307840738F095
:1022E0009F5F5F4F220F331F441FAA1FA9F335D0F2
:1022F0000E2E3AF0E0E832D091505040E695001CA6
:10230000CAF72BD0FE2F29D0660F771F881FBB1F5F
:10231000261737074807AB07B0E809F0BB0B802D3D
:10232000BF01FF2793585F4F3AF09E3F510578F069
:102330000C9432120C947D125F3FE4F3983ED4F378
:10234000869577956795B795F7959F5FC9F7880F3D
:10235000911D9695879597F90895E1E0660F771F8F
:10236000881FBB1F621773078407BA0720F0621B20
:10237000730B840BBA0BEE1F88F7E09508950E944B
:10238000C6116894B1110C947D1208950E946212D6
:1023900088F09F5798F0B92F9927B751B0F0E1F026
:1023A000660F771F881F991F1AF0BA95C9F714C0D6
:1023B000B13091F00E947C12B1E008950C947C122F
:1023C000672F782F8827B85F39F0B93FCCF386950F
:1023D00077956795B395D9F73EF49095809570956C
:1023E00061957F4F8F4F9F4F0895E89409C097FBE9
:1023F0003EF490958095709561957F4F8F4F9F4FDC
:102400009923A9F0F92F96E9BB279395F69587951F
:1024100077956795B795F111F8CFFAF4BB0F11F4E2
:1024200060FF1BC06F5F7F4F8F4F9F4F16C0882389
:1024300011F096E911C0772321F09EE8872F762FBF
:1024400005C0662371F096E8862F70E060E02AF000
:102450009A95660F771F881FDAF7880F96958795EC
:1024600097F9089597F99F6780E870E060E0089514
:102470009FEF80EC089500240A941616170618069C
:102480000906089500240A94121613061406050678
:102490000895092E0394000C11F4882352F0BB0F09
:1024A00040F4BF2B11F460FF04C06F5F7F4F8F4F6C
:1024B0009F4F089557FD9058440F551F59F05F3FA7
:1024C00071F04795880F97FB991F61F09F3F79F056
:1024D00087950895121613061406551FF2CF4695D8
:1024E000F1DF08C0161617061806991FF1CF86955A
:1024F0007105610508940895E894BB27662777273E
:10250000CB0197F908950E9496120C9449120E94EB
:102510003B1238F00E94421220F0952311F00C94E7
:1025200032120C94381211240C947D120E945A120B
:1025300070F3959FC1F3950F50E0551F629FF00116
:10254000729FBB27F00DB11D639FAA27F00DB11D2F
:10255000AA1F649F6627B00DA11D661F829F2227B8
:10256000B00DA11D621F739FB00DA11D621F839F3F
:10257000A00D611D221F749F3327A00D611D231F15
:10258000849F600D211D822F762F6A2F11249F5763
:1025900050409AF0F1F088234AF0EE0FFF1FBB1F66
:1025A000661F771F881F91505040A9F79E3F510525
:1025B00080F00C9432120C947D125F3FE4F3983E4D
:1025C000D4F3869577956795B795F795E7959F5FCF
:1025D000C1F7FE2B880F911D9695879597F9089561
:1025E000AA1BBB1B51E107C0AA1FBB1FA617B70739
:1025F00010F0A61BB70B881F991F5A95A9F7809555
:102600009095BC01CD01089597FB072E16F4009418
:1026100007D077FD09D00E94F01207FC05D03EF4E8
:10262000909581959F4F0895709561957F4F08957E
:102630002F923F924F925F926F927F928F929F92D2
:10264000AF92BF92CF92DF92EF92FF920F931F93C0
:10265000CF93DF93CDB7DEB7CA1BDB0B0FB6F89471
:10266000DEBF0FBECDBF09942A88398848885F84B1
:102670006E847D848C849B84AA84B984C884DF8022
:10268000EE80FD800C811B81AA81B981CE0FD11D06
:102690000FB6F894DEBF0FBECDBFED0108956627DB
:1026A00077270C94D115FC0188279927E89421916C
:1026B0002032E9F3293010F02E30C8F32B3241F0EC
:1026C0002D3239F4689404C00E949D14820F911D2C
:1026D000219120532A30C0F31EF4909581959F4F8D
:1026E0000895283008F027E03327DA01990F311DCB
:1026F00087FD916000966105710539F432602E5FA7
:102700003D9330E32A95E1F708959F3F30F08038FC
:102710007105610509F03C5F3C5F3D93913008F025
:102720008068911DDF93CF931F930F93FF92EF92D9
:10273000192F987F9695E92F96959695E90FFF2783
:10274000EA54FF4F99273327EE24FF24A701E7011E
:1027500005900894079428F4360FE71EF81E491FC9
:10276000511D660F771F881F991F0694A1F70590CA
:10277000079428F4E70EF81E491F561FC11D770F56
:10278000881F991F661F0694A1F70590079428F4E7
:10279000F80E491F561FC71FD11D880F991F661FAE
:1027A000771F0694A1F70590079420F4490F561F50
:1027B000C71FD81F990F661F771F881F0694A9F798
:1027C00084911095177041F0D695C7955795479508
:1027D000F794E7941A95C1F7ECE5F0E0689415904A
:1027E000159135916591959105907FE27395E1186A
:1027F000F10A430B560BC90BD009C0F7E10CF11ECF
:10280000431F561FC91FD01D7EF4703311F48A95E3
:10281000E6CFE894015030F0080F0AF400270217C1
:1028200008F4202F2395022F7A3328F079E37D9343
:102830002A95E9F710C07D932A9589F60694979515
:102840006795379517951794E118F10A430B560BC6
:10285000C90BD00998F023957E9173957A3308F0CF
:1028600070E37C932013B8F77E9170617D9330F014
:10287000839571E37D9370E32A95E1F71124EF903E
:10288000FF900F911F91CF91DF91992787FD909530
:10289000089591110C942E17803219F089508550AB
:1028A000C8F708959111089581548A5108F4805E03
:1028B000855A0895FC010590061621F00020D9F7ED
:1028C000C00108953197CF010895FC010590615032
:1028D00070400110D8F7809590958E0F9F1F089536
:1028E000FC018191861721F08823D9F79927089553
:1028F0003197CF010895FB01DC018D910190801982
:102900000110D9F3990B0895FB01DC0141505040AF
:1029100030F08D910190801919F40020B9F7881BCF
:10292000990B0895FC016150704001900110D8F797
:10293000809590958E0F9F1F08957AE0979F902D18
:10294000879F802D910D11240895CF93DF93EC0183
:102950002B8120FF33C026FF0AC02F7B2B838E8163
:102960009F8101969F838E838A8190E029C022FFF8
:102970000FC0E881F9818081082E000C990B009727
:1029800019F420622B831AC03196F983E8830EC0B4
:10299000EA85FB85099597FF09C02B81019611F007
:1029A00080E201C080E1822B8B8308C02E813F81B1
:1029B0002F5F3F4F3F832E83992702C08FEF9FEFFA
:1029C000DF91CF9108950F931F93CF93DF93FB0176
:1029D000238121FD03C08FEF9FEF28C022FF16C087
:1029E00046815781248135814217530744F4A081E1
:1029F000B1819D012F5F3F4F318320838C932681CE
:102A000037812F5F3F4F3783268310C0EB01092F9B
:102A1000182F0084F185E02D0995892BE1F68E8130
:102A20009F8101969F838E83812F902FDF91CF917D
:102A30001F910F910895A0E0B0E0E1E2F5E10C9460
:102A40002613AE01495F5F4FDA016D917D91AD01B3
:102A500004E813E0F80182819381DC0113962C9144
:102A60001397286013962C930E94DA09D8011296C6
:102A7000ED91FC9113972381277F2383E4E00C944D
:102A80004213AEE0B0E0E7E4F5E10C94281385E0F2
:102A90008C838B899C899A838983AE01495E5F4FC1
:102AA0006D897E89CE0101960E941B102E96E2E070
:102AB0000C944413FB01238120FF12C026FD10C09B
:102AC0008F3F3FEF930761F082832F7D2064238344
:102AD000268137812150310937832683992708952C
:102AE0008FEF9FEF0895FA01AA27283051F1203186
:102AF00081F1E8946F936E7F6E5F7F4F8F4F9F4F92
:102B0000AF4FB1E03ED0B4E03CD0670F781F891FD3
:102B10009A1FA11D680F791F8A1F911DA11D6A0FA1
:102B2000711D811D911DA11D20D009F468943F9154
:102B30002AE0269F11243019305D3193DEF6CF0153
:102B40000895462F4770405D4193B3E00FD0C9F719
:102B5000F6CF462F4F70405D4A3318F0495D31FD86
:102B60004052419302D0A9F7EACFB4E0A6959795D9
:102B7000879577956795BA95C9F7009761057105AF
:102B800008959B01AC010A2E0694579547953795F9
:102B90002795BA95C9F7620F731F841F951FA01D53
:102BA0000895A0E0B0E0E7EDF5E10C941C13EC0112
:102BB0007B016115710519F0DB018D939C938E01EA
:102BC0000F5F1F4F7880872D90E00E944914892B5A
:102BD00011F0E801F4CFBDE27B1205C00F5F1F4F7B
:102BE0007980C1E008C0EBE27E1204C08E010E5F66
:102BF0001F4F7980C0E06801F1E0CF1AD10843E0AF
:102C000050E06EE571E0C6010E943117892BF1F4A6
:102C1000680122E0C20ED11C45E050E069E571E098
:102C2000C6010E943117892B21F4680187E0C80E84
:102C3000D11CE114F10419F0D701CD92DC92C1113D
:102C4000FFC060E070E080E89FE703C143E050E030
:102C500066E571E0C6010E943117892B51F4E11439
:102C6000F10409F4F2C00E5F1F4FF70111830083D6
:102C7000ECC0680160E070E0CB0100E010E0F6011C
:102C8000D0EDD70DDA3058F52C2F2260622E2C2F84
:102C90002870C2FF05C0211128C00F5F1F4F25C03B
:102CA000222311F001501109A5E0B0E09B01AC0115
:102CB0000E9472174B015C01880C991CAA1CBB1C5A
:102CC000C501B4016D0F711D811D911D6839A9E900
:102CD0007A078A07A9E19A0740F0C66005C0DE3F7F
:102CE00051F4C3FD44C0C8606C2EBFEFCB1ADB0AA1
:102CF0007080C62DC4CF2D2F2F7D2531C1F5408189
:102D00004D3211F4C06106C04B3221F0319621E002
:102D100030E006C03296D60111964C9122E030E0A8
:102D2000A0EDA40FAA3018F0E21BF30B20C040E086
:102D300050E04038BCE05B075CF49A01220F331F7F
:102D4000220F331F420F531F440F551F4A0F511DAF
:102D50003196DF0111972C91A0EDA20FAA3048F314
:102D6000C4FF03C0519541955109040F151FC1FFC0
:102D700007C0E114F10421F03197D701ED93FC93E2
:102D80000E94F511C370C33019F06B017C0106C0BD
:102D90006B017C01F7FAF094F7F8F09420E030E052
:102DA000A901C701B6010E944917882309F445C04B
:102DB00017FF06C0119501951109C5E7D1E002C0C2
:102DC000CDE8D1E05E01B8E1AB1AB1084601BE2DF5
:102DD000AF2D90E2E92EF12C0E151F0584F0FE01B7
:102DE0002591359145915491B4018B2F9A2F0E94D2
:102DF00083124B01B82FA92F0E191F09EDCF24976D
:102E0000F594E794CA15DB0539F76401EB2EFA2E29
:102E10008E2D880F8F2D881F8F3F49F020E030E0E6
:102E2000A901C701B6010E944917811106C082E2BB
:102E300090E090938B0380938A03C701B60109C089
:102E400060E070E080E89FEF04C060E070E080EC3C
:102E50009FE7CDB7DEB7EEE00C94381399278827AB
:102E60000895FB01DC014150504088F08D91813480
:102E70001CF08B350CF4805E659161341CF06B3571
:102E80000CF4605E861B611171F3990B0895881B29
:102E9000FCCF0E944E1708F481E00895990F0008B6
:102EA000550FAA0BE0E8FEEF16161706E807F9071C
:102EB000C0F012161306E407F50798F0621B730BB7
:102EC000840B950B39F40A2661F0232B242B252B38
:102ED00021F408950A2609F4A140A6958FEF811DDB
:102EE000811D08950E947D17A59F900DB49F900DA0
:102EF000A49F800D911D11240895A29FB001B39F3E
:102F0000C001A39F700D811D1124911DB29F700DF2
:0C2F1000811D1124911D0895F894FFCF3D
:102F1C003401B7043401CF00C404D400E7007305B6
:102F2C00EB00030109051101350124054301590189
:102F3C003F05660177015A057F01A701B504B4016D
:102F4C0014006400640000005000F1010000000354
:102F5C0000000000A9089808000000000000000113
:102F6C0041020000000040004103C800F5AD003DE7
:102F7C005839B43D9001726573657400257300680F
:102F8C00656C7000476976657320616C6C20636FAB
:102F9C006D6D616E647300656E63004765747320BC
:102FAC00616E64207365747320656E632076616C4A
:102FBC007565006D6F76655F7365745F64697374B6
:102FCC00006D6F76655F7365745F6469737420441C
:102FDC00697374616E63655F6D6D205B737465708E
:102FEC007065725D006D6F76655F7365745F746993
:102FFC006D65006D6F76655F7365745F74696D6583
:10300C00207365636F6E6473007365745F76656CB3
:10301C006F63697479007365745F76656C6F63694F
:10302C007479206D2F73007365745F64697200731B
:10303C0065745F646972205B666F7277617264732A
:10304C007C6261636B77617264737C6C6566747CA3
:10305C0072696768745D0074657374696E675F7319
:10306C006869740072756E7320612073746570707A
:10307C006572207465737420737569746500666F6E
:10308C00727761726473006261636B7761726473EF
:0C309C00006C656674007269676874005F
:00000001FF
