:100000000C948F040C94A3110C94C7110C94AC04A1
:100010000C94AC040C94AC040C94AC040C94AC04A0
:100020000C94AC040C94AC040C94AC040C94AC0490
:100030000C94AC040C94EB110C940F120C94AC04C3
:100040000C94AC040C94AC040C94AC040C94AC0470
:100050000C94AC0405A84CCDB2D44EB93836A902E4
:100060000C50B9918688083CA6AAAA2ABE000000B6
:10007000803F6E616E00696E660000407A10F35A30
:1000800000A0724E18090010A5D4E80000E87648D8
:10009000170000E40B54020000CA9A3B000000E184
:1000A000F505000080969800000040420F00000017
:1000B000A08601000000102700000000E8030000F7
:1000C00000006400000000000A00000000000100C1
:1000D000000000002C76D888DC674F0823DFC1DFE2
:1000E000AE59E1B1B796E5E3E453C63AE6519976E5
:1000F00096E8E6C28426EB898C9B62ED407C6FFC1F
:10010000EFBC9C9F40F2BAA56FA5F490055A2AF760
:100110005C936B6CF9676DC11BFCE0E40D47FEF569
:1001200020E6B500D0ED902E0300943577050080D1
:10013000841E080000204E0A000000C80C33333330
:10014000330F986E12831141EF8D2114893BE655D0
:1001500016CFFEE6DB18D1844B381BF77C1D901DB3
:10016000A4BBE424203284725E228100C9F124EC15
:10017000A1E53D274E414E494E495459494E46CD81
:10018000CCCC3D0AD7233C17B7D13877CC2B32954E
:1001900095E6241FB14F0A000020410000C842002C
:1001A000401C4620BCBE4CCA1B0E5AAEC59D742ACC
:1001B0002A2A204D617820636F6D6D616E64206C1A
:1001C000656E677468206578636565646564202A78
:1001D0002A2A0A0025660A00534849543B20782001
:1001E000776173202566200A002573206973202516
:1001F000660A00620025732069732025660A005292
:10020000686F0025732069732025660A007468658D
:1002100074610025732069732025660A0076002525
:10022000732069732025660A00767265660025735F
:100230002069732025660A007900257320697320E0
:1002400025660A00780050617273656420636861F6
:100250007220776173202573200A004F4B41590AA1
:100260000076656C6F63697479006469720062007E
:1002700072686F004F4B41592C20255320666F75D3
:100280006E642E2053657474696E672069742066ED
:10029000726F6D20257320746F202566200A00740C
:1002A0006865746100760076726566007900780092
:1002B0005061727365642063686172207761732096
:1002C0002573200A004F4B41590A00444F4E450AFE
:1002D000004F4B41592025730A004F4B41592C20A8
:1002E0002573200A00444F4E450A004F4B41590ADE
:1002F00000444F4E450A004F4B41590A00444F4EAF
:10030000450A004F4B41590A00444F4E450A004FE1
:100310004B41590A00444F4E450A004469737461C9
:100320006E63652061746F6927642069732025649A
:10033000200A0044697374616E6365207061727392
:10034000656420696E20617320612063686172209A
:10035000776173202573200A004F4B41590A0055DD
:100360006E6B6E6F776E20636F6D6D616E643A2099
:10037000222573220A00556E6B6E6F776E20636FB5
:100380006D6D616E643A20222573220A00656E63EA
:100390003A20696E76616C696420617267756D657B
:1003A0006E7420222573222C2073796E746178205C
:1003B00069733A20656E63205B72657365745D0ACC
:1003C00000456E636F64657220636F756E7420699B
:1003D0007320256C640A00456E636F646572206348
:1003E0006F756E7420726573657420746F20300AA7
:1003F00000556E6B6E6F776E20636F6D6D616E640E
:100400003A20222573220A004E6F20417267200A8B
:10041000004172673A2025730A00436F6D6D616E6B
:10042000643A202573207C205370616365466F75A4
:100430006E643A202564207C20004552524F523A87
:1004400020547269656420746F2070617273652036
:100450004E554C4C20636F6D6D616E6420706F69FA
:100460006E7465720A00202D2D2D2D2D2D2D2D2D14
:100470002D2D2D2D2D2D2D2D2D2D2D2D2D2D2D2DAC
:100480002D2D2D2D2D2D2D2D2D2D2D2D2D2D2D2D9C
:100490002D2D2D2D2D2D2D2D2D2D2D2D2D2D2D2D8C
:1004A0002D2D2D2D2D2D200A007C202573200909AE
:1004B0000909202573200A00417661696C61626C2C
:1004C0006520636F6D6D616E64733A0A00202D2D97
:1004D0002D2D2D2D2D2D2D2D2D2D2D2D2D2D2D2D4C
:1004E0002D2D2D2D2D2D2D2D2D2D2D2D2D2D2D2D3C
:1004F0002D2D2D2D2D2D2D2D2D2D2D2D2D2D2D2D2C
:100500002D2D2D2D2D2D2D2D2D2D2D2D2D200A4335
:1005100033323036323436204255494C442044413F
:1005200054453A204E6F7620313520323031372015
:1005300031383A31383A35340A0A0A00446973745A
:10054000616E6365206F662027256427200A0044BA
:10055000697374616E6365206F66202725642720A8
:100560007365747320737465705F64697374616E0E
:10057000636520666F7220272564272066726F6D81
:10058000207468697320666C6F6174202725662764
:10059000200A0044697374616E63655F6D6D202588
:1005A000640A44697374616E63655F6D2025660A31
:1005B0000054696D652027256427207365747320B6
:1005C000737465705F64697374616E636520666FD0
:1005D000722027256427200A0056656C6F636974B2
:1005E000792027256627207365742076656C6F63F4
:1005F0006974795F64656C617920746F2027256464
:10060000270A00436F756E743A25640A00456E64CC
:10061000207461736B5F72756E0A002A2A2A205457
:1006200061736B2063616C6C65642077697468200A
:100630004E554C4C2063616C6C6261636B21202AC7
:100640002A2A0A0A002A2A2A205461736B20696E1A
:10065000636F6D706C657465206265666F7265208E
:100660006E657874207472696767657221205B74A7
:1006700061722F6475722F6D61783A2025752F2570
:10068000752F25755D202A2A2A0A00537461727419
:10069000207461736B5F72756E0A00456E64207E14
:1006A0004953520A005374617274207E4953520AAE
:1006B00000456E64207461736B5F64697361626C82
:1006C000650A005374617274207461736B5F6469AE
:1006D0007361626C650A00456E64204953520A00DA
:1006E0005374617274204953520A00350A00456EF2
:1006F00064207461736B5F656E61626C650A0034BF
:100700000A00330A00320A00310A0053746172741D
:10071000207461736B5F656E61626C650A00456E83
:1007200064207461736B5F696E740A005374617244
:1007300074207461736B5F696E740A00252E3266D3
:100740002C25670A0054696D65205B7365635D2C19
:1007500056616C75650A0025733A2065787065638B
:1007600074696E67203320617267756D656E74738E
:100770002C2073796E7461782069733A2025732078
:100780003C73616D706C65733E203C616D706C698B
:10079000747564653E203C6672657175656E63793B
:1007A0003E0A005374617274206C6F675F746173EA
:1007B0006B0A00252E32662C256C640A0053746186
:1007C0007274206C6F675F7461736B0A0025733AF3
:1007D00020657870656374696E6720706F736974E3
:1007E000697665206E756D626572206F6620736133
:1007F0006D706C65730A0025733A206578706563C7
:1008000074696E67203220617267756D656E7473EE
:100810002C2073796E7461782069733A20257320D7
:100820005B706F747C656E635D203C73616D706C92
:1008300065733E0A000A5265616479210A0A000A5A
:100840004333323036323436204255494C4420440A
:100850004154453A204E6F762031352032303137C1
:100860002031383A31383A35350A0A000A57617270
:100870006D696E672055702E2E2E0A002A2A2A20B6
:100880005541525420706172697479206572726F9B
:100890007221202A2A2A0A002A2A2A205541525443
:1008A0002064617461206F76657272756E21202AF2
:1008B0002A2A0A002A2A2A205541525420667261A7
:1008C0006D696E67206572726F7221202A2A2A0A6A
:1008D000006364696E6F70737578585B6566674511
:1008E000464700616E006E66696E69747900CDCC12
:1008F000CC3D0AD7233C17B7D13877CC2B3295950E
:10090000E6241FB14F0A000020410000C842004009
:100910001C4620BCBE4CCA1B0E5AAEC59D74112489
:100920001FBECFE5D8E0DEBFCDBF12E0A0E6B0E04D
:10093000E2EBF3E402C005900D92A438B107D9F7B9
:1009400024E0A4E8B2E001C01D92A436B207E1F7AA
:100950000E94C3120C94D7210C9400008BB7806CBA
:100960008BBF08958AE085BF81B381BB82B38C6061
:1009700082BB10928402109285021092860210921D
:1009800087020C94AE0420B330B381E022FB22270F
:1009900020F9282733FB332730F938278091840248
:1009A00090918502A0918602B0918702231304C022
:1009B0000196A11DB11D03C00197A109B109809342
:1009C000840290938502A0938602B09387020895D3
:1009D00020B330B381E022FB222720F9282733FB04
:1009E000332730F938278091840290918502A091B5
:1009F0008602B0918702231304C00197A109B109AF
:100A000003C00196A11DB11D8093840290938502BD
:100A1000A0938602B093870208952BB72F732BBF44
:100A2000609384027093850280938602909387027C
:100A30000C94AE04CF93DF9300D000D0CDB7DEB7D7
:100A40008BB78F738BBF6091840270918502809108
:100A500086029091870269837A838B839C830E94AC
:100A6000AE0469817A818B819C810F900F900F90E9
:100A70000F90DF91CF910895CF93DF9300D000D0F6
:100A8000CDB7DEB78BB78F738BBF60918402709147
:100A900085028091860290918702109284021092C2
:100AA0008502109286021092870269837A838B8373
:100AB0009C830E94AE0469817A818B819C810F9016
:100AC0000F900F900F90DF91CF910895FC0111824C
:100AD0001082138212820895FC014081518122818B
:100AE000338181E090E04217530711F080E090E0FD
:100AF0000895CF93DF93FC0120813181C281D3819E
:100B0000C9010196648175810E94131D9C0181E0D9
:100B100090E02C173D0711F080E090E0DF91CF913D
:100B200008950F931F93CF93DF931F92CDB7DEB736
:100B30008C0169830E9479056981892BC1F4D801F0
:100B40008D919C9111971696ED91FC911797E80F56
:100B5000F91F60838D919C911197019614966D9168
:100B60007C9115970E94131DF801918380830F904B
:100B7000DF91CF911F910F910895FC012081318168
:100B8000828193812817390791F082819381A68110
:100B9000B781A80FB91F2C9182819381019664813E
:100BA00075810E94131D93838283822F089580E0B4
:100BB0000895FC018481958101970895DC011196C7
:100BC0001C921E921496ED91FC9115971082089537
:100BD000FC0181E020813181232B09F080E0089520
:100BE000FC0181E04081518122813381421753070A
:100BF00008F480E00895FC01208131812115310540
:100C000021F021503109318320830895DC012D9199
:100C10003C9111972115310559F01496ED91FC91F5
:100C200015972E0F3F1FF901319781E090819111A7
:100C300080E081700895DC012D913C91119712960E
:100C40004D915C9113972417350778F4FC0144818A
:100C50005581F9013196ED93FC93FA01E20FF31FF0
:100C600060830E94060690E008958FEF9FEF08953D
:100C7000683019F40E94FB050CC06D3051F06A30E9
:100C800031F4FC0120813181232B19F060E00C94B8
:100C90001B0680E090E008950F931F93CF93DF939E
:100CA0008C01EB0180E090E06991662329F0C80196
:100CB0000E94380697FFF8CFDF91CF911F910F91D7
:100CC00008950F931F93CF93DF938C01EB010E9444
:100CD0000606882359F0F80180819181C817D90749
:100CE00028F4848195818C0F9D1F02C080E090E0E4
:100CF000DF91CF911F910F91089560E070E00C9407
:100D000061060F931F93CF93DF93EC010FEA11E07D
:100D100080915C0490915D040E94091F8F3F2FEF2A
:100D2000920709F1682FCE010E9438068F3F2FEFFE
:100D3000920769F0019761F7CE010E947D060E943B
:100D4000200B19821882EC81FD811082E1CF1F9364
:100D50000F930E947F1F19821882EC81FD811082FF
:100D60000F900F90D5CFDF91CF911F910F910895E4
:100D70000C942B0C9F938F938FE593E09F938F930D
:100D80000E947F1F0F900F900F900F9008950F9368
:100D90001F93CF93DF938DEC94E09F938F930E94EA
:100DA0007F1F88EB94E09F938F930E947F1FC0E684
:100DB000D0E00F900F900F900F9009EA14E08D8112
:100DC0008F938C818F9389818F9388818F931F93C9
:100DD0000F930E947F1F2FEF8FE794E021508040F8
:100DE0009040E1F700C0000026960F900F900F9002
:100DF0000F900F900F9020E0C83AD20701F786E6D7
:100E000094E09F938F930E947F1F0F900F90DF912C
:100E1000CF911F910F910895CF93DF93D82FC92FB2
:100E200089E593E09F938F930E947F1FCF93DF9379
:100E300083E393E09F938F930E947F1F8D2F9C2FBE
:100E40000E94761D9F938F938BE193E09F938F93E6
:100E50000E947F1F8D2F9C2F0E94761D0E94350DB2
:100E600085E193E09F938F930E947F1F8DB79EB77C
:100E70000C960FB6F8949EBF0FBE8DBFDF91CF9139
:100E80000895CF93DF93EC012FE033E03F932F934E
:100E90000E947F1FCE010E94761D0E94EA0C89E00D
:100EA00093E09F938F930E947F1F0F900F900F905E
:100EB0000F90DF91CF910895CF93DF93EC012BEE4C
:100EC00032E03F932F930E947F1FCE010E94761D38
:100ED0000E94BB0D85EE92E09F938F930E947F1F2F
:100EE0000F900F900F900F90DF91CF910895CF93B7
:100EF000DF9300D000D0CDB7DEB79F938F938AEDFC
:100F000092E09F938F930E947F1F8EEF90E09A83D1
:100F1000898382E091E09C838B83BE016F5F7F4F6A
:100F200083E090E00E9453110F900F900F900F906C
:100F30000F900F900F900F90DF91CF910895CF9267
:100F4000DF92EF92FF920F931F93CF93DF93CDB772
:100F5000DEB7C05AD1090FB6F894DEBF0FBECDBFC1
:100F6000D82EC92E66E071E00E94A11E00E010E0BC
:100F7000E12CF12C0097A1F0E1E0F0E0EC0FFD1F77
:100F8000EE0DFF1D9183808366E071E080E090E0CC
:100F90000E94A11E0F5F1F4F22E0E20EF11CEACF5C
:100FA000F801EE0FFF1F81E090E08C0F9D1FE80F0E
:100FB000F91F11821082CF92DF9281ED92E09F9310
:100FC0008F930E947F1FBE016F5F7F4FC8010E94F9
:100FD00093108BEC92E09F938F930E947F1F0F9052
:100FE0000F900F900F900F900F90C056DF4F0FB6DD
:100FF000F894DEBF0FBECDBFDF91CF911F910F914F
:10100000FF90EF90DF90CF9008950F931F93CF93B1
:10101000DF93EC0185EC92E09F938F930E947F1FFA
:10102000DF93CF9380EB92E09F938F930E947F1F7B
:1010300019828E010E5F1F4F41E050E06EEA72E0B0
:10104000CE010E94881E0F900F900F900F900F906E
:101050000F90892B61F4C8010E94721D6093A00259
:101060007093A1028093A2029093A302BEC041E0BC
:1010700050E06CEA72E0CE010E94881E892B61F478
:10108000C8010E94721D60939C0270939D02809320
:101090009E0290939F02A9C041E050E067EA72E08F
:1010A000CE010E94881E892B61F4C8010E94721D26
:1010B000609398027093990280939A0290939B0296
:1010C00094C041E050E065EA72E0CE010E94881EC3
:1010D000892B61F4C8010E94721D60939402709381
:1010E000950280939602909397027FC041E050E072
:1010F0006FE972E0CE010E94881E892B41F58E01B6
:101100000A5F1F4FC8010E94721D9F938F937F93A8
:101110006F931F930F93DF93CF9384E792E09F9396
:101120008F930E947F1FC8010E94721D60939002DE
:101130007093910280939202909393028DB79EB721
:101140000A960FB6F8949EBF0FBE8DBF4EC041E009
:1011500050E060E772E0CE010E94881E892B61F4A6
:10116000C8010E94721D60938C0270938D0280935F
:101170008E0290938F0239C041E050E06EE672E03B
:10118000CE010E94881E892B61F4C8010E94721D45
:10119000609388027093890280938A0290938B02F5
:1011A00024C041E050E06AE672E0CE010E94881E51
:1011B000892B41F4CE010496DF91CF911F910F91BD
:1011C0000C94730C41E050E061E672E0CE010E94A5
:1011D000881E892B51F4CE0109960E94721DDF9161
:1011E000CF911F910F910C94A70CDF91CF911F917C
:1011F0000F910895EF92FF920F931F93E090940246
:10120000F090950200919602109197022091900221
:1012100030919102409192025091930260919C0210
:1012200070919D0280919E0290919F020E94160EE5
:101230009F938F9384ED91E09F938F930E947F1FE4
:101240000F900F900F900F901F910F91FF90EF90C4
:101250000895CF93DF93EC01BC0188E091E00E94F8
:10126000B11E892B71F460E070E0CB010E940D0586
:1012700087ED93E09F938F930E947F1F0F900F90B5
:1012800022C08881811113C00E941A059F938F93F9
:101290007F936F9381EC93E09F938F930E947F1FC6
:1012A0000F900F900F900F900F900F900CC0DF9346
:1012B000CF938DE893E09F938F930E947F1F0F90B1
:1012C0000F900F900F90DF91CF910895CF93DF9300
:1012D000EC018BE592E09F938F930E947F1FDF9339
:1012E000CF9386E492E09F938F930E947F1F41E00B
:1012F00050E064E472E0CE010E94881E0F900F90CF
:101300000F900F900F900F90892BE9F48091A3021A
:101310008F938091A2028F938091A1028F938091ED
:10132000A0028F93DF93CF938AE392E09F938F93F2
:101330000E947F1F8DB79EB708960FB6F8949EBF88
:101340000FBE8DBFFCC041E050E068E372E0CE010B
:101350000E94881E892BE9F480919F028F938091CF
:101360009E028F9380919D028F9380919C028F9318
:10137000DF93CF938EE292E09F938F930E947F1F23
:101380008DB79EB708960FB6F8949EBF0FBE8DBF5F
:10139000D6C041E050E069E272E0CE010E94881EB2
:1013A000892BE9F480919B028F9380919A028F930D
:1013B000809199028F93809198028F93DF93CF93BE
:1013C0008FE192E09F938F930E947F1F8DB79EB70E
:1013D00008960FB6F8949EBF0FBE8DBFB0C041E017
:1013E00050E06DE172E0CE010E94881E892BE9F485
:1013F000809197028F93809196028F9380919502AE
:101400008F93809194028F93DF93CF9383E192E047
:101410009F938F930E947F1F8DB79EB708960FB63C
:10142000F8949EBF0FBE8DBF8AC041E050E06DE0D2
:1014300072E0CE010E94881E892BE9F4809193020C
:101440008F93809192028F93809191028F938091DC
:1014500090028F93DF93CF9383E092E09F938F93DB
:101460000E947F1F8DB79EB708960FB6F8949EBF57
:101470000FBE8DBF64C041E050E06FEF71E0CE0160
:101480000E94881E892BE9F480918F028F938091AE
:101490008E028F9380918D028F9380918C028F9317
:1014A000DF93CF9385EF91E09F938F930E947F1FEF
:1014B0008DB79EB708960FB6F8949EBF0FBE8DBF2E
:1014C0003EC041E050E063EF71E0CE010E94881E13
:1014D000892BE9F480918B028F9380918A028F93FC
:1014E000809189028F93809188028F93DF93CF93AD
:1014F00089EE91E09F938F930E947F1F8DB79EB7D7
:1015000008960FB6F8949EBF0FBE8DBF18C080918D
:10151000A3028F938091A2028F938091A1028F9357
:101520008091A0028F9388ED91E09F938F930E940A
:101530007F1F0F900F900F900F900F900F90DF91E3
:10154000CF9108956093A0027093A1028093A202AC
:101550009093A302089560939C0270939D028093E0
:101560009E0290939F02089560939802709399024F
:1015700080939A0290939B020895609394027093D3
:10158000950280939602909397020895609390023B
:1015900070939102809392029093930208956093C6
:1015A0008C0270938D0280938E0290938F02089527
:1015B000609388027093890280938A0290938B02D1
:1015C00008956091A0027091A1028091A202909171
:1015D000A302089560919C0270919D0280919E02E9
:1015E00090919F0208956091980270919902809164
:1015F0009A0290919B0208956091940270919502D5
:101600008091960290919702089560919002709156
:1016100091028091920290919302089560918C02C0
:1016200070918D0280918E0290918F020895609149
:1016300088027091890280918A0290918B020895AC
:101640004F925F926F927F928F929F92AF92BF92D2
:10165000CF92DF92EF92FF920F931F93CF93DF937E
:10166000CDB7DEB7C055D1090FB6F894DEBF0FBEB7
:10167000CDBF3C01009739F48AE394E09F938F93A8
:101680000E947F1F75C05090A8004090A90060E2A2
:1016900070E00E94A61E5C014C018618970880E647
:1016A000C82E80E0D82EE12CF12CA114B10459F4FD
:1016B0006AE070E0C3010E94A61E009731F08C0121
:1016C0000619170904C0840102C0052D142DF60166
:1016D00060817181A801C3010E94C11E892B09F09C
:1016E0004AC01F930F937F926F928AE194E09F9379
:1016F0008F930E947F1FB8016F5F7F4F660D771D2C
:101700008E010F5F1F4FC8010E94BA1E0F900F90ED
:101710000F900F900F900F90892BB1F01F930F93A4
:1017200081E194E09F938F930E947F1F86E08E9DBE
:10173000F0018F9DF00D1124E05AFF4F0280F381DC
:10174000E02DC80109952AC088E094E09F938F930B
:101750000E947F1F86E08E9DF0018F9DF00D112469
:10176000E05AFF4F0280F381E02D87E091E0099578
:101770000F900F9017C0FFEFEF1AFF0A86E0C80E18
:10178000D11CECE0EE16F10409F08FCF7F926F923E
:1017900081EF93E09F938F930E947F1F0F900F9094
:1017A0000F900F90C05BDF4F0FB6F894DEBF0FBEF7
:1017B000CDBFDF91CF911F910F91FF90EF90DF9000
:1017C000CF90BF90AF909F908F907F906F905F90E1
:1017D0004F9008959F938F9386E793E09F938F9305
:1017E0000E947F1F0F900F900F900F900895CF933E
:1017F000DF93EC0123E033E03F932F930E947F1FA0
:10180000CE010E94721D0E94A70C8DEF92E09F9363
:101810008F930E947F1F0F900F900F900F90DF917A
:10182000CF910895CF93DF93EC0127EF32E03F9300
:101830002F930E947F1FCE010E94730C81EF92E0D4
:101840009F938F930E947F1F0F900F900F900F9088
:10185000DF91CF91089581B38C6F81BB929A959857
:1018600029E130E08AE090E0939A969AE2ECF5E084
:101870003197F1F700C093989698E2ECF5E0319734
:10188000F1F700C0019781F7FFEF4FE382E0F150DD
:1018900040408040E1F700C000002150310911F7BD
:1018A0009298959A29E130E08AE090E0939A969A8E
:1018B000E2ECF5E03197F1F700C093989698E2ECEE
:1018C000F5E03197F1F700C0019781F7FFEF4FE3A3
:1018D00082E0F15040408040E1F700C0000021501C
:1018E000310911F7BBCFCF93DF93EC01BC0186E642
:1018F00092E00E94B11E892B11F4929A11C0BE0190
:101900008FE692E00E94B11E892B11F4929812C0CA
:10191000BE0189E792E00E94B11E892B19F49298CA
:10192000959809C0BE018EE792E00E94B11E892BF6
:1019300011F4929A959ADF91CF91089581B38C6FAB
:1019400081BB9498979886E692E00C94730C0F9361
:101950001F93CF93DF93EB01182F092F9B01482F83
:10196000592F6FEC7FE089EC91E40E94E01A0E940D
:10197000521BEAEAF0E060837183628373837F9392
:101980006F930F931F93DF93CF9389ED95E09F9310
:101990008F930E947F1F8DB79EB708960FB6F8945D
:1019A0009EBF0FBE8DBFDF91CF911F910F91089504
:1019B000009739F0E6E6FEE03197F1F70000019775
:1019C000F7CF0895009729F025E02A95F1F70197C0
:1019D000F9CF0895EF92FF920F931F93CF93DF9368
:1019E0009C018091AA009091AB0068EE73E00E9488
:1019F000271DC9010E94271DEB01DF936F933F93C1
:101A00002F9381EB95E09F938F930E947F1F0F9000
:101A10000F900F900F900F900F9000E010E00C17B8
:101A20001D07E4F48AE0E82EF12C939A969A80E957
:101A300091E00E94E20C9398969880E991E00E94D0
:101A4000E20C81E0E81AF10881F78091AA009091F8
:101A5000AB000E94D80C0F5F1F4FE1CFDF91CF91F9
:101A60001F910F91FF90EF900895AF92BF92CF9288
:101A7000DF92EF92FF920F931F93CF93DF9300D0EB
:101A8000CDB7DEB75C01BC01990F880B990B0E94A2
:101A90008A1B20E030E04AE754E40E94E01A8C01FF
:101AA0001F938F937F936F93BF92AF9283E995E0DB
:101AB0009F938F9369837A830E947F1F28E539E380
:101AC00044EB5DE369817A81802F912F0E94E01AB7
:101AD00020E030E040EA51E40E94161C162F072F48
:101AE000D82EC92EA8019601652F742F832F922F0F
:101AF0000E94521B7B01CF92DF920F931F937F9323
:101B00006F93BF92AF928FE495E09F938F930E9463
:101B10007F1F0FB6F894DEBF0FBECDBFC12CD12CF6
:101B2000CE14DF04DCF40AE010E0939A969A80E980
:101B300091E00E94E20C9398969880E991E00E94CF
:101B4000E20C0150110989F78091AA009091AB0035
:101B50000E94D80C9FEFC91AD90AE2CF0F900F90BC
:101B6000DF91CF911F910F91FF90EF90DF90CF9079
:101B7000BF90AF900895EF92FF920F931F93CF9372
:101B8000DF93EC01DF93CF938CE395E09F938F93EA
:101B90000E947F1F0F900F900F900F9000E010E0B9
:101BA0000C171D07E4F48AE0E82EF12C939A969A1C
:101BB00080E991E00E94E20C9398969880E991E088
:101BC0000E94E20C81E0E81AF10881F78091AA00F6
:101BD0009091AB000E94D80C0F5F1F4FE1CFDF91B7
:101BE000CF911F910F91FF90EF9008958091A402E3
:101BF00008958093A40208951092A9021092AA0257
:101C00001092AB021092AC020895FC018081918188
:101C1000A281B3818093A9029093AA02A093AB0200
:101C2000B093AC02089589EA92E008958F929F9252
:101C3000AF92BF92CF92DF92EF92FF92CF93DF935A
:101C4000EC01C090A902D090AA02E090AB02F09003
:101C5000AC022FE832EC44E152E4C701B6010E9425
:101C6000161C20E030E0A9010E94741A4B015C01AF
:101C70006093A5027093A6028093A7029093A80296
:101C800029E537E149E950EC688179818A819B81B6
:101C90000E94161C9B01AC01C501B4010E94741A7C
:101CA0004B015C0129E537E149E950E46C817D8114
:101CB0008E819F810E94161C9B01AC01C501B4015D
:101CC0000E94741A4B015C012FE135E04EEE52E4A4
:101CD000688579858A859B850E94161C9B01AC01CD
:101CE000C501B4010E94741A6093A5027093A60204
:101CF0008093A7029093A8022BED35E846E45FE3BA
:101D0000C701B6010E94161C20E030E0A9010E9424
:101D1000741A6B017C0121E039E14AEB5CE36881D4
:101D200079818A819B810E94161C9B01AC01C701AD
:101D3000B6010E94741A6B017C0121E039E14AEB83
:101D40005CEB6C817D818E819F810E94161C9B01C2
:101D5000AC01C701B6010E94741A6B017C012DE031
:101D60003BEA40E15FEB688579858A859B850E9427
:101D7000161C9B01AC01C701B6010E94741A609346
:101D8000A9027093AA028093AB029093AC0285EAF9
:101D900092E0DF91CF91FF90EF90DF90CF90BF90D6
:101DA000AF909F908F90089585EA96E09F938F93D0
:101DB0000E947F1F89B78F7789BF8BE996E09F9339
:101DC0008F930E947F1F0F900F900F900F90089598
:101DD0008091AD0208958BE097E09F938F930E94CE
:101DE0007F1F1092AD0288E097E09F938F930E942F
:101DF0007F1F14BC85B5856085BD85E097E09F9306
:101E00008F930E947F1F80EE96E09F938F930E9496
:101E10007F1F87ED96E09F938F930E947F1F82E044
:101E200097E09F938F930E947F1F8FEF96E09F9381
:101E30008F930E947F1F8EEE96E09F938F930E9458
:101E40007F1F8BEE96E09F938F930E947F1F8DB72D
:101E50009EB742960FB6F8949EBF0FBE8DBF0895F1
:101E600083EC96E09F938F930E947F1F0E94D40E75
:101E700085B58A7F85BD1092AD0281EB96E09F9378
:101E80008F930E947F1F0F900F900F900F900895D7
:101E90008CE297E09F938F930E947F1F8C9A88E338
:101EA00085BD8FEF83BD0E94300F1092AF0210925C
:101EB000AE028EE197E09F938F930E947F1F0F9059
:101EC0000F900F900F90089589B7881F8827881F5B
:101ED00008959093AF028093AE0208958091AE0270
:101EE0009091AF0208950F931F93CF93DF9303B5A3
:101EF000C9B7CC1FCC27CC1F11F00E94D40E109173
:101F0000AD02D4B5CC2381F080EE96E09F938F9301
:101F10000E947F1F87ED96E09F938F930E947F1F03
:101F20000F900F900F900F908D2F90E0019F800DDC
:101F3000911D1124DF91CF911F910F9108950F935F
:101F40001F93CF93DF938BE896E09F938F930E942C
:101F50007F1F0F900F908091AE029091AF02892B5E
:101F600061F11092AD020E94730F8C01E091AE02FC
:101F7000F091AF0209950E94730FEC018091AD02C0
:101F8000882329F10E94300F83B51F928F939E0101
:101F9000201B310B3F932F931F930F9385E496E003
:101FA0009F938F930E947F1F8DB79EB708960FB6A1
:101FB000F8949EBF0FBE8DBF0AC00E94300F8BE108
:101FC00096E09F938F930E947F1F0F900F908DE05C
:101FD00096E09F938F930E947F1F0F900F90DF9149
:101FE000CF911F910F9108958091AD028F5F8093E3
:101FF000AD028091AD021F928F9383E096E09F9394
:102000008F930E947F1F92B380E1892782BB0F903C
:102010000F900F900F900895CF92DF92EF92FF9262
:102020000F931F93CF93DF93C090B802D090B90263
:10203000E090BA02F090BB0225E236E049EC50E4B1
:102040006091B0027091B1028091B2029091B3029E
:102050000E94161CE6019E014E2D5F2D0E94161C4B
:102060000E94831C2091B4023091B5024091B602C7
:102070005091B7020E94161C9F938F937F936F938A
:10208000FF92EF92DF93CF938CE397E09F938F9330
:102090000E947F1F2AE037ED43E25CE36091B802C3
:1020A0007091B9028091BA029091BB020E94741A99
:1020B0006093B8027093B9028093BA029093BB0206
:1020C0008091BC029091BD02A091BE02B091BF026E
:1020D0000197A109B1098093BC029093BD02A0931E
:1020E000BE02B093BF022DB73EB7265F3F4F0FB67B
:1020F000F8943EBF0FBE2DBF892B8A2B8B2B51F43A
:10210000DF91CF911F910F91FF90EF90DF90CF90D3
:102110000C94300FDF91CF911F910F91FF90EF90B2
:10212000DF90CF900895CF93DF93EB010497A9F050
:10213000888199819F938F939F938F9387E597E0F1
:102140009F938F930E947F1F0F900F900F900F907F
:102150000F900F90DF91CF9108958A819B810E940B
:10216000761D092E000CAA0BBB0B8093BC0290932A
:10217000BD02A093BE02B093BF028C819D810E94DC
:10218000721D6093B4027093B5028093B60290936F
:10219000B7028E819F810E94721D6093B00270937E
:1021A000B1028093B2029093B3021092B8021092DF
:1021B000B9021092BA021092BB0285E497E09F9395
:1021C0008F930E947F1F8CE090E10E94690F0F9017
:1021D0000F90DF91CF910C94EB0E8DEB97E09F93D6
:1021E0008F930E947F1F0F900F908091C402909157
:1021F000C502892B01F50E941A059F938F937F9347
:102200006F938091C3028F938091C2028F938091CC
:10221000C1028F938091C0028F9383EB97E09F93CD
:102220008F930E947F1F8DB79EB70A960FB6F894C2
:102230009EBF0FBE8DBF2AE037ED43E25CE36091A5
:10224000C0027091C1028091C2029091C3020E94AB
:10225000741A6093C0027093C1028093C20290937B
:10226000C3028091C6029091C702A091C802B091AA
:10227000C9020197A109B1098093C6029093C702D0
:10228000A093C802B093C902892B8A2B8B2B11F41F
:102290000E94300F83EA97E09F938F930E947F1FE5
:1022A0000F900F900895CF93DF93EB01039799F070
:1022B000888199819F938F939F938F9387EF97E066
:1022C0009F938F930E947F1F0F900F900F900F90FE
:1022D0000F900F9035C08C819D810E94761D97FFD5
:1022E0000FC089818F9388818F938DEC97E09F93A6
:1022F0008F930E947F1F0F900F900F900F9020C020
:1023000085E090E0A0E0B0E08093C6029093C70221
:10231000A093C802B093C9021092C0021092C102E9
:102320001092C2021092C3021092C5021092C4020F
:102330008DEE90E10E94690FDF91CF910C94EB0E2E
:10234000DF91CF9108951F920F920FB60F92112433
:102350002F933F934F935F936F937F938F939F93AD
:10236000AF93BF93EF93FF930E94C304FF91EF914C
:10237000BF91AF919F918F917F916F915F914F919D
:102380003F912F910F900FBE0F901F9018951F92A5
:102390000F920FB60F9211242F933F934F935F9399
:1023A0006F937F938F939F93AF93BF93EF93FF931D
:1023B0000E94E804FF91EF91BF91AF919F918F919F
:1023C0007F916F915F914F913F912F910F900FBE31
:1023D0000F901F9018951F920F920FB60F92112415
:1023E0002F933F934F935F936F937F938F939F931D
:1023F000AF93BF93EF93FF930E94A912FF91EF91C8
:10240000BF91AF919F918F917F916F915F914F910C
:102410003F912F910F900FBE0F901F9018951F9214
:102420000F920FB60F9211242F933F934F935F9308
:102430006F937F938F939F93AF93BF93EF93FF938C
:102440000E94B512FF91EF91BF91AF919F918F9133
:102450007F916F915F914F913F912F910F900FBEA0
:102460000F901F9018958AEC90E00E946C05892BC4
:1024700041F48AEC90E00E94BD05082E000C990BF7
:1024800008958FEF9FEF0895CF93DF931F92CDB7FD
:10249000DEB7682F82EC90E069830E94790569813C
:1024A000892BC1F782EC90E00E949105559A80E05B
:1024B00090E00F90DF91CF9108958AEC90E00E9418
:1024C000660510BC87E089B988EB8AB986E880BDCB
:1024D000ECE5F4E084EB90E0918380839383828346
:1024E0008AEC90E00E94660582EC90E00C94660510
:1024F000CF93DF931F92CDB7DEB79BB199838CB199
:102500009C7111F1898184FF08C084EB98E09F934E
:102510008F930E947F1F0F900F90898183FF08C0C7
:1025200088E998E09F938F930E947F1F0F900F90F0
:10253000898182FF08C08CE798E09F938F930E9467
:102540007F1F0F900F908FEF90E00F90DF91CF9152
:1025500008950E9478128F3F2FEF920729F0682F7D
:102560008AEC90E00C949105089582EC90E00E9432
:102570006C05892B11F05598089582EC90E00E942B
:10258000BD058CB908950E945D128CE698E09F937A
:102590008F930E947F1F2FEF8FEF99E5215080408E
:1025A0009040E1F700C000008FE398E09F938F9385
:1025B0000E947F1F0E94B2040E94480F78942FEF60
:1025C0008FEF99E5215080409040E1F700C0000076
:1025D00085E398E09F938F930E947F1F0F900F9049
:1025E0000F900F900F900F900E94E80E882319F023
:1025F0000E949F0FF9CF8EEA90E00E948106F4CFEF
:10260000A3E1B0E0E6E0F3E10C943B1D6C014B016B
:102610002A01FC0117821682838181FF43C3AE0128
:102620004F5F5F4F3A01F6019381F40193FD85916D
:1026300093FF81914F01882309F430C3853239F427
:1026400093FD859193FF81914F01853239F4B60155
:1026500090E00E94471F52012501E5CF10E0F12CC8
:1026600020E02032A0F48B3269F030F4803259F04F
:10267000833269F420612CC08D3239F0803339F413
:10268000216026C02260246023C0286021C027FD6D
:1026900027C030ED380F3A3078F426FF06C0FAE054
:1026A0001F9F300D1124132F13C04AE0F49E300DEC
:1026B0001124F32E20620CC08E3221F426FDEEC2CE
:1026C000206406C08C3611F4206802C0883641F4BC
:1026D000F40193FD859193FF81914F018111C1CF49
:1026E0009BEB980F933018F42061805E06C09BE945
:1026F000980F933008F071C12F7E26FF16E02F73DC
:10270000322E853619F42064322E08C0863621F424
:10271000F22FF0683F2E02C01111115037FE07C092
:102720001C3350F4EE24E394E10E27E00BC0183084
:1027300038F027E017E005C027E04CE3E42E02C0A4
:10274000212FE12C520144E0A40EB11CF201608162
:102750007181828193810E2DA3010E94941D2C0111
:10276000098100FF02C003FF07C031FC08C032FE30
:1027700009C030E2232E07C02DE2222E04C09BE2C6
:10278000292E01C0212C802F8C7019F0211068C2D5
:10279000A8C237FE0FC0E40C04FF04C08A81813355
:1027A00009F4EA941E1474F5F8E0FE1578F588E053
:1027B000E82E2CC036FC2AC0812F90E084159505A8
:1027C0009CF02CEF42162FEF520674F0432D406818
:1027D000342E0AC0E2E0F0E0EC0FFD1FE10FF11D26
:1027E0008081803319F411501111F4CF37FE0EC0DF
:1027F000EE24E394E10E812F90E0481659062CF464
:10280000141904C0EE24E39401C010E037FE06C0A2
:102810001414150434F4C201019605C085E090E05B
:1028200002C081E090E021100196112331F0212FA8
:1028300030E02F5F3F4F820F931F2F2D30E0821724
:10284000930714F4F81A01C0F12C832D897049F410
:10285000FF2039F0B60180E290E00E94471FFA9411
:10286000F7CF222029F0B601822D90E00E94471F69
:1028700033FC09C0FF2039F0B60180E390E00E94EC
:10288000471FFA94F7CF37FE5AC0942D852D57FE77
:1028900002C090E080E0292E382E20E030E0A20136
:1028A0004E1951095D874C87A201421953095F8770
:1028B0004E87612F70E044275527461B570B598BD5
:1028C000488B5FEF2516350649F4B6018EE290E09D
:1028D0002A8B3B8B0E94471F3B892A894214530451
:1028E0006CF04C855D854215530544F4EE85FF85FB
:1028F000E20FF31FE60DF71D818101C080E351E077
:10290000251A31082F5F3F4F48895989241635060B
:102910004CF0B60190E02A8B3B8B0E94471F2A891E
:102920003B89CFCF2414350439F49A81963318F4B7
:10293000953311F404FF81E3B60190E04BC08A8126
:10294000813309F00F7EB60190E00E94471F1111FC
:1029500005C034FC18C085E690E017C0B6018EE2D1
:1029600090E00E94471F82E0EE24E394E80EF3011A
:10297000E80FF11D8081B60190E00E94471F1150C1
:102980008E2D91F7E6CF85E490E0B6010E94471FB7
:1029900057FC05C04114510439F404FF05C051949B
:1029A000419451088DE201C08BE2B60190E00E9493
:1029B000471F80E39AE0491651042CF08F5F5AE0DC
:1029C000451A5108F7CFB60190E00E94471FB601A3
:1029D000C201C0960E94471F57C1833631F083372A
:1029E00079F0833509F058C021C05201E2E0AE0E03
:1029F000B11CF2018081898301E010E0230114C041
:102A00005201F2E0AF0EB11CF2014080518026FF6E
:102A100003C0612F70E002C06FEF7FEFC2012A8B0D
:102A20000E94CF1E8C012A892F7715C05201F2E037
:102A3000AF0EB11CF2014080518026FF03C0612F10
:102A400070E002C06FEF7FEFC2012A8B0E94961EDA
:102A50008C012A892068322E23FD1AC08F2D90E028
:102A600008171907A8F4B60180E290E00E94471FFA
:102A7000FA94F4CFF20137FC859137FE81912F0152
:102A8000B60190E00E94471FF110FA94015011091D
:102A90000115110579F7F8C0843611F0893659F51A
:102AA000520127FF09C0F4E0AF0EB11CF2016081B2
:102AB0007181828193810AC0F2E0AF0EB11CF201F4
:102AC00060817181072E000C880B990B2F76322EB6
:102AD00097FF09C090958095709561957F4F8F4FB6
:102AE0009F4F2068322E2AE030E0A3010E94BE1FD3
:102AF000E82EE6183FC0022F853721F40F7E2AE02A
:102B000030E01DC0097F8F3691F018F4883559F0F8
:102B1000C5C0803719F0883711F0C0C0006104FFCC
:102B200009C0046007C024FF08C0066006C028E092
:102B300030E005C020E130E002C020E132E0520187
:102B400007FF09C0F4E0AF0EB11CF2016081718192
:102B50008281938108C0F2E0AF0EB11CF201608166
:102B6000718180E090E0A3010E94BE1FE82EE6186C
:102B70000F77302E36FE0BC0332D3E7FE11650F41A
:102B800034FE0AC032FC08C0332D3E7E05C00E2D37
:102B9000332D03C00E2D01C0012F34FF0CC0FE01E8
:102BA000EE0DF11D8081803311F4397E08C032FFB3
:102BB00005C00E5F04C0832F867809F00F5F33FDD8
:102BC00013C030FF06C01E2D0F1518F41F0D101B6B
:102BD0000F2D0F1568F4B60180E290E03B8B0E9448
:102BE000471F0F5F3B89F5CF0F1510F4F01A01C096
:102BF000F12C34FF12C0B60180E390E03B8B0E94C1
:102C0000471F3B8932FF17C031FD03C088E790E0C2
:102C100002C088E590E0B6010CC0832F867859F099
:102C200031FF02C08BE201C080E237FD8DE2B601C8
:102C300090E00E94471FE11638F4B60180E390E06F
:102C40000E94471F1150F7CFEA94F301EE0DF11DDA
:102C50008081B60190E00E94471FE110F5CF14C0BB
:102C6000F4E0FF1558F584E0F81A33FE1EC0211079
:102C700026C003FF2AC002E710E0F32DF0713F2EBB
:102C8000F8018491811124C0FF2009F4E5CCB6013C
:102C900080E290E00E94471FFA94F6CFF601868109
:102CA000978126C08FEF9FEF23C0B60180E290E0AE
:102CB0000E94471FFA94F110F8CFD9CFF12CB6013A
:102CC000822D90E00E94471FD4CF06E710E0D5CFB9
:102CD00031108052B60190E00E94471F0F5F1F4FD6
:102CE000CFCF23E02F1510F483E0BECFF12CC1CF5E
:102CF0006396E2E10C94571D20FD09C0FC0123FD01
:102D000005C022FF02C0738362835183408308950C
:102D100044FD10C046FD10C0DB01FC01AA0FBB1F23
:102D2000EE1FFF1F1094D1F76A0F7B1F8E1F9F1F8E
:102D300031E003C033E001C034E0660F771F881F25
:102D4000991F3150D1F7620F711D811D911D08959A
:102D50000F931F93CF93DF938C01C8010E94091F2B
:102D6000EC0197FD08C00E946C1E892BB1F7B801D9
:102D7000CE010E94A51FCE01DF91CF911F910F912F
:102D80000895A0E0B0E0E7ECF6E10C94411D7C0171
:102D90008B016A01D22F0E94091F9C0133272B321D
:102DA000310521F02D32310559F4D0680150110957
:102DB00011F480E069C0C7010E94091F97FDF9CF97
:102DC000CD2FCD7F2D2F207309F58033F9F45801D5
:102DD00081E0A81AB10809F443C0C7010E94091F85
:102DE00097FD3EC0282F2F7D283551F4C264025034
:102DF0001109B1F1C7010E94091F97FF07C030C038
:102E0000D6FF02C0C26001C0C2618501812C912C35
:102E1000540120ED280F283080F0C4FF04C0B70112
:102E20000E94A51F1AC02A3040F0C6FFF8CF2F7DA0
:102E30003FEE320F363098F727504C2FC501B401C2
:102E40000E9488164B015C01C2600150110959F0C3
:102E5000C7010E94091F97FFDCCFC1FD04C0A9CFA5
:102E6000812C912C5401C7FF08C0B094A094909479
:102E70008094811C911CA11CB11C2C2FB501A401B4
:102E8000C6010E947C1681E0CDB7DEB7ECE00C9461
:102E90005D1DA0E2B0E0EFE4F7E10C943D1D4C01B4
:102EA0005B017A018E010F5F1F4F680180E2F8011C
:102EB00011928A95E9F7F401638040E050E0712CAB
:102EC000412C80E0A1E0B0E0F90163FC559063FE85
:102ED00051908F01952D9F01511003C080E090E02B
:102EE00080C0FEE55F1203C04115510561F1682FF6
:102EF00070E0641775074CF46DE5561669F1EDE264
:102F00005E1203C0442009F103C0411001C0752CBA
:102F1000692F669566956695F601E60FF11D692F96
:102F200067708D0102C0000F111F6A95E2F7B801AA
:102F30007081672B6083971559F0971510F49F5F88
:102F4000E7CF9150E5CF81E004C04424439401C011
:102F5000412C4F5F5F4FB8CF442019F09E819062A3
:102F60009E83811103C07724739418C0F6019E01DB
:102F70002F5D3F4F808180958193E217F307D1F752
:102F8000F2CFE114F10429F0F7018083C701019623
:102F90007C0191E0A91AB108712CE9F0C4010E94EA
:102FA000091F97FD16C0282F269526952695F60110
:102FB000E20FF11D208130E0AC014770552702C0BF
:102FC000359527954A95E2F720FDDBCFB4010E94A5
:102FD000A51F711083CFE114F10411F0F7011082E5
:102FE000C801A096E0E10C94591DA6E0B0E0EBEF1B
:102FF000F7E10C943B1D5C017B011A010E94091F43
:103000009E838D8399278B32910521F08D9789F4CA
:1030100010E801C010E021E0E21AF10811F480E0AC
:103020002CC1C5010E94091F9E838D8397FF02C09A
:10303000F6CF10E08D819E810E94751E8936910524
:1030400049F08E36910509F03BC063EE862E68E0AC
:10305000962E04C076EE872E78E0972EEFEF8E1A2C
:103060009E0AF401319704910023C9F081E0E81A27
:10307000F10871F0C5010E94091F6C0197FD08C09D
:103080000E94751E081751F3B501C6010E94A51FC5
:1030900099EE891698E0990609F0C1CF05C0F6EEC1
:1030A0008F16F8E09F0629F080E090E0A0E8BFE7E7
:1030B00004C080E090E0A0ECBFE7BC01CD01CDC032
:1030C000412C512C3201C12CD12C2D8120532A307E
:1030D00018F5012F0260812F887012FF06C0811140
:1030E00021C02FEFC21AD20A1DC0882319F081E037
:1030F000C81AD10840E2C301B2010E9488162B0110
:103100003C0198E9491699E95906690699E1790659
:1031100048F0012F066006C02E3F91F413FD10C049
:10312000012F0860E1E0EE1AF10849F0C5010E94A4
:10313000091F9E838D83102F97FFC7CF01C0102FCB
:1031400011FF6DCF8D818F7D853409F04EC0470111
:10315000F1E08F1A910809F462CFC5010E94091F9E
:103160009E838D8397FD5BCF99278B32910519F054
:103170008D9761F41061470122E0821A910809F4E9
:103180004ECFC5010E94091F9E838D838D819E8134
:10319000C0970A9708F043CF7401812C912CB40199
:1031A000990C880B990B2D81205340E20E948816C0
:1031B000AB01BC014A0181E0E81AF10871F0C501D8
:1031C00049835A836B837C830E94091F9E838D836E
:1031D000C09749815A810A9710F314FF04C08824CC
:1031E0009924841A950AC80CD91CEF2841F0ED8166
:1031F000FE81F7FD04C0B501CF010E94A51FC301E8
:10320000B2010E94881BD7FE08C0D194C194D10896
:1032100052E0852E59E0952E04C04AE1842E49E003
:10322000942E5401F8E1AF1AB10830E2E32EF12CEC
:10323000CE14DF0450F0F40125913591459154915D
:103240000E94161CCE18DF08F3CF24E0821A9108E2
:10325000F694E7948A149B0459F717FF05C0DC0124
:10326000CB01B058BC01CD012114310429F0F1018A
:10327000608371838283938381E02696E2E10C94DC
:10328000571DA1E0B0E0E7E4F9E10C943D1D6C01AD
:103290002B014A01FC0117821682A12CF601F38052
:1032A000F201F3FC8591F3FE8191482F2F018823D1
:1032B00009F410C190E049830E946C1E4981892B5A
:1032C00021F0C6010E94A816E9CF453241F4F2016F
:1032D000F3FC4591F3FE41912F01453269F4C6019B
:1032E00049830E94091F498197FDF2C04817B1F236
:1032F000B6010E94A51FEEC04A3239F4F3FC459195
:10330000F3FE41912F0151E001C050E0320100E095
:1033100010E020ED240F2A3088F45260B80180E0DC
:1033200090E040E259830E9488168B01F301F3FC80
:103330004591F3FE41913F015981EBCFB52E342FDA
:10334000230151FF04C00115110519F4C3C00FEF8B
:103350001FEF483619F04C3659F013C0F301F3FC57
:103360003591F3FE31912F01383659F45860B52E5E
:10337000FB2DF460BF2EF201F3FC3591F3FE319189
:103380002F01332309F4A6C0632F70E081ED98E08C
:1033900039830E947D1E3981892B09F49BC0B0FCC2
:1033A00007C0F401E080F180C40102964C0102C024
:1033B000E12CF12C3E3651F4F6014681578160E054
:1033C00070E02B2DC7010E947C1668CF3336A9F41C
:1033D000B1FC02C001E010E0C6010E94091F97FD88
:1033E00077C0E114F10429F0F7018083C701019649
:1033F0007C010150110981F767C03B3559F49201F6
:10340000A701B801C6010E9449172C01892B09F0B8
:103410005BC055C0C60139830E94A816398197FD4B
:1034200057C03F36D9F140F43436A1F13936C9F1ED
:10343000383509F03DC02AC03337A1F018F43037D1
:1034400029F136C0353731F1383701F131C0E11497
:10345000F10429F0F7016082C70101967C01015057
:10346000110971F0C6010E94091F3C0197FD08C0B7
:103470000E946C1E892B59F3B601C3010E94A51F3F
:10348000E114F10409F1F70110821EC0FB2DF06474
:10349000BF2E07C08B2D8062B82E03C09B2D90617C
:1034A000B92E2B2DA701B801C6010E94C11605C077
:1034B000A701B801C6010E94F517811105C0F601E8
:1034C0008381807329F406C0B0FCE8CEA394E6CED5
:1034D000AA2019F08A2D90E002C08FEF9FEF21966D
:1034E000E0E10C94591D5058BB27AA270E948B1A63
:1034F0000C94DC1B0E94CE1B38F00E94D51B20F0E0
:1035000039F49F3F19F426F40C94CB1B0EF4E0958C
:10351000E7FB0C94C51BE92F0E94ED1B58F3BA176B
:10352000620773078407950720F079F4A6F50C94D9
:103530000F1C0EF4E0950B2EBA2FA02D0B01B90134
:1035400090010C01CA01A0011124FF27591B99F019
:10355000593F50F4503E68F11A16F040A22F232F25
:10356000342F4427585FF3CF469537952795A79575
:10357000F0405395C9F77EF41F16BA0B620B730B1C
:10358000840BBAF09150A1F0FF0FBB1F661F771F8D
:10359000881FC2F70EC0BA0F621F731F841F48F442
:1035A000879577956795B795F7959E3F08F0B0CFCB
:1035B0009395880F08F09927EE0F979587950895B2
:1035C0000E94F41A0C94DC1B0E94D51B58F00E9438
:1035D000CE1B40F029F45F3F29F00C94C51B51111C
:1035E0000C94101C0C94CB1B0E94ED1B68F39923C8
:1035F000B1F3552391F3951B550BBB27AA276217EF
:103600007307840738F09F5F5F4F220F331F441FFB
:10361000AA1FA9F335D00E2E3AF0E0E832D091502F
:103620005040E695001CCAF72BD0FE2F29D0660F1C
:10363000771F881FBB1F261737074807AB07B0E85F
:1036400009F0BB0B802DBF01FF2793585F4F3AF065
:103650009E3F510578F00C94C51B0C94101C5F3FE5
:10366000E4F3983ED4F3869577956795B795F795EB
:103670009F5FC9F7880F911D9695879597F90895D3
:10368000E1E0660F771F881FBB1F6217730784076F
:10369000BA0720F0621B730B840BBA0BEE1F88F77E
:1036A000E09508950E94591B6894B1110C94101C68
:1036B00008950E94F51B88F09F5798F0B92F99271D
:1036C000B751B0F0E1F0660F771F881F991F1AF00D
:1036D000BA95C9F714C0B13091F00E940F1CB1E047
:1036E00008950C940F1C672F782F8827B85F39F046
:1036F000B93FCCF3869577956795B395D9F73EF4A6
:1037000090958095709561957F4F8F4F9F4F08954D
:10371000E89409C097FB3EF490958095709561956B
:103720007F4F8F4F9F4F9923A9F0F92F96E9BB2721
:103730009395F695879577956795B795F111F8CF9D
:10374000FAF4BB0F11F460FF1BC06F5F7F4F8F4F08
:103750009F4F16C0882311F096E911C0772321F0FE
:103760009EE8872F762F05C0662371F096E8862F96
:1037700070E060E02AF09A95660F771F881FDAF7ED
:10378000880F9695879597F9089597F99F6780E830
:1037900070E060E008959FEF80EC089500240A94A3
:1037A0001616170618060906089500240A9412161C
:1037B0001306140605060895092E0394000C11F44F
:1037C000882352F0BB0F40F4BF2B11F460FF04C0FC
:1037D0006F5F7F4F8F4F9F4F089557FD9058440F55
:1037E000551F59F05F3F71F04795880F97FB991F60
:1037F00061F09F3F79F0879508951216130614061D
:10380000551FF2CF4695F1DF08C0161617061806A9
:10381000991FF1CF86957105610508940895E89484
:10382000BB2766277727CB0197F908950E94291CAB
:103830000C94DC1B0E94CE1B38F00E94D51B20F09C
:10384000952311F00C94C51B0C94CB1B11240C94E4
:10385000101C0E94ED1B70F3959FC1F3950F50E073
:10386000551F629FF001729FBB27F00DB11D639F32
:10387000AA27F00DB11DAA1F649F6627B00DA11DD8
:10388000661F829F2227B00DA11D621F739FB00D7E
:10389000A11D621F839FA00D611D221F749F3327EE
:1038A000A00D611D231F849F600D211D822F762F87
:1038B0006A2F11249F5750409AF0F1F088234AF064
:1038C000EE0FFF1FBB1F661F771F881F91505040D0
:1038D000A9F79E3F510580F00C94C51B0C94101C59
:1038E0005F3FE4F3983ED4F3869577956795B79557
:1038F000F795E7959F5FC1F7FE2B880F911D969571
:10390000879597F908959F930E948D1C0F9007FC4F
:10391000EE5F0C94B61C0C94CB1B0E94F51BD8F3E5
:10392000E894E0E0BB279F57F0F02AED3FE049EC38
:1039300006C0EE0FBB0F661F771F881F28F0B23A34
:1039400062077307840728F0B25A620B730B840B6B
:10395000E3959A9572F7803830F49A95BB0F661FFD
:10396000771F881FD2F790480C94CC1CEF93E0FF90
:1039700007C0A2EA2AED3FE049EC5FEB0E948B1AF8
:103980000E94DC1B0F90039401FC9058E4E5F0E0EA
:103990000C94D81C9F3F31F0915020F48795779577
:1039A0006795B795880F911D9695879597F9089516
:1039B0009F938F937F936F93FF93EF939B01AC0142
:1039C0000E94161CEF91FF910E94EC1C2F913F91D9
:1039D0004F915F910C94161CDF93CF931F930F931D
:1039E000FF92EF92DF927B018C01689406C0DA2E81
:1039F000EF010E94291CFE01E894A59125913591C3
:103A000045915591A6F3EF010E948B1AFE01970193
:103A1000A801DA9469F7DF90EF90FF900F911F9162
:103A2000CF91DF910895AA1BBB1B51E107C0AA1FCC
:103A3000BB1FA617B70710F0A61BB70B881F991F4F
:103A40005A95A9F780959095BC01CD01089597FBF3
:103A5000072E16F4009407D077FD09D00E94131D9D
:103A600007FC05D03EF4909581959F4F0895709581
:103A700061957F4F08952F923F924F925F926F9280
:103A80007F928F929F92AF92BF92CF92DF92EF92EE
:103A9000FF920F931F93CF93DF93CDB7DEB7CA1B6F
:103AA000DB0B0FB6F894DEBF0FBECDBF09942A889A
:103AB000398848885F846E847D848C849B84AA8442
:103AC000B984C884DF80EE80FD800C811B81AA81CF
:103AD000B981CE0FD11D0FB6F894DEBF0FBECDBF9A
:103AE000ED010895662777270C941C20FC01882798
:103AF0009927E89421912032E9F3293010F02E30F3
:103B0000C8F32B3241F02D3239F4689404C00E947E
:103B1000011F820F911D219120532A30C0F31EF402
:103B2000909581959F4F0895283008F027E033271E
:103B3000DA01990F311D87FD9160009661057105CD
:103B400039F432602E5F3D9330E32A95E1F7089512
:103B50009F3F30F080387105610509F03C5F3C5FA4
:103B60003D93913008F08068911DDF93CF931F93B0
:103B70000F93FF92EF92192F987F9695E92F9695C4
:103B80009695E90FFF27EC52FF4F99273327EE2434
:103B9000FF24A701E70105900894079428F4360F45
:103BA000E71EF81E491F511D660F771F881F991FBA
:103BB0000694A1F70590079428F4E70EF81E491F14
:103BC000561FC11D770F881F991F661F0694A1F706
:103BD0000590079428F4F80E491F561FC71FD11DE2
:103BE000880F991F661F771F0694A1F70590079409
:103BF00020F4490F561FC71FD81F990F661F771F44
:103C0000881F0694A9F784911095177041F0D695F6
:103C1000C79557954795F794E7941A95C1F7EAE742
:103C2000F0E0689415901591359165919591059006
:103C30007FE27395E118F10A430B560BC90BD009CB
:103C4000C0F7E10CF11E431F561FC91FD01D7EF4A3
:103C5000703311F48A95E6CFE894015030F0080FE4
:103C60000AF40027021708F4202F2395022F7A3335
:103C700028F079E37D932A95E9F710C07D932A9582
:103C800089F6069497956795379517951794E118D7
:103C9000F10A430B560BC90BD00998F023957E917E
:103CA00073957A3308F070E37C932013B8F77E9114
:103CB00070617D9330F0839571E37D9370E32A9575
:103CC000E1F71124EF90FF900F911F91CF91DF91B9
:103CD000992787FD9095089591110C947921803250
:103CE00019F089508550C8F70895911108958154AD
:103CF0008A5108F4805E855A0895FC0105900616E5
:103D000021F00020D9F7C00108953197CF0108951F
:103D1000FB01DC014150504030F08D91059080193D
:103D200019F40020B9F7881B990B0895FC01059040
:103D3000615070400110D8F7809590958E0F9F1FAD
:103D400008954AE554E00E94DA1E0895FC0181912D
:103D5000861721F08823D9F7992708953197CF0145
:103D60000895FB01DC018D91019080190110D9F3B8
:103D7000990B0895FB01DC0101900D920020E1F701
:103D80000895FB01DC014150504030F08D910190CD
:103D9000801919F40020B9F7881B990B0895FC01CC
:103DA0006150704001900110D8F7809590958E0F6A
:103DB0009F1F0895FA01A191B081009719F41097FF
:103DC000E1F0CD01DC01CD010D90002011F4C00126
:103DD00013C0FB012191222319F02015D9F7F3CF4D
:103DE000FB012191201519F41E92119606C0222381
:103DF000C1F70D900020A1F7D001FA01A193B08383
:103E000008957AE0979F902D879F802D910D112422
:103E10000895CF93DF93EC012B8120FF33C026FF61
:103E20000AC02F7B2B838E819F8101969F838E8377
:103E30008A8190E029C022FF0FC0E881F98180814A
:103E4000082E000C990B009719F420622B831AC0DE
:103E50003196F983E8830EC0EA85FB85099597FFC3
:103E600009C02B81019611F080E201C080E1822B14
:103E70008B8308C02E813F812F5F3F4F3F832E836E
:103E8000992702C08FEF9FEFDF91CF9108950F9395
:103E90001F93CF93DF93FB01238121FD03C08FEF9D
:103EA0009FEF28C022FF16C04681578124813581AB
:103EB0004217530744F4A081B1819D012F5F3F4F0A
:103EC000318320838C93268137812F5F3F4F378347
:103ED000268310C0EB01092F182F0084F185E02DF7
:103EE0000995892BE1F68E819F8101969F838E83B0
:103EF000812F902FDF91CF911F910F910895A0E016
:103F0000B0E0E5E8FFE10C94491DAE01495F5F4F69
:103F1000DA016D917D91AD010CE514E0F80182812B
:103F20009381DC0113962C911397286013962C93A0
:103F30000E940013D8011296ED91FC9113972381F2
:103F4000277F2383E4E00C94651DFB01238120FF80
:103F500012C026FD10C08F3F3FEF930761F08283B0
:103F60002F7D2064238326813781215031093783B7
:103F70002683992708958FEF9FEF0895FA01AA27C6
:103F8000283051F1203181F1E8946F936E7F6E5F9C
:103F90007F4F8F4F9F4FAF4FB1E03ED0B4E03CD04A
:103FA000670F781F891F9A1FA11D680F791F8A1F2D
:103FB000911DA11D6A0F711D811D911DA11D20D094
:103FC00009F468943F912AE0269F11243019305D4E
:103FD0003193DEF6CF010895462F4770405D41933F
:103FE000B3E00FD0C9F7F6CF462F4F70405D4A338C
:103FF00018F0495D31FD4052419302D0A9F7EACF54
:10400000B4E0A6959795879577956795BA95C9F782
:1040100000976105710508959B01AC010A2E069475
:104020005795479537952795BA95C9F7620F731F2E
:10403000841F951FA01D0895A0E0B0E0E2E2F0E229
:104040000C943F1DEC017B016115710519F0DB013A
:104050008D939C938E010F5F1F4F7880872D90E08A
:104060000E946C1E892B11F0E801F4CFBDE27B1297
:1040700005C00F5F1F4F7980C1E008C0EBE27E12E0
:1040800004C08E010E5F1F4F7980C0E06801F1E02F
:10409000CF1AD10843E050E06CE771E0C6010E94FE
:1040A0007C21892BF1F4680122E0C20ED11C45E08D
:1040B00050E067E771E0C6010E947C21892B21F462
:1040C000680187E0C80ED11CE114F10419F0D70192
:1040D000CD92DC92C111FFC060E070E080E89FE704
:1040E00003C143E050E064E771E0C6010E947C2117
:1040F000892B51F4E114F10409F4F2C00E5F1F4F53
:10410000F70111830083ECC0680160E070E0CB012F
:1041100000E010E0F601D0EDD70DDA3058F52C2F85
:104120002260622E2C2F2870C2FF05C0211128C0EA
:104130000F5F1F4F25C0222311F001501109A5E088
:10414000B0E09B01AC010E94BD214B015C01880CD9
:10415000991CAA1CBB1CC501B4016D0F711D811DEA
:10416000911D6839A9E97A078A07A9E19A0740F001
:10417000C66005C0DE3F51F4C3FD44C0C8606C2E6C
:10418000BFEFCB1ADB0A7080C62DC4CF2D2F2F7D39
:104190002531C1F540814D3211F4C06106C04B326A
:1041A00021F0319621E030E006C03296D60111961A
:1041B0004C9122E030E0A0EDA40FAA3018F0E21BF1
:1041C000F30B20C040E050E04038BCE05B075CF4FB
:1041D0009A01220F331F220F331F420F531F440F28
:1041E000551F4A0F511D3196DF0111972C91A0EDFB
:1041F000A20FAA3048F3C4FF03C05195419551095D
:10420000040F151FC1FF07C0E114F10421F031971D
:10421000D701ED93FC930E94881BC370C33019F043
:104220006B017C0106C06B017C01F7FAF094F7F892
:10423000F09420E030E0A901C701B6010E9494216A
:10424000882309F445C017FF06C01195019511098F
:10425000C3E9D1E002C0CBEAD1E05E01B8E1AB1A1C
:10426000B1084601BE2DAF2D90E2E92EF12C0E15BE
:104270001F0584F0FE012591359145915491B401BB
:104280008B2F9A2F0E94161C4B01B82FA92F0E19A5
:104290001F09EDCF2497F594E794CA15DB0539F78C
:1042A0006401EB2EFA2E8E2D880F8F2D881F8F3FE5
:1042B00049F020E030E0A901C701B6010E94942135
:1042C000811106C082E290E09093630480936204BF
:1042D000C701B60109C060E070E080E89FEF04C04C
:1042E00060E070E080EC9FE7CDB7DEB7EEE00C94C5
:1042F0005B1D992788270895FB01DC014150504040
:1043000088F08D9181341CF08B350CF4805E6591C2
:1043100061341CF06B350CF4605E861B611171F327
:10432000990B0895881BFCCF0E94992108F481E025
:104330000895990F0008550FAA0BE0E8FEEF161636
:104340001706E807F907C0F012161306E407F50789
:1043500098F0621B730B840B950B39F40A2661F0FD
:10436000232B242B252B21F408950A2609F4A140A0
:10437000A6958FEF811D811D08950E94C821A59FDC
:10438000900DB49F900DA49F800D911D1124089550
:10439000A29FB001B39FC001A39F700D811D112486
:1043A000911DB29F700D811D1124911D0895F894E7
:0243B000FFCF3D
:1043B2000701BA0607010E01C70613010201290906
:1043C20026013E010C074C01700141077E01940158
:1043D2005C07A301FE007707B801CC019F07D0015B
:1043E2000A010508E401FC01660900021002FA084C
:1043F20015023C02B8064C0214006400640000007E
:104402005000CA02000000030000000044123312F0
:1044120000000000000000011A030000000040003C
:104422001A04000204000300014003020000030218
:1044320001000600040006050080060504000300D2
:104442000200140073D9A03E5839B43D90016C6F3C
:104452006700656E630020007265736574006865AD
:104462006C7000476976657320616C6C20636F6DB8
:104472006D616E6473004765747320616E642073AE
:1044820065747320656E632076616C7565006D6F6F
:1044920076655F7365745F64697374006D6F7665CA
:1044A2005F7365745F646973742044697374616EC9
:1044B20063655F6D6D205B737465707065725D001E
:1044C2006D6F76655F7365745F74696D65006D6F9E
:1044D20076655F7365745F74696D65207365636F7C
:1044E2006E6473006D6F76655F7365745F73746578
:1044F2007073006D6F76655F7365745F737465705A
:1045020073207374657073006C6F67205B656E63F4
:104512005D203C73616D706C65733E0073696E0063
:1045220073696E203C2320417267733E204172679B
:10453200735B5D00736574205B74686574617C7085
:10454200686F5D203C76616C75653E00676574003E
:10455200676574205B74686574617C70686F5D0068
:104562006374726C006374726C202D2072657475B2
:10457200726E73206E657874207374657020696E34
:1045820020636F6E74726F6C6C6572007465737405
:10459200696E675F737465707065720072756E73B1
:1045A2002061207374657070657220746573742065
:1045B200737569746500666F727761726473006205
:1045C20061636B7761726473006C65667400726913
:0445D20067687400A2
:00000001FF
