:100000000C94ED020C946A080C948E080C940A036C
:100010000C940A030C940A030C940A030C940A032C
:100020000C940A030C940A030C940A030C940A031C
:100030000C940A030C94B2080C94D6080C940A038E
:100040000C940A030C940A030C940A030C940A03FC
:100050000C940A036E616E00696E660000407A10AF
:10006000F35A00A0724E18090010A5D4E80000E869
:100070007648170000E40B54020000CA9A3B0000C7
:1000800000E1F505000080969800000040420F0056
:100090000000A08601000000102700000000E80317
:1000A000000000006400000000000A0000000000E2
:1000B0000100000000002C76D888DC674F0823DFA1
:1000C000C1DFAE59E1B1B796E5E3E453C63AE65174
:1000D000997696E8E6C28426EB898C9B62ED407C9B
:1000E0006FFCEFBC9C9F40F2BAA56FA5F490055A37
:1000F0002AF75C936B6CF9676DC11BFCE0E40D475C
:10010000FEF520E6B500D0ED902E0300943577057E
:100110000080841E080000204E0A000000C80C3336
:100120003333330F986E12831141EF8D2114893BC5
:10013000E65516CFFEE6DB18D1844B381BF77C1D45
:10014000901DA4BBE424203284725E228100C9F198
:1001500024ECA1E53D274E414E494E495459494EA4
:1001600046CDCCCC3D0AD7233C17B7D13877CC2B22
:10017000329595E6241FB14F0A000020410000C8C7
:100180004200401C4620BCBE4CCA1B0E5AAEC59D48
:10019000742A2A2A204D617820636F6D6D616E6428
:1001A000206C656E67746820657863656564656456
:1001B000202A2A2A0A00444F4E450A004F4B415933
:1001C0000A00444F4E450A004F4B41590A00444F24
:1001D0004E450A004F4B41590A00444F4E450A0014
:1001E00044697374616E63652061746F692764206C
:1001F0006973202564200A0044697374616E636525
:100200002070617273656420696E206173206120C3
:100210006368617220776173202573200A004F4B59
:1002200041590A00556E6B6E6F776E20636F6D6D6E
:10023000616E643A20222573220A00556E6B6E6F40
:10024000776E20636F6D6D616E643A202225732294
:100250000A00656E633A20696E76616C696420619C
:100260007267756D656E7420222573222C20737958
:100270006E7461782069733A20656E63205B7265E5
:100280007365745D0A00456E636F64657220636F09
:10029000756E7420697320256C640A00456E636F67
:1002A00064657220636F756E742072657365742067
:1002B000746F20300A00556E6B6E6F776E20636F1F
:1002C0006D6D616E643A20222573220A00455252F8
:1002D0004F523A20547269656420746F20706172C5
:1002E0007365204E554C4C20636F6D6D616E6420BC
:1002F000706F696E7465720A00202D2D2D2D2D2DC5
:100300002D2D2D2D2D2D2D2D2D2D2D2D2D2D2D2D1D
:100310002D2D2D2D2D2D2D2D2D2D2D2D2D2D2D2D0D
:100320002D2D2D2D2D2D2D2D2D2D2D2D2D2D2D2DFD
:100330002D2D2D2D2D2D2D2D2D200A007C202573CA
:100340002009090909202573200A00417661696C9A
:1003500061626C6520636F6D6D616E64733A0A0053
:10036000202D2D2D2D2D2D2D2D2D2D2D2D2D2D2DCA
:100370002D2D2D2D2D2D2D2D2D2D2D2D2D2D2D2DAD
:100380002D2D2D2D2D2D2D2D2D2D2D2D2D2D2D2D9D
:100390002D2D2D2D2D2D2D2D2D2D2D2D2D2D2D2D8D
:1003A000200A4333323036323436204255494C44E9
:1003B00020444154453A204F637420323720323074
:1003C00031372031393A34353A30300A0A0A00449C
:1003D000697374616E6365206F662027256427202A
:1003E0007365747320737465705F64697374616E90
:1003F000636520666F7220272564272066726F6D03
:10040000207468697320666C6F61742027256627E5
:10041000200A0044697374616E63655F6D6D202509
:10042000640A44697374616E63655F6D2025660AB2
:100430000054696D65202725642720736574732037
:10044000737465705F64697374616E636520666F51
:10045000722027256427200A0056656C6F63697433
:10046000792027256627207365742076656C6F6375
:100470006974795F64656C617920746F20272564E5
:10048000270A004469722073657420746F20272541
:100490007327200A004552524F520A000A43333252
:1004A0003036323436204255494C4420444154457C
:1004B0003A204F63742032372032303137203139BF
:1004C0003A34353A30300A0A002A2A2A2055415255
:1004D0005420706172697479206572726F72212084
:1004E0002A2A2A0A002A2A2A2055415254206461C5
:1004F0007461206F76657272756E21202A2A2A0A2D
:10050000002A2A2A2055415254206672616D696E74
:1005100067206572726F7221202A2A2A0A002A2A0D
:100520002A205461736B2063616C6C656420776969
:100530007468204E554C4C2063616C6C6261636B37
:1005400021202A2A2A0A002A2A2A205461736B2091
:10055000696E636F6D706C657465206265666F723D
:1005600065206E65787420747269676765722120F2
:100570005B7461722F6475722F6D61783A202575F6
:100580002F25752F25755D202A2A2A0A00636469A4
:100590006E6F70737578585B656667454647006196
:1005A0006E006E66696E69747900CDCCCC3D0AD759
:1005B000233C17B7D13877CC2B329595E6241FB161
:1005C0004F0A000020410000C84200401C4620BCE9
:1005D000BE4CCA1B0E5AAEC59D7411241FBECFE57A
:1005E000D8E0DEBFCDBF11E0A0E6B0E0E0EEFFE274
:1005F00002C005900D92AC3EB107D9F723E0ACEEF6
:10060000B1E001C01D92AC38B207E1F70E94160AB2
:100610000C94EE170C94000085B7856085BF10928E
:10062000EC011092ED011092EE011092EF0180ECBE
:100630008BBF089529B339B3209521703695317059
:100640008091EC019091ED01A091EE01B091EF014C
:10065000231721F00196A11DB11D03C00197A10927
:10066000B1098093EC019093ED01A093EE01B0935A
:10067000EF01089529B339B3209521703695317073
:100680008091EC019091ED01A091EE01B091EF010C
:10069000231721F00197A109B10903C00196A11DFB
:1006A000B11D8093EC019093ED01A093EE01B09306
:1006B000EF0108952BB72F732BBF6093EC0170935C
:1006C000ED018093EE019093EF0180EC8BBF0895D4
:1006D0008BB78F738BBF6091EC017091ED018091AE
:1006E000EE019091EF0120EC2BBF08958BB78F7333
:1006F0008BBF6091EC017091ED018091EE019091C2
:10070000EF011092EC011092ED011092EE011092A7
:10071000EF0120EC2BBF089586E886B980E487B905
:100720000895369A86B184B195B10895FC0111827D
:100730001082138212820895FC014081518122812E
:10074000338181E090E04217530711F080E090E0A0
:100750000895CF93DF93FC0120813181C281D38141
:10076000C9010196648175810E9452139C0181E048
:1007700090E02C173D0711F080E090E0DF91CF91E1
:1007800008950F931F93CF93DF931F92CDB7DEB7DA
:100790008C0169830E94A9036981892BC1F4D80166
:1007A0008D919C9111971696ED91FC911797E80FFA
:1007B000F91F60838D919C911197019614966D910C
:1007C0007C9115970E945213F801918380830F90BA
:1007D000DF91CF911F910F910895FC01208131810C
:1007E000828193812817390791F082819381A681B4
:1007F000B781A80FB91F2C918281938101966481E2
:1008000075810E94521393838283822F089580E022
:100810000895FC018481958101970895DC0111966A
:100820001C921E921496ED91FC91159710820895DA
:10083000FC0181E020813181232B09F080E00895C3
:10084000FC0181E0408151812281338142175307AD
:1008500008F480E00895FC012081318121153105E3
:1008600021F021503109318320830895DC012D913D
:100870003C9111972115310559F01496ED91FC9199
:1008800015972E0F3F1FF901319781E0908191114B
:1008900080E081700895DC012D913C9111971296B2
:1008A0004D915C9113972417350778F4FC0144812E
:1008B0005581F9013196ED93FC93FA01E20FF31F94
:1008C00060830E94360490E008958FEF9FEF0895B3
:1008D000683019F40E942B040CC06D3051F06A305E
:1008E00031F4FC0120813181232B19F060E00C945C
:1008F0004B0480E090E008950F931F93CF93DF9314
:100900008C01EB0180E090E06991662329F0C80139
:100910000E94680497FFF8CFDF91CF911F910F914C
:1009200008950F931F93CF93DF938C01EB010E94E7
:100930003604882359F0F80180819181C817D907BE
:1009400028F4848195818C0F9D1F02C080E090E087
:10095000DF91CF911F910F91089560E070E00C94AA
:1009600091040F931F93CF93DF93EC0101E911E002
:1009700080918403909185030E9407158F3F2FEF8C
:10098000920709F1682FCE010E9468048F3F2FEF74
:10099000920769F0019761F7CE010E94AD040E94B1
:1009A000FD0519821882EC81FD811082E1CF1F9331
:1009B0000F930E947D1519821882EC81FD811082AF
:1009C0000F900F90D5CFDF91CF911F910F91089588
:1009D0000C94BF069F938F9384E292E09F938F9332
:1009E0000E947D150F900F900F900F9008950F9318
:1009F0001F93CF93DF9380E693E09F938F930E94A2
:100A00007D158BE493E09F938F930E947D15C0E644
:100A1000D0E00F900F900F900F900CE313E08D81BA
:100A20008F938C818F9389818F9388818F931F936C
:100A30000F930E947D152FEF8FE794E021508040A7
:100A40009040E1F700C0000026960F900F900F90A5
:100A50000F900F900F9020E0C039D20701F789EF77
:100A600092E09F938F930E947D150F900F90DF91DE
:100A7000CF911F910F910895CF93DF93D82FC92F56
:100A80008EE192E09F938F930E947D15CF93DF9329
:100A900088EF91E09F938F930E947D158D2F9C2F5F
:100AA0000E94B5139F938F9380EE91E09F938F9355
:100AB0000E947D158D2F9C2F0E94B5130E94DE078A
:100AC0008AED91E09F938F930E947D158DB79EB71D
:100AD0000C960FB6F8949EBF0FBE8DBFDF91CF91DD
:100AE0000895CF93DF93EC0124ED31E03F932F93F2
:100AF0000E947D15CE010E94B5130E9493078EECD3
:100B000091E09F938F930E947D150F900F900F900F
:100B10000F90DF91CF910895CF93DF93EC0128ECF4
:100B200031E03F932F930E947D15CE010E94B113B7
:100B30000E94500782EC91E09F938F930E947D1555
:100B40000F900F900F900F90DF91CF910895CF935A
:100B5000DF93EC012CEB31E03F932F930E947D1546
:100B6000CE010E94070786EB91E09F938F930E942E
:100B70007D150F900F900F900F90DF91CF910895FA
:100B8000CF93DF93EC01BC0186EC90E00E94DD1472
:100B9000892B71F460E070E0CB010E945A038CE96C
:100BA00092E09F938F930E947D150F900F9022C02B
:100BB0008881811113C00E9468039F938F937F9354
:100BC0006F9386E892E09F938F930E947D150F901C
:100BD0000F900F900F900F900F900CC0DF93CF935A
:100BE00082E592E09F938F930E947D150F900F9066
:100BF0000F900F90DF91CF9108954F925F926F9277
:100C00007F928F929F92AF92BF92CF92DF92EF929C
:100C1000FF920F931F93CF93DF93CDB7DEB7C055ED
:100C2000D1090FB6F894DEBF0FBECDBF7C0100978F
:100C300049F48DEC92E09F938F930E947D150F9065
:100C40000F9078C0509090004090910060E270E06A
:100C50000E94D2145C014C018E189F0880E6C82EB9
:100C600080E0D82E612C712CA114B10459F46AE0F3
:100C700070E0C7010E94D214009731F08C010E1968
:100C80001F0904C0840102C0052D142DF6016081E6
:100C90007181A801C7010E94E614892BA1F5CE013C
:100CA00001966C019F938F938CEC90E09F938F93B0
:100CB0000E0D1F1D1F930F930E94A3150F900F90F1
:100CC0000F900F900F900F90181619066CF486E095
:100CD000869DF001879DF00D1124E05AFF4F0280A0
:100CE000F381E02DC6010DC086E0869DF001879D51
:100CF000F00D1124E05AFF4F0280F381E02D84E3D0
:100D000091E0099517C09FEF691A790AE6E0CE0EC7
:100D1000D11CF8E06F16710409F0A6CFFF92EF9294
:100D200086EB92E09F938F930E947D150F900F901A
:100D30000F900F90C05BDF4F0FB6F894DEBF0FBE71
:100D4000CDBFDF91CF911F910F91FF90EF90DF907A
:100D5000CF90BF90AF909F908F907F906F905F905B
:100D60004F9008959F938F938BE392E09F938F937F
:100D70000E947D150F900F900F900F90089581B3F2
:100D80008C6F81BB929A959829E130E08AE090E0DF
:100D9000939A969AE2ECF5E03197F1F700C09398B8
:100DA0009698E2ECF5E03197F1F700C0019781F7F2
:100DB000FFEF4FE382E0F15040408040E1F700C098
:100DC00000002150310911F79298959A29E130E0FD
:100DD0008AE090E0939A969AE2ECF5E03197F1F789
:100DE00000C093989698E2ECF5E03197F1F700C0D7
:100DF000019781F7FFEF4FE382E0F15040408040E0
:100E0000E1F700C000002150310911F7BBCFCF93AB
:100E1000DF93EC01BC018EEC91E00E94DD14892B84
:100E200011F4929A11C0BE0187ED91E00E94DD1489
:100E3000892B11F4929812C0BE0181EE91E00E94BC
:100E4000DD14892B19F49298959812C0BE0186EE94
:100E500091E00E94DD14892B19F4929A959A08C0AA
:100E600085E994E09F938F930E947D150F900F90DA
:100E7000DF93CF9383E894E09F938F930E947D1537
:100E80000F900F900F900F90DF91CF91089581B345
:100E90008C6F81BB949897988EEC91E00C94070727
:100EA0000F931F93CF93DF93EB01182F092F9B0113
:100EB000482F592F62E779ED80E290E40E94AF114C
:100EC0000E942112E2E9F0E0608371836283738300
:100ED0007F936F930F931F93DF93CF9389E594E0F4
:100EE0009F938F930E947D158DB79EB708960FB67E
:100EF000F8949EBF0FBE8DBFDF91CF911F910F91D0
:100F00000895009739F0E6E6FEE03197F1F700002A
:100F10000197F7CF0895009729F025E02A95F1F77A
:100F20000197F9CF0895EF92FF920F931F93CF93FC
:100F3000DF939C01809192009091930068EE73E0A2
:100F40000E946613C9010E946613EB01DF936F9341
:100F50003F932F9381E394E09F938F930E947D159D
:100F60000F900F900F900F900F900F9000E010E0F7
:100F70000C171D07E4F48AE0E82EF12C939A969A58
:100F800080E991E00E948B079398969880E991E020
:100F90000E948B0781E0E81AF10881F780919200A6
:100FA000909193000E9481070F5F1F4FE1CFDF9167
:100FB000CF911F910F91FF90EF900895AF92BF9244
:100FC000CF92DF92EF92FF920F931F93CF93DF9315
:100FD00000D0CDB7DEB75C01BC01990F880B990B2F
:100FE0000E94591220E030E04AE754E40E94AF1119
:100FF0008C011F938F937F936F93BF92AF9283E186
:1010000094E09F938F9369837A830E947D1528E5EE
:1010100039E344EB5DE369817A81802F912F0E944F
:10102000AF1120E030E048E453E40E94E512162FAF
:10103000072FD82EC92EA8019601652F742F832F54
:10104000922F0E9421127B01CF92DF920F931F9368
:101050007F936F93BF92AF928FEC93E09F938F93A8
:101060000E947D150FB6F894DEBF0FBECDBFC12C18
:10107000D12CCE14DF04DCF40AE010E0939A969AA7
:1010800080E991E00E948B079398969880E991E01F
:101090000E948B070150110989F78091920090916D
:1010A00093000E9481079FEFC91AD90AE2CF0F90DF
:1010B0000F90DF91CF911F910F91FF90EF90DF90F4
:1010C000CF90BF90AF9008958091F00108958093E4
:1010D000F00108951F920F920FB60F9211242F93D3
:1010E0003F934F935F936F937F938F939F93AF93B0
:1010F000BF93EF93FF930E941A03FF91EF91BF916B
:10110000AF919F918F917F916F915F914F913F919F
:101110002F910F900FBE0F901F9018951F920F9256
:101120000FB60F9211242F933F934F935F936F93BA
:101130007F938F939F93AF93BF93EF93FF930E94FF
:101140003A03FF91EF91BF91AF919F918F917F9162
:101150006F915F914F913F912F910F900FBE0F9024
:101160001F9018951F920F920FB60F9211242F9374
:101170003F934F935F936F937F938F939F93AF931F
:10118000BF93EF93FF930E947009FF91EF91BF917E
:10119000AF919F918F917F916F915F914F913F910F
:1011A0002F910F900FBE0F901F9018951F920F92C6
:1011B0000FB60F9211242F933F934F935F936F932A
:1011C0007F938F939F93AF93BF93EF93FF930E946F
:1011D0007C09FF91EF91BF91AF919F918F917F918A
:1011E0006F915F914F913F912F910F900FBE0F9094
:1011F0001F90189582EB90E00E949C03892B41F48C
:1012000082EB90E00E94ED03082E000C990B0895EC
:101210008FEF9FEF0895CF93DF931F92CDB7DEB787
:10122000682F8AEA90E069830E94A9036981892B6B
:10123000C1F78AEA90E00E94C103559A80E090E0ED
:101240000F90DF91CF91089582EB90E00E9496037A
:1012500010BC87E089B988EB8AB986E880BDE4E8EC
:10126000F3E08CE990E0918380839383828382EB27
:1012700090E00E9496038AEA90E00C949603CF9344
:10128000DF931F92CDB7DEB79BB199838CB19C7170
:1012900011F1898184FF08C081E095E09F938F93CD
:1012A0000E947D150F900F90898183FF08C085EE05
:1012B00094E09F938F930E947D150F900F908981EA
:1012C00082FF08C089EC94E09F938F930E947D1564
:1012D0000F900F908FEF90E00F90DF91CF910895D6
:1012E0000E943F098F3F2FEF920729F0682F82EB72
:1012F00090E00C94C10308958AEA90E00E949C0358
:10130000892B11F0559808958AEA90E00E94ED0328
:101310008CB908958091810308951092810314BCC3
:1013200089B7806889BF85B5856085BD089589B70F
:1013300019BE85B515BC10928103089588E385BD5B
:1013400087E483BD0E949709109283031092820361
:10135000089589B7881F8827881F0895909383036D
:10136000809382030895809182039091830308956E
:1013700033B599B7991F9927991F11F089B719BEED
:101380002091810384B5992319F099B7906899BF8A
:1013900090E0329F800D911D112408950F931F93AB
:1013A000CF93DF93C0918203D0918303209749F1BB
:1013B000109281030E94B8098C01FE0109950E94D8
:1013C000B809EC0180918103882329F10E949709D3
:1013D00083B51F928F939E01201B310B3F932F9358
:1013E0001F930F9387E495E09F938F930E947D1541
:1013F0008DB79EB708960FB6F8949EBF0FBE8DBFEF
:101400000AC00E9497098EE195E09F938F930E94F6
:101410007D150F900F90DF91CF911F910F9108953F
:10142000809181038F5F8093810308950E940C0354
:101430000E9424090E949E090E94470778942FEF7A
:101440008FEF90EE215080409040E1F700C0000007
:101450008CE994E09F938F930E947D150F900F90DD
:101460000E948A09882319F00E94CE09F9CF86E9E3
:1014700090E00E94B104F4CFA3E1B0E0E2E4FAE02E
:101480000C947A136C014B012A01FC01178216821D
:10149000838181FF43C3AE014F5F5F4F3A01F60185
:1014A0009381F40193FD859193FF81914F018823EE
:1014B00009F430C3853239F493FD859193FF81910E
:1014C0004F01853239F4B60190E00E944515520172
:1014D0002501E5CF10E0F12C20E02032A0F48B3282
:1014E00069F030F4803259F0833269F420612CC005
:1014F0008D3239F0803339F4216026C022602460B7
:1015000023C0286021C027FD27C030ED380F3A30B6
:1015100078F426FF06C0FAE01F9F300D1124132F28
:1015200013C04AE0F49E300D1124F32E20620CC04B
:101530008E3221F426FDEEC2206406C08C3611F4F2
:10154000206802C0883641F4F40193FD859193FF31
:1015500081914F018111C1CF9BEB980F933018F40B
:101560002061805E06C09BE9980F933008F071C13E
:101570002F7E26FF16E02F73322E853619F4206455
:10158000322E08C0863621F4F22FF0683F2E02C0BA
:101590001111115037FE07C01C3350F4EE24E394B0
:1015A000E10E27E00BC0183038F027E017E005C047
:1015B00027E04CE3E42E02C0212FE12C520144E04D
:1015C000A40EB11CF20160817181828193810E2D84
:1015D000A3010E94D3132C01098100FF02C003FF65
:1015E00007C031FC08C032FE09C030E2232E07C01C
:1015F0002DE2222E04C09BE2292E01C0212C802F37
:101600008C7019F0211068C2A8C237FE0FC0E40C1C
:1016100004FF04C08A81813309F4EA941E1474F52E
:10162000F8E0FE1578F588E0E82E2CC036FC2AC0DC
:10163000812F90E0841595059CF02CEF42162FEF3A
:10164000520674F0432D4068342E0AC0E2E0F0E008
:10165000EC0FFD1FE10FF11D8081803319F4115053
:101660001111F4CF37FE0EC0EE24E394E10E812F6A
:1016700090E0481659062CF4141904C0EE24E394A3
:1016800001C010E037FE06C01414150434F4C20182
:10169000019605C085E090E002C081E090E0211055
:1016A0000196112331F0212F30E02F5F3F4F820F41
:1016B000931F2F2D30E08217930714F4F81A01C0FE
:1016C000F12C832D897049F4FF2039F0B60180E2B6
:1016D00090E00E944515FA94F7CF222029F0B60138
:1016E000822D90E00E94451533FC09C0FF2039F09F
:1016F000B60180E390E00E944515FA94F7CF37FEDB
:101700005AC0942D852D57FE02C090E080E0292E0E
:10171000382E20E030E0A2014E1951095D874C8738
:10172000A201421953095F874E87612F70E0442759
:101730005527461B570B598B488B5FEF25163506EF
:1017400049F4B6018EE290E02A8B3B8B0E9445154E
:101750003B892A89421453046CF04C855D854215FF
:10176000530544F4EE85FF85E20FF31FE60DF71DE8
:10177000818101C080E351E0251A31082F5F3F4F7E
:1017800048895989241635064CF0B60190E02A8B19
:101790003B8B0E9445152A893B89CFCF2414350401
:1017A00039F49A81963318F4953311F404FF81E3E8
:1017B000B60190E04BC08A81813309F00F7EB601FB
:1017C00090E00E944515111105C034FC18C085E653
:1017D00090E017C0B6018EE290E00E94451582E0CD
:1017E000EE24E394E80EF301E80FF11D8081B601C9
:1017F00090E00E94451511508E2D91F7E6CF85E4BB
:1018000090E0B6010E94451557FC05C041145104F3
:1018100039F404FF05C05194419451088DE201C090
:101820008BE2B60190E00E94451580E39AE04916EC
:1018300051042CF08F5F5AE0451A5108F7CFB601DA
:1018400090E00E944515B601C201C0960E94451560
:1018500057C1833631F0833779F0833509F058C0AA
:1018600021C05201E2E0AE0EB11CF20180818983F9
:1018700001E010E0230114C05201F2E0AF0EB11CF0
:10188000F2014080518026FF03C0612F70E002C04A
:101890006FEF7FEFC2012A8B0E94F4148C012A891A
:1018A0002F7715C05201F2E0AF0EB11CF20140805B
:1018B000518026FF03C0612F70E002C06FEF7FEF01
:1018C000C2012A8B0E94C7148C012A892068322EFB
:1018D00023FD1AC08F2D90E008171907A8F4B60150
:1018E00080E290E00E944515FA94F4CFF20137FCB3
:1018F000859137FE81912F01B60190E00E94451538
:10190000F110FA94015011090115110579F7F8C089
:10191000843611F0893659F5520127FF09C0F4E0E9
:10192000AF0EB11CF20160817181828193810AC086
:10193000F2E0AF0EB11CF20160817181072E000C44
:10194000880B990B2F76322E97FF09C090958095C2
:10195000709561957F4F8F4F9F4F2068322E2AE000
:1019600030E0A3010E94D515E82EE6183FC0022FF3
:10197000853721F40F7E2AE030E01DC0097F8F36C5
:1019800091F018F4883559F0C5C0803719F08837C0
:1019900011F0C0C0006104FF09C0046007C024FF4B
:1019A00008C0066006C028E030E005C020E130E055
:1019B00002C020E132E0520107FF09C0F4E0AF0E9F
:1019C000B11CF201608171818281938108C0F2E0D3
:1019D000AF0EB11CF2016081718180E090E0A30143
:1019E0000E94D515E82EE6180F77302E36FE0BC074
:1019F000332D3E7FE11650F434FE0AC032FC08C09D
:101A0000332D3E7E05C00E2D332D03C00E2D01C09B
:101A1000012F34FF0CC0FE01EE0DF11D80818033DB
:101A200011F4397E08C032FF05C00E5F04C0832F59
:101A3000867809F00F5F33FD13C030FF06C01E2DFE
:101A40000F1518F41F0D101B0F2D0F1568F4B6019C
:101A500080E290E03B8B0E9445150F5F3B89F5CFFC
:101A60000F1510F4F01A01C0F12C34FF12C0B601AA
:101A700080E390E03B8B0E9445153B8932FF17C005
:101A800031FD03C088E790E002C088E590E0B60130
:101A90000CC0832F867859F031FF02C08BE201C061
:101AA00080E237FD8DE2B60190E00E944515E11617
:101AB00038F4B60180E390E00E9445151150F7CF4D
:101AC000EA94F301EE0DF11D8081B60190E00E94D1
:101AD0004515E110F5CF14C0F4E0FF1558F584E08A
:101AE000F81A33FE1EC0211026C003FF2AC004E5E9
:101AF00010E0F32DF0713F2EF8018491811124C084
:101B0000FF2009F4E5CCB60180E290E00E94451583
:101B1000FA94F6CFF6018681978126C08FEF9FEF6A
:101B200023C0B60180E290E00E944515FA94F110BE
:101B3000F8CFD9CFF12CB601822D90E00E94451547
:101B4000D4CF08E510E0D5CF31108052B60190E037
:101B50000E9445150F5F1F4FCFCF23E02F1510F4C4
:101B600083E0BECFF12CC1CF6396E2E10C949613D3
:101B700020FD09C0FC0123FD05C022FF02C07383C4
:101B8000628351834083089544FD10C046FD10C018
:101B9000DB01FC01AA0FBB1FEE1FFF1F1094D1F742
:101BA0006A0F7B1F8E1F9F1F31E003C033E001C00F
:101BB00034E0660F771F881F991F3150D1F7620FED
:101BC000711D811D911D08950F931F93CF93DF9376
:101BD0008C01C8010E940715EC0197FD08C00E9406
:101BE000AB14892BB1F7B801CE010E94BC15CE0110
:101BF000DF91CF911F910F910895A0E0B0E0E3E055
:101C0000FEE00C9480137C018B016A01D22F0E94AC
:101C100007159C0133272B32310521F02D32310578
:101C200059F4D0680150110911F480E069C0C7016E
:101C30000E94071597FDF9CFCD2FCD7F2D2F207353
:101C400009F58033F9F4580181E0A81AB10809F4C4
:101C500043C0C7010E94071597FD3EC0282F2F7D66
:101C6000283551F4C26402501109B1F1C7010E9434
:101C7000071597FF07C030C0D6FF02C0C26001C081
:101C8000C2618501812C912C540120ED280F283050
:101C900080F0C4FF04C0B7010E94BC151AC02A30EE
:101CA00040F0C6FFF8CF2F7D3FEE320F363098F769
:101CB00027504C2FC501B4010E94C40D4B015C019B
:101CC000C2600150110959F0C7010E94071597FF22
:101CD000DCCFC1FD04C0A9CF812C912C5401C7FFDA
:101CE00008C0B094A09490948094811C911CA11C75
:101CF000B11C2C2FB501A401C6010E94B80D81E0D2
:101D0000CDB7DEB7ECE00C949C13A0E2B0E0EBE8BA
:101D1000FEE00C947C134C015B017A018E010F5F95
:101D20001F4F680180E2F80111928A95E9F7F401EA
:101D3000638040E050E0712C412C80E0A1E0B0E0F5
:101D4000F90163FC559063FE51908F01952D9F0121
:101D5000511003C080E090E080C0FEE55F1203C038
:101D60004115510561F1682F70E0641775074CF457
:101D70006DE5561669F1EDE25E1203C0442009F1EB
:101D800003C0411001C0752C692F66956695669554
:101D9000F601E60FF11D692F67708D0102C0000F7B
:101DA000111F6A95E2F7B8017081672B6083971560
:101DB00059F0971510F49F5FE7CF9150E5CF81E080
:101DC00004C04424439401C0412C4F5F5F4FB8CFFF
:101DD000442019F09E8190629E83811103C0772474
:101DE000739418C0F6019E012F5D3F4F808180954E
:101DF0008193E217F307D1F7F2CFE114F10429F050
:101E0000F7018083C70101967C0191E0A91AB1080E
:101E1000712CE9F0C4010E94071597FD16C0282F08
:101E2000269526952695F601E20FF11D208130E0DA
:101E3000AC014770552702C0359527954A95E2F7C2
:101E400020FDDBCFB4010E94BC15711083CFE114DB
:101E5000F10411F0F7011082C801A096E0E10C94A2
:101E60009813A6E0B0E0E7E3FFE00C947A135C017E
:101E70007B011A010E9407159E838D8399278B325F
:101E8000910521F08D9789F410E801C010E021E060
:101E9000E21AF10811F480E02CC1C5010E94071577
:101EA0009E838D8397FF02C0F6CF10E08D819E81C7
:101EB0000E94B4148936910549F08E36910509F0D7
:101EC0003BC06FE9862E65E0962E04C072EA872E2D
:101ED00075E0972EEFEF8E1A9E0AF4013197049168
:101EE0000023C9F081E0E81AF10871F0C5010E94F1
:101EF00007156C0197FD08C00E94B414081751F330
:101F0000B501C6010E94BC1595EA891695E09906AF
:101F100009F0C1CF05C0F2EA8F16F5E09F0629F05F
:101F200080E090E0A0E8BFE704C080E090E0A0EC93
:101F3000BFE7BC01CD01CDC0412C512C3201C12CD9
:101F4000D12C2D8120532A3018F5012F0260812FCA
:101F5000887012FF06C0811121C02FEFC21AD20A69
:101F60001DC0882319F081E0C81AD10840E2C301DE
:101F7000B2010E94C40D2B013C0198E9491699E970
:101F80005906690699E1790648F0012F066006C0F6
:101F90002E3F91F413FD10C0012F0860E1E0EE1A0E
:101FA000F10849F0C5010E9407159E838D83102F0B
:101FB00097FFC7CF01C0102F11FF6DCF8D818F7D8F
:101FC000853409F04EC04701F1E08F1A910809F4F9
:101FD00062CFC5010E9407159E838D8397FD5BCF5D
:101FE00099278B32910519F08D9761F410614701A3
:101FF00022E0821A910809F44ECFC5010E9407150C
:102000009E838D838D819E81C0970A9708F043CF70
:102010007401812C912CB401990C880B990B2D81A2
:10202000205340E20E94C40DAB01BC014A0181E093
:10203000E81AF10871F0C50149835A836B837C83E8
:102040000E9407159E838D83C09749815A810A9704
:1020500010F314FF04C088249924841A950AC80C2C
:10206000D91CEF2841F0ED81FE81F7FD04C0B501D8
:10207000CF010E94BC15C301B2010E945712D7FEC6
:1020800008C0D194C194D1085EEB852E55E0952E01
:1020900004C046ED842E45E0942E5401F8E1AF1AB9
:1020A000B10830E2E32EF12CCE14DF0450F0F4013D
:1020B00025913591459154910E94E512CE18DF0883
:1020C000F3CF24E0821A9108F694E7948A149B04D3
:1020D00059F717FF05C0DC01CB01B058BC01CD0199
:1020E0002114310429F0F101608371838283938389
:1020F00081E02696E2E10C949613A1E0B0E0E3E8DB
:10210000F0E10C947C136C012B014A01FC01178255
:102110001682A12CF601F380F201F3FC8591F3FE07
:102120008191482F2F01882309F410C190E0498341
:102130000E94AB144981892B21F0C6010E94E40D55
:10214000E9CF453241F4F201F3FC4591F3FE4191B0
:102150002F01453269F4C60149830E940715498160
:1021600097FDF2C04817B1F2B6010E94BC15EEC04F
:102170004A3239F4F3FC4591F3FE41912F0151E0CD
:1021800001C050E0320100E010E020ED240F2A30C1
:1021900088F45260B80180E090E040E259830E94E8
:1021A000C40D8B01F301F3FC4591F3FE41913F0116
:1021B0005981EBCFB52E342F230151FF04C00115F7
:1021C000110519F4C3C00FEF1FEF483619F04C3654
:1021D00059F013C0F301F3FC3591F3FE31912F0157
:1021E000383659F45860B52EFB2DF460BF2EF2013D
:1021F000F3FC3591F3FE31912F01332309F4A6C08E
:10220000632F70E08DE895E039830E94BC1439811A
:10221000892B09F49BC0B0FC07C0F401E080F18079
:10222000C40102964C0102C0E12CF12C3E3651F45F
:10223000F6014681578160E070E02B2DC7010E94B6
:10224000B80D68CF3336A9F4B1FC02C001E010E04C
:10225000C6010E94071597FD77C0E114F10429F02B
:10226000F7018083C70101967C010150110981F7B4
:1022700067C03B3559F49201A701B801C6010E941D
:10228000850E2C01892B09F05BC055C0C60139832E
:102290000E94E40D398197FD57C03F36D9F140F4D3
:1022A0003436A1F13936C9F1383509F03DC02AC0BC
:1022B0003337A1F018F4303729F136C0353731F112
:1022C000383701F131C0E114F10429F0F7016082DF
:1022D000C70101967C010150110971F0C6010E94ED
:1022E00007153C0197FD08C00E94AB14892B59F3D8
:1022F000B601C3010E94BC15E114F10409F1F70114
:1023000010821EC0FB2DF064BF2E07C08B2D806293
:10231000B82E03C09B2D9061B92E2B2DA701B801BB
:10232000C6010E94FD0D05C0A701B801C6010E94AB
:10233000310F811105C0F6018381807329F406C035
:10234000B0FCE8CEA394E6CEAA2019F08A2D90E046
:1023500002C08FEF9FEF2196E0E10C9498130E944A
:10236000C3110C94AB120E94A41258F00E949D124B
:1023700040F029F45F3F29F00C94941251110C9411
:10238000DF120C949A120E94BC1268F39923B1F3E5
:10239000552391F3951B550BBB27AA27621773078B
:1023A000840738F09F5F5F4F220F331F441FAA1F1F
:1023B000A9F335D00E2E3AF0E0E832D091505040DB
:1023C000E695001CCAF72BD0FE2F29D0660F771F89
:1023D000881FBB1F261737074807AB07B0E809F06F
:1023E000BB0B802DBF01FF2793585F4F3AF09E3FF4
:1023F000510578F00C9494120C94DF125F3FE4F3D3
:10240000983ED4F3869577956795B795F7959F5F36
:10241000C9F7880F911D9695879597F90895E1E082
:10242000660F771F881FBB1F621773078407BA07E1
:1024300020F0621B730B840BBA0BEE1F88F7E0953C
:1024400008950E9428126894B1110C94DF12089527
:102450000E94C41288F09F5798F0B92F9927B7515E
:10246000B0F0E1F0660F771F881F991F1AF0BA9538
:10247000C9F714C0B13091F00E94DE12B1E00895A6
:102480000C94DE12672F782F8827B85F39F0B93F98
:10249000CCF3869577956795B395D9F73EF49095EB
:1024A0008095709561957F4F8F4F9F4F0895E89469
:1024B00009C097FB3EF490958095709561957F4F8C
:1024C0008F4F9F4F9923A9F0F92F96E9BB2793953A
:1024D000F695879577956795B795F111F8CFFAF44A
:1024E000BB0F11F460FF1BC06F5F7F4F8F4F9F4F7B
:1024F00016C0882311F096E911C0772321F09EE8D9
:10250000872F762F05C0662371F096E8862F70E03E
:1025100060E02AF09A95660F771F881FDAF7880F18
:102520009695879597F9089597F99F6780E870E0E9
:1025300060E008959FEF80EC089500240A94161639
:10254000170618060906089500240A9412161306A1
:10255000140605060895092E0394000C11F488232F
:1025600052F0BB0F40F4BF2B11F460FF04C06F5F4B
:102570007F4F8F4F9F4F089557FD9058440F551F21
:1025800059F05F3F71F04795880F97FB991F61F0F5
:102590009F3F79F087950895121613061406551F6C
:1025A000F2CF4695F1DF08C0161617061806991FD8
:1025B000F1CF86957105610508940895E894BB27CD
:1025C00066277727CB0197F908950E94F8120C949B
:1025D000AB120E949D1238F00E94A41220F09523A5
:1025E00011F00C9494120C949A1211240C94DF1292
:1025F0000E94BC1270F3959FC1F3950F50E0551FD8
:10260000629FF001729FBB27F00DB11D639FAA2747
:10261000F00DB11DAA1F649F6627B00DA11D661F96
:10262000829F2227B00DA11D621F739FB00DA11DB7
:10263000621F839FA00D611D221F749F3327A00D71
:10264000611D231F849F600D211D822F762F6A2F0D
:1026500011249F5750409AF0F1F088234AF0EE0F72
:10266000FF1FBB1F661F771F881F91505040A9F79F
:102670009E3F510580F00C9494120C94DF125F3F42
:10268000E4F3983ED4F3869577956795B795F795DB
:10269000E7959F5FC1F7FE2B880F911D9695879553
:1026A00097F90895AA1BBB1B51E107C0AA1FBB1FC6
:1026B000A617B70710F0A61BB70B881F991F5A95CE
:1026C000A9F780959095BC01CD01089597FB072E41
:1026D00016F4009407D077FD09D00E94521307FC2E
:1026E00005D03EF4909581959F4F08957095619522
:1026F0007F4F08952F923F924F925F926F927F92F9
:102700008F929F92AF92BF92CF92DF92EF92FF9201
:102710000F931F93CF93DF93CDB7DEB7CA1BDB0BAD
:102720000FB6F894DEBF0FBECDBF09942A88398852
:1027300048885F846E847D848C849B84AA84B98459
:10274000C884DF80EE80FD800C811B81AA81B98165
:10275000CE0FD11D0FB6F894DEBF0FBECDBFED0179
:102760000895662777270C943316FC01882799274C
:10277000E89421912032E9F3293010F02E30C8F38B
:102780002B3241F02D3239F4689404C00E94FF14BA
:10279000820F911D219120532A30C0F31EF4909591
:1027A00081959F4F0895283008F027E03327DA01FC
:1027B000990F311D87FD916000966105710539F40F
:1027C00032602E5F3D9330E32A95E1F708959F3FF5
:1027D00030F080387105610509F03C5F3C5F3D9346
:1027E000913008F08068911DDF93CF931F930F9372
:1027F000FF92EF92192F987F9695E92F96959695CF
:10280000E90FFF27EA54FF4F99273327EE24FF24CF
:10281000A701E70105900894079428F4360FE71EF6
:10282000F81E491F511D660F771F881F991F0694B8
:10283000A1F70590079428F4E70EF81E491F561FCC
:10284000C11D770F881F991F661F0694A1F7059079
:10285000079428F4F80E491F561FC71FD11D880F73
:10286000991F661F771F0694A1F70590079420F41F
:10287000490F561FC71FD81F990F661F771F881F44
:102880000694A9F784911095177041F0D695C795D5
:1028900057954795F794E7941A95C1F7ECE5F0E062
:1028A00068941590159135916591959105907FE209
:1028B0007395E118F10A430B560BC90BD009C0F709
:1028C000E10CF11E431F561FC91FD01D7EF470334B
:1028D00011F48A95E6CFE894015030F0080F0AF41D
:1028E0000027021708F4202F2395022F7A3328F0AF
:1028F00079E37D932A95E9F710C07D932A9589F6AF
:10290000069497956795379517951794E118F10AEE
:10291000430B560BC90BD00998F023957E91739504
:102920007A3308F070E37C932013B8F77E917061DE
:102930007D9330F0839571E37D9370E32A95E1F701
:102940001124EF90FF900F911F91CF91DF91992764
:1029500087FD9095089591110C949017803219F08D
:1029600089508550C8F708959111089581548A516E
:1029700008F4805E855A0895FC010590061621F042
:102980000020D9F7C00108953197CF010895FC01C7
:102990000590615070400110D8F7809590958E0F8A
:1029A0009F1F0895FC018191861721F08823D9F794
:1029B000992708953197CF010895FB01DC018D918E
:1029C000019080190110D9F3990B0895FB01DC01E6
:1029D0004150504030F08D910190801919F4002041
:1029E000B9F7881B990B0895FC0161507040019064
:1029F0000110D8F7809590958E0F9F1F08957AE06B
:102A0000979F902D879F802D910D11240895CF932E
:102A1000DF93EC012B8120FF33C026FF0AC02F7B00
:102A20002B838E819F8101969F838E838A8190E084
:102A300029C022FF0FC0E881F9818081082E000C97
:102A4000990B009719F420622B831AC03196F983F1
:102A5000E8830EC0EA85FB85099597FF09C02B81A5
:102A6000019611F080E201C080E1822B8B8308C0C7
:102A70002E813F812F5F3F4F3F832E83992702C0D6
:102A80008FEF9FEFDF91CF9108950F931F93CF9317
:102A9000DF93FB01238121FD03C08FEF9FEF28C04F
:102AA00022FF16C046815781248135814217530782
:102AB00044F4A081B1819D012F5F3F4F318320837A
:102AC0008C93268137812F5F3F4F3783268310C039
:102AD000EB01092F182F0084F185E02D0995892B32
:102AE000E1F68E819F8101969F838E83812F902FA7
:102AF000DF91CF911F910F910895A0E0B0E0E3E83E
:102B0000F5E10C948813AE01495F5F4FDA016D91D6
:102B10007D91AD0104E813E0F80182819381DC012D
:102B200013962C911397286013962C930E943C0ABD
:102B3000D8011296ED91FC9113972381277F23836F
:102B4000E4E00C94A413AEE0B0E0E9EAF5E10C9403
:102B50008A1385E08C838B899C899A838983AE0153
:102B6000495E5F4F6D897E89CE0101960E947D107E
:102B70002E96E2E00C94A613FB01238120FF12C0E5
:102B800026FD10C08F3F3FEF930761F082832F7DBA
:102B9000206423832681378121503109378326839E
:102BA000992708958FEF9FEF0895FA01AA272830FB
:102BB00051F1203181F1E8946F936E7F6E5F7F4F0A
:102BC0008F4F9F4FAF4FB1E03ED0B4E03CD0670F86
:102BD000781F891F9A1FA11D680F791F8A1F911DD9
:102BE000A11D6A0F711D811D911DA11D20D009F429
:102BF00068943F912AE0269F11243019305D31936B
:102C0000DEF6CF010895462F4770405D4193B3E053
:102C10000FD0C9F7F6CF462F4F70405D4A3318F0FA
:102C2000495D31FD4052419302D0A9F7EACFB4E0AB
:102C3000A6959795879577956795BA95C9F7009763
:102C40006105710508959B01AC010A2E0694579504
:102C5000479537952795BA95C9F7620F731F841F5B
:102C6000951FA01D0895A0E0B0E0E9E3F6E10C9403
:102C70007E13EC017B016115710519F0DB018D9369
:102C80009C938E010F5F1F4F7880872D90E00E94EC
:102C9000AB14892B11F0E801F4CFBDE27B1205C023
:102CA0000F5F1F4F7980C1E008C0EBE27E1204C0C5
:102CB0008E010E5F1F4F7980C0E06801F1E0CF1AEE
:102CC000D10843E050E06EE571E0C6010E94931721
:102CD000892BF1F4680122E0C20ED11C45E050E0DE
:102CE00069E571E0C6010E949317892B21F4680100
:102CF00087E0C80ED11CE114F10419F0D701CD9280
:102D0000DC92C111FFC060E070E080E89FE703C182
:102D100043E050E066E571E0C6010E949317892BFD
:102D200051F4E114F10409F4F2C00E5F1F4FF701F2
:102D300011830083ECC0680160E070E0CB0100E02B
:102D400010E0F601D0EDD70DDA3058F52C2F2260C7
:102D5000622E2C2F2870C2FF05C0211128C00F5FE2
:102D60001F4F25C0222311F001501109A5E0B0E04A
:102D70009B01AC010E94D4174B015C01880C991C8B
:102D8000AA1CBB1CC501B4016D0F711D811D911DD5
:102D90006839A9E97A078A07A9E19A0740F0C6606D
:102DA00005C0DE3F51F4C3FD44C0C8606C2EBFEFC8
:102DB000CB1ADB0A7080C62DC4CF2D2F2F7D253175
:102DC000C1F540814D3211F4C06106C04B3221F093
:102DD000319621E030E006C03296D60111964C9132
:102DE00022E030E0A0EDA40FAA3018F0E21BF30BB4
:102DF00020C040E050E04038BCE05B075CF49A0142
:102E0000220F331F220F331F420F531F440F551F32
:102E10004A0F511D3196DF0111972C91A0EDA20FA1
:102E2000AA3048F3C4FF03C0519541955109040FDE
:102E3000151FC1FF07C0E114F10421F03197D7013C
:102E4000ED93FC930E945712C370C33019F06B01CD
:102E50007C0106C06B017C01F7FAF094F7F8F0945E
:102E600020E030E0A901C701B6010E94AB1788231A
:102E700009F445C017FF06C0119501951109C5E772
:102E8000D1E002C0CDE8D1E05E01B8E1AB1AB108F3
:102E90004601BE2DAF2D90E2E92EF12C0E151F0537
:102EA00084F0FE012591359145915491B4018B2F09
:102EB0009A2F0E94E5124B01B82FA92F0E191F0956
:102EC000EDCF2497F594E794CA15DB0539F7640133
:102ED000EB2EFA2E8E2D880F8F2D881F8F3F49F0F5
:102EE00020E030E0A901C701B6010E94AB178111B3
:102EF00006C082E290E090938B0380938A03C7011F
:102F0000B60109C060E070E080E89FEF04C060E0B7
:102F100070E080EC9FE7CDB7DEB7EEE00C949A133B
:102F2000992788270895FB01DC014150504088F023
:102F30008D9181341CF08B350CF4805E6591613489
:102F40001CF06B350CF4605E861B611171F3990BFC
:102F50000895881BFCCF0E94B01708F481E0089503
:102F6000990F0008550FAA0BE0E8FEEF161617069A
:102F7000E807F907C0F012161306E407F50798F002
:102F8000621B730B840B950B39F40A2661F0232B1B
:102F9000242B252B21F408950A2609F4A140A69597
:102FA0008FEF811D811D08950E94DF17A59F900D51
:102FB000B49F900DA49F800D911D11240895A29F90
:102FC000B001B39FC001A39F700D811D1124911DFD
:102FD000B29F700D811D1124911D0895F894FFCFAB
:102FE0003401EA043401CF00F704D400E700C0053F
:102FF000EB0003013C051101350171054301590145
:103000008C0566017701A7057F01A701E804B401DB
:1030100014006400640000005000F101000000038F
:10302000000000000B09FA08000000000000000189
:1030300041020000000040004103C800F5AD003D22
:103040005839B43D9001726573657400257300684A
:10305000656C7000476976657320616C6C20636FE6
:103060006D6D616E647300656E63004765747320F7
:10307000616E64207365747320656E632076616C85
:103080007565006D6F76655F7365745F64697374F1
:10309000006D6F76655F7365745F64697374204457
:1030A000697374616E63655F6D6D205B73746570C9
:1030B0007065725D006D6F76655F7365745F7469CE
:1030C0006D65006D6F76655F7365745F74696D65BE
:1030D000207365636F6E6473007365745F76656CEF
:1030E0006F63697479007365745F76656C6F63698B
:1030F0007479206D2F73007365745F646972007357
:1031000065745F646972205B666F72776172647365
:103110007C6261636B77617264737C6C6566747CDE
:1031200072696768745D0074657374696E675F7354
:103130006869740072756E732061207374657070B5
:103140006572207465737420737569746500666FA9
:10315000727761726473006261636B77617264732A
:0C316000006C656674007269676874009A
:00000001FF
