:100000000C9422050C9449080C946D080C943F053F
:100010000C943F050C943F050C943F050C943F0550
:100020000C943F050C943F050C943F050C943F0540
:100030000C943F050C9491080C94B5080C943F0562
:100040000C943F050C943F050C943F050C943F0520
:100050000C943F056E616E00696E660000407A1078
:10006000F35A00A0724E18090010A5D4E80000E869
:100070007648170000E40B54020000CA9A3B0000C7
:1000800000E1F505000080969800000040420F0056
:100090000000A08601000000102700000000E80317
:1000A000000000006400000000000A0000000000E2
:1000B0000100000000002C76D888DC674F0823DFA1
:1000C000C1DFAE59E1B1B796E5E3E453C63AE65174
:1000D000997696E8E6C28426EB898C9B62ED407C9B
:1000E0006FFCEFBC9C9F40F2BAA56FA5F490055A37
:1000F0002AF75C936B6CF9676DC11BFCE0E40D475C
:10010000FEF520E6B500D0ED902E0300943577057E
:100110000080841E080000204E0A000000C80C3336
:100120003333330F986E12831141EF8D2114893BC5
:10013000E65516CFFEE6DB18D1844B381BF77C1D45
:10014000901DA4BBE424203284725E228100C9F198
:1001500024ECA1E53D272A2A2A204D617820636FEF
:100160006D6D616E64206C656E6774682065786380
:100170006565646564202A2A2A0A0050696E206336
:100180006F6E66696775726174696F6E3A0A0A20EC
:10019000202020202020202020202020202020205F
:1001A00020202020202020202020202020202E2D34
:1001B0002D2D2D2E202C2D2D2D2D2E0A20202020D2
:1001C000202020202020203A202020202858434B87
:1001D0002F543029504230203C2D3E7C31202020AD
:1001E000202220202034307C3C2D2D2050413028EE
:1001F000414443302920203A20506F74656E746961
:100200006F6D657465720A20202020202020202038
:1002100020203A202020202020202028543129503E
:100220004231203C2D3E7C322020202020202020E6
:1002300033397C3C2D3E2050413128414443312903
:1002400020203A0A20202020202020202020203A90
:100250002028494E54322F41494E302950423220F5
:100260003C2D3E7C33202020202020202033387C51
:100270003C2D3E2050413228414443322920203A2F
:100280000A202020202020214C4544203A202028EC
:100290004F43302F41494E3129504233203C2D2DC0
:1002A0007C34202020204120202033377C3C2D3EF0
:1002B0002050413328414443332920203A0A20204A
:1002C0002020202020202020203A20202020202014
:1002D000202821535329504234203C2D3E7C352088
:1002E0002020205420202033367C3C2D3E205041BD
:1002F0003428414443342920203A0A202020202059
:100300002020202020203A202020202020284D4F6F
:10031000534929504235203C2D3E7C362020202058
:100320004D20202033357C3C2D3E20504135284146
:100330004443352920203A0A202020202020202054
:100340002020203A202020202020284D49534F29CA
:10035000504236203C2D3E7C372020202045202056
:100360002033347C3C2D3E205041362841444336D6
:100370002920203A0A202020202020202020202070
:100380003A202020202020202853434B2950423758
:10039000203C2D3E7C38202020204C202020333350
:1003A0007C3C2D3E205041372841444337292020B2
:1003B0003A0A202020202020202020202020202039
:1003C00020202020202020215245534554202D2D2F
:1003D0003E7C39202020202020202033327C3C2DE0
:1003E0002D20415245460A20202020202020202078
:1003F00020202020202020202020202020202056C7
:100400004343202D2D2D7C313020202041202020E1
:1004100033317C2D2D2D20474E440A2020202020D2
:1004200020202020202020202020202020202020CC
:10043000202020474E44202D2D2D7C31312020209E
:100440005420202033307C2D2D2D20415643430A4B
:10045000202020202020202020202020202020209C
:100460002020202020205854414C32203C2D2D7C2F
:1004700031322020206D20202032397C3C2D3E203E
:1004800050433728544F53433229203A0A20202022
:10049000202020202020202020202020202020205C
:1004A0002020205854414C31202D2D3E7C313320CA
:1004B00020206520202032387C3C2D3E20504336C1
:1004C00028544F53433129203A0A202052533233C3
:1004D00032205258203A2020202020202028525814
:1004E0004429504430202D2D3E7C3134202020677B
:1004F00020202032377C3C2D3E2050433528544468
:1005000049292020203A0A202052533233322054E5
:1005100058203A20202020202020285458442950B8
:100520004431203C2D2D7C3135202020612020209D
:1005300032367C3C2D3E205043342854444F2920F1
:1005400020203A0A20456E636F6465722041203A8C
:1005500020202020202028494E5430295044322089
:100560002D2D3E7C31362020203320202032357C3A
:100570003C2D3E2050433328544D53292020203A0F
:100580000A20456E636F6465722042203A20202065
:1005900020202028494E543129504433202D2D3E0F
:1005A0007C31372020203220202032347C3C2D2DFD
:1005B000205043322854434B292020203A204254D3
:1005C0004C445220627574746F6E0A2020202020E3
:1005D0002020202020203A202020202020284F43A7
:1005E000314229504434203C2D3E7C31382020209B
:1005F0002020202032337C3C2D3E20504331285394
:100600004441292020203A0A202020202020202098
:100610002020203A202020202020284F433141292B
:10062000504435203C2D3E7C313920202020202094
:100630002032327C3C2D3E205043302853434C29FD
:100640002020203A0A2020202020202020202020A6
:100650003A20202020202028494350312950443678
:10066000203C2D3E7C3230202020202020203231A2
:100670007C3C2D3E20504437284F433229202020F7
:100680003A0A202020202020202020202020202066
:10069000202020202020202020202020202020205A
:1006A00020602D2D2D2D2D2D2D2D2D2D2D270A00AA
:1006B000417661696C61626C6520636F6D6D616E1E
:1006C00064733A0A2020202068656C702020202066
:1006D000202020202020202020202020202020201A
:1006E0002020205072696E742074686973206865D8
:1006F0006C70206D6573736167650A20202020701F
:100700006F74202020202020202020202020202046
:100710002020202020202020202047657420706F7A
:1007200074656E74696F6D65746572204144432011
:1007300076616C75652028302D31303233290A20DE
:10074000202020656E63205B72657365745D2020D8
:10075000202020202020202020202020202047652D
:1007600074206F7220726573657420656E636F64A8
:10077000657220636F756E740A202020206C65649A
:10078000205B6F6E7C6F66667C3C76616C75653E47
:100790005D20202020202020476574206F72207368
:1007A0006574204C4544206272696768746E657395
:1007B000732028302D323535290A0A000A000A0A2A
:1007C000004C4544206272696768746E65737320DB
:1007D00069732025750A006C6564006C65643A20B5
:1007E000696E76616C696420617267756D656E749F
:1007F00020222573222C2073796E7461782069730E
:100800003A206C6564205B6F6E7C6F66667C3C761C
:10081000616C75653E5D0A004C45442062726967F3
:1008200068746E6573732073657420746F2025750A
:100830000A004C4544206272696768746E65737380
:100840002069732025750A006C656420004C4544BE
:10085000206973206F66660A006C6564206F6666A7
:10086000004C4544206973206F6E0A006C6564205B
:100870006F6E00456E636F64657220636F756E7492
:1008800020726573657420746F20300A00656E6392
:1008900020726573657400456E636F6465722063D2
:1008A0006F756E7420697320256C640A00656E6331
:1008B00000506F74656E74696F6D65746572204168
:1008C00044432076616C75652069732025750A00A4
:1008D000706F740068656C70004552524F523A2038
:1008E000547269656420746F207061727365204E64
:1008F000554C4C20636F6D6D616E6420706F696E36
:100900007465720A000A433332303632343620427C
:1009100055494C4420444154453A204F637420319A
:100920003420323031372032303A31323A30370ADF
:100930000A002A2A2A205541525420706172697493
:1009400079206572726F7221202A2A2A0A002A2AC7
:100950002A20554152542064617461206F7665727B
:1009600072756E21202A2A2A0A002A2A2A20554135
:100970005254206672616D696E67206572726F7283
:1009800021202A2A2A0A002A2A2A205461736B204D
:1009900063616C6C65642077697468204E554C4CBB
:1009A0002063616C6C6261636B21202A2A2A0A0031
:1009B0002A2A2A205461736B20696E636F6D706CF4
:1009C000657465206265666F7265206E6578742057
:1009D0007472696767657221205B7461722F647538
:1009E000722F6D61783A2025752F25752F25755D3D
:1009F000202A2A2A0A006364696E6F70737578581A
:100A00005B65666745464700616E006E66696E69A4
:100A1000747900CDCCCC3D0AD7233C17B7D13877B9
:100A2000CC2B329595E6241FB14F0A0000204100DF
:100A300000C84200401C4620BCBE4CCA1B0E5AAE29
:100A4000C59D740011241FBECFE5D8E0DEBFCDBF29
:100A500010E0A0E6B0E0E6EFFAE202C005900D92E9
:100A6000AC39B107D9F722E0ACE9B0E001C01D9282
:100A7000AB33B207E1F70E94F5090C9479150C9499
:100A800000008CE783BF8FEF8CBF08958FEF8CBF82
:100A900008951CBE08958CBF08958CB7089585B73E
:100AA000856085BF10929C0010929D0010929E0060
:100AB00010929F0080EC8BBF089530B320B332FBBF
:100AC000332730F981E0382723FB222720F9809152
:100AD0009C0090919D00A0919E00B0919F003217C4
:100AE00021F00196A11DB11D03C00197A109B10913
:100AF00080939C0090939D00A0939E00B0939F00D4
:100B0000089530B320B332FB332730F981E0382722
:100B100023FB222720F980919C0090919D00A091B9
:100B20009E00B0919F00321721F00197A109B109F1
:100B300003C00196A11DB11D80939C0090939D0060
:100B4000A0939E00B0939F0008952BB72F732BBFE7
:100B500060939C0070939D0080939E0090939F00F3
:100B600080EC8BBF08958BB78F738BBF60919C0017
:100B700070919D0080919E0090919F0020EC2BBF72
:100B800008958BB78F738BBF60919C0070919D000F
:100B900080919E0090919F0010929C0010929D0069
:100BA00010929E0010929F0020EC2BBF089586E8C3
:100BB00086B980E487B90895369A86B184B195B133
:100BC0000895FC0111821082138212820895FC01A3
:100BD000408151812281338181E090E042175307A7
:100BE00011F080E090E00895CF93DF93FC01208125
:100BF0003181C281D381C9010196648175810E94CE
:100C0000B9129C0181E090E02C173D0711F080E0C3
:100C100090E0DF91CF9108950F931F93CF93DF93CF
:100C20001F92CDB7DEB78C0169830E94F4056981FC
:100C3000892BC1F4D8018D919C9111971696ED9155
:100C4000FC911797E80FF91F60838D919C91119784
:100C5000019614966D917C9115970E94B912F80136
:100C6000918380830F90DF91CF911F910F91089511
:100C7000FC0120813181828193812817390791F00D
:100C800082819381A681B781A80FB91F2C9182819F
:100C900093810196648175810E94B9129383828346
:100CA000822F089580E00895FC0184819581019749
:100CB0000895DC0111961C921E921496ED91FC9100
:100CC000159710820895FC0181E020813181232B4A
:100CD00009F080E00895FC0181E04081518122818A
:100CE00033814217530708F480E00895FC01208106
:100CF00031812115310521F02150310931832083C3
:100D00000895DC012D913C9111972115310559F081
:100D10001496ED91FC9115972E0F3F1FF901319715
:100D200081E09081911180E081700895DC012D9126
:100D30003C91119712964D915C91139724173507AA
:100D400078F4FC0144815581F9013196ED93FC93CF
:100D5000FA01E20FF31F60830E94810690E008957C
:100D60008FEF9FEF0895683019F40E9476060CC04B
:100D70006D3051F06A3031F4FC0120813181232B38
:100D800019F060E00C94960680E090E008950F93CF
:100D90001F93CF93DF938C01EB0180E090E069918A
:100DA000662329F0C8010E94B30697FFF8CFDF91B0
:100DB000CF911F910F9108950F931F93CF93DF93BE
:100DC0008C01EB010E948106882359F0F801808193
:100DD0009181C817D90728F4848195818C0F9D1FB4
:100DE00002C080E090E0DF91CF911F910F910895B4
:100DF00060E070E00C94DC060F931F93CF93DF93B9
:100E0000EC0106E511E080913502909136020E94D6
:100E10004D148F3F2FEF920709F1682FCE010E94EA
:100E2000B3068F3F2FEF920769F0019761F7CE016C
:100E30000E94F8060E94330719821882EC81FD8116
:100E40001082E1CF1F930F930E94D9141982188248
:100E5000EC81FD8110820F900F90D5CFDF91CF9163
:100E60001F910F910895CF92DF92EF92FF920F930F
:100E70001F93CF93DF93EC01892B19F489ED98E050
:100E800086C08881882309F4F5C044E050E064ED11
:100E900078E0CE010E941614892B09F58EEB97E0BD
:100EA0009F938F930E94D9148BE791E09F938F9328
:100EB0000E94D9148CEB97E09F938F930E94D914D2
:100EC00080EB96E09F938F930E94D9148DB79EB7C5
:100ED00008960FB6F8949EBF0FBE8DBFCBC043E0FF
:100EE00050E060ED78E0CE010E941614892B39F4B1
:100EF0000E94DC059F938F9381EB98E0AAC043E0AA
:100F000050E06DEA78E0CE010E941614892B99F426
:100F10000E94B3059F938F937F936F9387E998E027
:100F20009F938F930E94D9140F900F900F900F9062
:100F30000F900F909FC049E050E06DE878E0CE013F
:100F40000E941614892B41F460E070E0CB010E94EE
:100F5000A50583E798E01BC046E050E06CE678E02A
:100F6000CE010E941614892B29F40E94460581E6C1
:100F700098E00DC047E050E069E578E0CE010E94BE
:100F80001614892B59F40E9449058DE498E09F932B
:100F90008F930E94D9140F900F906CC044E050E0E2
:100FA00068E478E0CE010E941614892B09F042C053
:100FB0007E0194E0E90EF11CC7010E9404136C014C
:100FC0006DE270E0C7010E942F14892B11F4860195
:100FD00002C000E010E08C8181110EC00E944D051E
:100FE0001F928F9382E398E09F938F930E94D9146E
:100FF0000F900F900F900F900F3F110510F00FEF13
:1010000010E0802F0E944B051F930F9388E198E01A
:101010009F938F930E94D91498819F7D92540F9033
:101020000F900F900F90983128F5FF92EF928BED73
:1010300097E00FC043E050E067ED77E0CE010E94FB
:101040001614892B59F40E944D051F928F9381EC41
:1010500097E09F938F930E94D91408C0DF93CF939A
:1010600084E890E09F938F930E94C3140F900F9099
:101070000F900F90DF91CF911F910F91FF90EF9004
:10108000DF90CF90089508959093A1008093A000E1
:1010900008951F920F920FB60F9211242F933F9332
:1010A0004F935F936F937F938F939F93AF93BF9370
:1010B000EF93FF930E945D05FF91EF91BF91AF9178
:1010C0009F918F917F916F915F914F913F912F9160
:1010D0000F900FBE0F901F9018951F920F920FB692
:1010E0000F9211242F933F934F935F936F937F93AE
:1010F0008F939F93AF93BF93EF93FF930E948105CC
:10110000FF91EF91BF91AF919F918F917F916F91DF
:101110005F914F913F912F910F900FBE0F901F90B5
:1011200018951F920F920FB60F9211242F933F9391
:101130004F935F936F937F938F939F93AF93BF93DF
:10114000EF93FF930E944F09FF91EF91BF91AF91F1
:101150009F918F917F916F915F914F913F912F91CF
:101160000F900FBE0F901F9018951F920F920FB601
:101170000F9211242F933F934F935F936F937F931D
:101180008F939F93AF93BF93EF93FF930E945B095D
:10119000FF91EF91BF91AF919F918F917F916F914F
:1011A0005F914F913F912F910F900FBE0F901F9025
:1011B00018958CE790E00E94E705892B41F48CE7B5
:1011C00090E00E943806082E000C990B08958FEFCE
:1011D0009FEF0895CF93DF931F92CDB7DEB7682FAF
:1011E00084E790E069830E94F4056981892BC1F747
:1011F00084E790E00E940C06559A80E090E00F9002
:10120000DF91CF9108958CE790E00E94E10510BC3A
:1012100087E089B988EB8AB986E880BDE5E3F2E02A
:1012200086E690E091838083938382838CE790E0CD
:101230000E94E10584E790E00C94E105CF93DF93F1
:101240001F92CDB7DEB79BB199838CB19C7111F120
:10125000898184FF08C08AE699E09F938F930E945A
:10126000D9140F900F90898183FF08C08EE499E014
:101270009F938F930E94D9140F900F90898182FFC2
:1012800008C082E399E09F938F930E94D9140F9036
:101290000F908FEF90E00F90DF91CF9108950E9413
:1012A0001E098F3F2FEF920729F0682F8CE790E0FF
:1012B0000C940C06089584E790E00E94E705892BC2
:1012C00011F05598089584E790E00E9438068CB993
:1012D00008958091320208951092320214BC89B7A9
:1012E000806889BF85B5856085BD089589B719BEB9
:1012F00085B515BC10923202089588E385BD87E458
:1013000083BD0E9476091092340210923302089530
:1013100089B7881F8827881F089590933402809387
:10132000330208958091330290913402089533B5C9
:1013300099B7991F9927991F11F089B719BE209164
:10134000320284B5992319F099B7906899BF90E05B
:10135000329F800D911D112408950F931F93CF93F9
:10136000DF93C0913302D0913402209749F110925B
:1013700032020E9497098C01FE0109950E9497098B
:10138000EC0180913202882329F10E94760983B50D
:101390001F928F939E01201B310B3F932F931F931E
:1013A0000F9380EB99E09F938F930E94D9148DB790
:1013B0009EB708960FB6F8949EBF0FBE8DBF0AC0A9
:1013C0000E94760987E899E09F938F930E94D91431
:1013D0000F900F90DF91CF911F910F910895809101
:1013E00032028F5F8093320208950E9441050E946D
:1013F0004F050E94D7050E9403090E947D09789439
:101400002FEF8FEF98E0215080409040E1F700C02F
:1014100000000E9446052FEF8FEF98E0215080409A
:101420009040E1F700C000000E9449052FEF8FEFC8
:1014300098E0215080409040E1F700C000000E94F9
:1014400046052FEF8FEF98E0215080409040E1F764
:1014500000C000000E9449052FEF8FEF98E0215057
:1014600080409040E1F700C000000E94460585E002
:1014700099E09F938F930E94D9140F900F900E9430
:101480006909882319F00E94AD09F9CF80E690E040
:101490000E94FC06F4CFA3E1B0E0E1E5FAE00C9491
:1014A000CD126C014B012A01FC0117821682838147
:1014B00081FF43C3AE014F5F5F4F3A01F601938155
:1014C000F40193FD859193FF81914F01882309F4E5
:1014D00030C3853239F493FD859193FF81914F019B
:1014E000853239F4B60190E00E948B145201250137
:1014F000E5CF10E0F12C20E02032A0F48B3269F02F
:1015000030F4803259F0833269F420612CC08D327E
:1015100039F0803339F4216026C02260246023C072
:10152000286021C027FD27C030ED380F3A3078F40D
:1015300026FF06C0FAE01F9F300D1124132F13C0A1
:101540004AE0F49E300D1124F32E20620CC08E323E
:1015500021F426FDEEC2206406C08C3611F420680A
:1015600002C0883641F4F40193FD859193FF819187
:101570004F018111C1CF9BEB980F933018F420617C
:10158000805E06C09BE9980F933008F071C12F7EF2
:1015900026FF16E02F73322E853619F42064322E82
:1015A00008C0863621F4F22FF0683F2E02C01111D8
:1015B000115037FE07C01C3350F4EE24E394E10EC3
:1015C00027E00BC0183038F027E017E005C027E00F
:1015D0004CE3E42E02C0212FE12C520144E0A40E82
:1015E000B11CF20160817181828193810E2DA30172
:1015F0000E9422132C01098100FF02C003FF07C0D3
:1016000031FC08C032FE09C030E2232E07C02DE2B3
:10161000222E04C09BE2292E01C0212C802F8C7029
:1016200019F0211068C2A8C237FE0FC0E40C04FFF5
:1016300004C08A81813309F4EA941E1474F5F8E039
:10164000FE1578F588E0E82E2CC036FC2AC0812FE4
:1016500090E0841595059CF02CEF42162FEF520672
:1016600074F0432D4068342E0AC0E2E0F0E0EC0F45
:10167000FD1FE10FF11D8081803319F4115011110C
:10168000F4CF37FE0EC0EE24E394E10E812F90E0FC
:10169000481659062CF4141904C0EE24E39401C032
:1016A00010E037FE06C01414150434F4C20101968C
:1016B00005C085E090E002C081E090E02110019635
:1016C000112331F0212F30E02F5F3F4F820F931F06
:1016D0002F2D30E08217930714F4F81A01C0F12C73
:1016E000832D897049F4FF2039F0B60180E290E043
:1016F0000E948B14FA94F7CF222029F0B601822D94
:1017000090E00E948B1433FC09C0FF2039F0B60131
:1017100080E390E00E948B14FA94F7CF37FE5AC012
:10172000942D852D57FE02C090E080E0292E382EA2
:1017300020E030E0A2014E1951095D874C87A201DB
:10174000421953095F874E87612F70E04427552760
:10175000461B570B598B488B5FEF2516350649F40E
:10176000B6018EE290E02A8B3B8B0E948B143B8962
:101770002A89421453046CF04C855D85421553054B
:1017800044F4EE85FF85E20FF31FE60DF71D81811E
:1017900001C080E351E0251A31082F5F3F4F48898F
:1017A0005989241635064CF0B60190E02A8B3B8B04
:1017B0000E948B142A893B89CFCF2414350439F435
:1017C0009A81963318F4953311F404FF81E3B6013E
:1017D00090E04BC08A81813309F00F7EB60190E022
:1017E0000E948B14111105C034FC18C085E690E0EE
:1017F00017C0B6018EE290E00E948B1482E0EE24C6
:10180000E394E80EF301E80FF11D8081B60190E04A
:101810000E948B1411508E2D91F7E6CF85E490E055
:10182000B6010E948B1457FC05C04114510439F4D1
:1018300004FF05C05194419451088DE201C08BE230
:10184000B60190E00E948B1480E39AE0491651049F
:101850002CF08F5F5AE0451A5108F7CFB60190E09F
:101860000E948B14B601C201C0960E948B1457C10E
:10187000833631F0833779F0833509F058C021C0C1
:101880005201E2E0AE0EB11CF2018081898301E0D9
:1018900010E0230114C05201F2E0AF0EB11CF201BE
:1018A0004080518026FF03C0612F70E002C06FEFBF
:1018B0007FEFC2012A8B0E943A148C012A892F776C
:1018C00015C05201F2E0AF0EB11CF2014080518010
:1018D00026FF03C0612F70E002C06FEF7FEFC201EF
:1018E0002A8B0E9424148C012A892068322E23FD21
:1018F0001AC08F2D90E008171907A8F4B60180E2EE
:1019000090E00E948B14FA94F4CFF20137FC859199
:1019100037FE81912F01B60190E00E948B14F110E7
:10192000FA94015011090115110579F7F8C08436B0
:1019300011F0893659F5520127FF09C0F4E0AF0EC6
:10194000B11CF20160817181828193810AC0F2E051
:10195000AF0EB11CF20160817181072E000C880B63
:10196000990B2F76322E97FF09C090958095709530
:1019700061957F4F8F4F9F4F2068322E2AE030E0D5
:10198000A3010E941815E82EE6183FC0022F8537E4
:1019900021F40F7E2AE030E01DC0097F8F3691F0E0
:1019A00018F4883559F0C5C0803719F0883711F020
:1019B000C0C0006104FF09C0046007C024FF08C064
:1019C000066006C028E030E005C020E130E002C03B
:1019D00020E132E0520107FF09C0F4E0AF0EB11C74
:1019E000F201608171818281938108C0F2E0AF0EC3
:1019F000B11CF2016081718180E090E0A3010E943E
:101A00001815E82EE6180F77302E36FE0BC0332D52
:101A10003E7FE11650F434FE0AC032FC08C0332D7C
:101A20003E7E05C00E2D332D03C00E2D01C0012FAB
:101A300034FF0CC0FE01EE0DF11D8081803311F4E6
:101A4000397E08C032FF05C00E5F04C0832F867840
:101A500009F00F5F33FD13C030FF06C01E2D0F15B8
:101A600018F41F0D101B0F2D0F1568F4B60180E23E
:101A700090E03B8B0E948B140F5F3B89F5CF0F15D5
:101A800010F4F01A01C0F12C34FF12C0B60180E34B
:101A900090E03B8B0E948B143B8932FF17C031FDD5
:101AA00003C088E790E002C088E590E0B6010CC072
:101AB000832F867859F031FF02C08BE201C080E2AB
:101AC00037FD8DE2B60190E00E948B14E11638F4E8
:101AD000B60180E390E00E948B141150F7CFEA9496
:101AE000F301EE0DF11D8081B60190E00E948B1490
:101AF000E110F5CF14C0F4E0FF1558F584E0F81AB2
:101B000033FE1EC0211026C003FF2AC004E510E0EA
:101B1000F32DF0713F2EF8018491811124C0FF2034
:101B200009F4E5CCB60180E290E00E948B14FA94AF
:101B3000F6CFF6018681978126C08FEF9FEF23C0F5
:101B4000B60180E290E00E948B14FA94F110F8CF75
:101B5000D9CFF12CB601822D90E00E948B14D4CF06
:101B600008E510E0D5CF31108052B60190E00E9418
:101B70008B140F5F1F4FCFCF23E02F1510F483E09E
:101B8000BECFF12CC1CF6396E2E10C94E91220FDA7
:101B900009C0FC0123FD05C022FF02C073836283DC
:101BA00051834083089544FD10C046FD10C0DB0101
:101BB000FC01AA0FBB1FEE1FFF1F1094D1F76A0F85
:101BC0007B1F8E1F9F1F31E003C033E001C034E054
:101BD000660F771F881F991F3150D1F7620F711D53
:101BE000811D911D08950F931F93CF93DF938C0157
:101BF000C8010E944D14EC0197FD08C00E94FA1321
:101C0000892BB1F7B801CE010E94FF14CE01DF91FC
:101C1000CF911F910F910895A0E0B0E0E2E1FEE0C6
:101C20000C94D3127C018B016A01D22F0E944D14B7
:101C30009C0133272B32310521F02D32310559F427
:101C4000D0680150110911F480E069C0C7010E94F9
:101C50004D1497FDF9CFCD2FCD7F2D2F207309F592
:101C60008033F9F4580181E0A81AB10809F443C09F
:101C7000C7010E944D1497FD3EC0282F2F7D2835A7
:101C800051F4C26402501109B1F1C7010E944D1410
:101C900097FF07C030C0D6FF02C0C26001C0C2615A
:101CA0008501812C912C540120ED280F283080F0E3
:101CB000C4FF04C0B7010E94FF141AC02A3040F0CC
:101CC000C6FFF8CF2F7D3FEE320F363098F7275002
:101CD0004C2FC501B4010E94D30D4B015C01C260C1
:101CE0000150110959F0C7010E944D1497FFDCCF34
:101CF000C1FD04C0A9CF812C912C5401C7FF08C09D
:101D0000B094A09490948094811C911CA11CB11C4F
:101D10002C2FB501A401C6010E94C70D81E0CDB7EB
:101D2000DEB7ECE00C94EF12A0E2B0E0EAE9FEE0EE
:101D30000C94CF124C015B017A018E010F5F1F4F93
:101D4000680180E2F80111928A95E9F7F401638055
:101D500040E050E0712C412C80E0A1E0B0E0F901BE
:101D600063FC559063FE51908F01952D9F0151109A
:101D700003C080E090E080C0FEE55F1203C0411523
:101D8000510561F1682F70E0641775074CF46DE53B
:101D9000561669F1EDE25E1203C0442009F103C05A
:101DA000411001C0752C692F669566956695F60100
:101DB000E60FF11D692F67708D0102C0000F111F22
:101DC0006A95E2F7B8017081672B6083971559F027
:101DD000971510F49F5FE7CF9150E5CF81E004C0E5
:101DE0004424439401C0412C4F5F5F4FB8CF44203F
:101DF00019F09E8190629E83811103C077247394B1
:101E000018C0F6019E012F5D3F4F80818095819320
:101E1000E217F307D1F7F2CFE114F10429F0F7014B
:101E20008083C70101967C0191E0A91AB108712C49
:101E3000E9F0C4010E944D1497FD16C0282F269585
:101E400026952695F601E20FF11D208130E0AC01C8
:101E50004770552702C0359527954A95E2F720FD32
:101E6000DBCFB4010E94FF14711083CFE114F104A1
:101E700011F0F7011082C801A096E0E10C94EB127A
:101E8000A6E0B0E0E6E4FFE00C94CD125C017B013B
:101E90001A010E944D149E838D8399278B329105E0
:101EA00021F08D9789F410E801C010E021E0E21ADA
:101EB000F10811F480E02CC1C5010E944D149E83ED
:101EC0008D8397FF02C0F6CF10E08D819E810E9426
:101ED00003148936910549F08E36910509F03BC00F
:101EE00068E0862E6AE0962E04C07BE0872E7AE0BA
:101EF000972EEFEF8E1A9E0AF4013197049100237A
:101F0000C9F081E0E81AF10871F0C5010E944D1492
:101F10006C0197FD08C00E940314081751F3B50126
:101F2000C6010E94FF149EE089169AE0990609F006
:101F3000C1CF05C0FBE08F16FAE09F0629F080E0D4
:101F400090E0A0E8BFE704C080E090E0A0ECBFE72D
:101F5000BC01CD01CDC0412C512C3201C12CD12C62
:101F60002D8120532A3018F5012F0260812F8870AF
:101F700012FF06C0811121C02FEFC21AD20A1DC064
:101F8000882319F081E0C81AD10840E2C301B201E8
:101F90000E94D30D2B013C0198E9491699E9590695
:101FA000690699E1790648F0012F066006C02E3FC8
:101FB00091F413FD10C0012F0860E1E0EE1AF10862
:101FC00049F0C5010E944D149E838D83102F97FF09
:101FD000C7CF01C0102F11FF6DCF8D818F7D85344C
:101FE00009F04EC04701F1E08F1A910809F462CF61
:101FF000C5010E944D149E838D8397FD5BCF992769
:102000008B32910519F08D9761F41061470122E040
:10201000821A910809F44ECFC5010E944D149E8387
:102020008D838D819E81C0970A9708F043CF7401FC
:10203000812C912CB401990C880B990B2D81205384
:1020400040E20E94D30DAB01BC014A0181E0E81AD5
:10205000F10871F0C50149835A836B837C830E9428
:102060004D149E838D83C09749815A810A9710F33E
:1020700014FF04C088249924841A950AC80CD91C1A
:10208000EF2841F0ED81FE81F7FD04C0B501CF01DD
:102090000E94FF14C301B2010E94BE11D7FE08C006
:1020A000D194C194D10857E2852E5AE0952E04C0F0
:1020B0004FE3842E4AE0942E5401F8E1AF1AB108A0
:1020C00030E2E32EF12CCE14DF0450F0F401259120
:1020D0003591459154910E94FB11CE18DF08F3CF42
:1020E00024E0821A9108F694E7948A149B0459F725
:1020F00017FF05C0DC01CB01B058BC01CD01211494
:10210000310429F0F101608371838283938381E03C
:102110002696E2E10C94E912A1E0B0E0E2E9F0E1F8
:102120000C94CF126C012B014A01FC01178216821C
:10213000A12CF601F380F201F3FC8591F3FE81916D
:10214000482F2F01882309F410C190E049830E9491
:10215000FA134981892B21F0C6010E94F30DE9CFC2
:10216000453241F4F201F3FC4591F3FE41912F0118
:10217000453269F4C60149830E944D14498197FD97
:10218000F2C04817B1F2B6010E94FF14EEC04A3205
:1021900039F4F3FC4591F3FE41912F0151E001C068
:1021A00050E0320100E010E020ED240F2A3088F4E6
:1021B0005260B80180E090E040E259830E94D30D64
:1021C0008B01F301F3FC4591F3FE41913F015981ED
:1021D000EBCFB52E342F230151FF04C0011511059B
:1021E00019F4C3C00FEF1FEF483619F04C3659F001
:1021F00013C0F301F3FC3591F3FE31912F01383612
:1022000059F45860B52EFB2DF460BF2EF201F3FC9B
:102210003591F3FE31912F01332309F4A6C0632FCA
:1022200070E086EF99E039830E940B143981892B85
:1022300009F49BC0B0FC07C0F401E080F180C40148
:1022400002964C0102C0E12CF12C3E3651F4F6010D
:102250004681578160E070E02B2DC7010E94C70DB9
:1022600068CF3336A9F4B1FC02C001E010E0C6012A
:102270000E944D1497FD77C0E114F10429F0F70195
:102280008083C70101967C010150110981F767C065
:102290003B3559F49201A701B801C6010E94940E82
:1022A0002C01892B09F05BC055C0C60139830E94FF
:1022B000F30D398197FD57C03F36D9F140F43436DC
:1022C000A1F13936C9F1383509F03DC02AC033379C
:1022D000A1F018F4303729F136C0353731F13837ED
:1022E00001F131C0E114F10429F0F7016082C70166
:1022F00001967C010150110971F0C6010E944D1434
:102300003C0197FD08C00E94FA13892B59F3B601CE
:10231000C3010E94FF14E114F10409F1F7011082D6
:102320001EC0FB2DF064BF2E07C08B2D8062B82E1F
:1023300003C09B2D9061B92E2B2DA701B801C601BA
:102340000E940C0E05C0A701B801C6010E94400FF3
:10235000811105C0F6018381807329F406C0B0FCA9
:10236000E8CEA394E6CEAA2019F08A2D90E002C010
:102370008FEF9FEF2196E0E10C94EB12E89409C0F7
:1023800097FB3EF490958095709561957F4F8F4FA8
:102390009F4F9923A9F0F92F96E9BB279395F695BE
:1023A000879577956795B795F111F8CFFAF4BB0F3C
:1023B00011F460FF1BC06F5F7F4F8F4F9F4F16C0A0
:1023C000882311F096E911C0772321F09EE8872F2A
:1023D000762F05C0662371F096E8862F70E060E0E6
:1023E0002AF09A95660F771F881FDAF7880F96955F
:1023F000879597F908950E940E120C947F120E94FF
:10240000711238F00E94781220F0952311F00C948C
:1024100068120C946E1211240C94B3120E94901244
:1024200070F3959FC1F3950F50E0551F629FF00127
:10243000729FBB27F00DB11D639FAA27F00DB11D40
:10244000AA1F649F6627B00DA11D661F829F2227C9
:10245000B00DA11D621F739FB00DA11D621F839F50
:10246000A00D611D221F749F3327A00D611D231F26
:10247000849F600D211D822F762F6A2F11249F5774
:1024800050409AF0F1F088234AF0EE0FFF1FBB1F77
:10249000661F771F881F91505040A9F79E3F510536
:1024A00080F00C9468120C94B3125F3FE4F3983EF2
:1024B000D4F3869577956795B795F795E7959F5FE0
:1024C000C1F7FE2B880F911D9695879597F9089572
:1024D00097F99F6780E870E060E008959FEF80ECD7
:1024E000089500240A94161617061806090608957A
:1024F00000240A9412161306140605060895092EE0
:102500000394000C11F4882352F0BB0F40F4BF2B4E
:1025100011F460FF04C06F5F7F4F8F4F9F4F08958E
:1025200057FD9058440F551F59F05F3F71F0479584
:10253000880F97FB991F61F09F3F79F08795089569
:10254000121613061406551FF2CF4695F1DF08C088
:10255000161617061806991FF1CF869571056105A5
:1025600008940895E894BB2766277727CB0197F94D
:102570000895AA1BBB1B51E107C0AA1FBB1FA617CA
:10258000B70710F0A61BB70B881F991F5A95A9F71C
:1025900080959095BC01CD0108952F923F924F9266
:1025A0005F926F927F928F929F92AF92BF92CF92E3
:1025B000DF92EF92FF920F931F93CF93DF93CDB7EC
:1025C000DEB7CA1BDB0B0FB6F894DEBF0FBECDBF64
:1025D00009942A88398848885F846E847D848C8435
:1025E0009B84AA84B984C884DF80EE80FD800C813E
:1025F0001B81AA81B981CE0FD11D0FB6F894DEBF21
:102600000FBECDBFED010895FC0188279927E894FE
:1026100021912032E9F3293010F02E30C8F32B320B
:1026200041F02D3239F4689404C00E944514820FA1
:10263000911D219120532A30C0F31EF4909581956D
:102640009F4F0895283008F027E03327DA01990FCB
:10265000311D87FD916000966105710539F4326086
:102660002E5F3D9330E32A95E1F708959F3F30F0C8
:1026700080387105610509F03C5F3C5F3D93913006
:1026800008F08068911DDF93CF931F930F93FF9203
:10269000EF92192F987F9695E92F96959695E90FC9
:1026A000FF27EA54FF4F99273327EE24FF24A70181
:1026B000E70105900894079428F4360FE71EF81EEA
:1026C000491F511D660F771F881F991F0694A1F798
:1026D0000590079428F4E70EF81E491F561FC11DE8
:1026E000770F881F991F661F0694A1F7059007941E
:1026F00028F4F80E491F561FC71FD11D880F991FB8
:10270000661F771F0694A1F70590079420F4490FE0
:10271000561FC71FD81F990F661F771F881F069463
:10272000A9F784911095177041F0D695C7955795E4
:102730004795F794E7941A95C1F7ECE5F0E06894B3
:102740001590159135916591959105907FE273955E
:10275000E118F10A430B560BC90BD009C0F7E10C85
:10276000F11E431F561FC91FD01D7EF4703311F494
:102770008A95E6CFE894015030F0080F0AF400275C
:10278000021708F4202F2395022F7A3328F079E3DB
:102790007D932A95E9F710C07D932A9589F60694D2
:1027A00097956795379517951794E118F10A430B9C
:1027B000560BC90BD00998F023957E9173957A3307
:1027C00008F070E37C932013B8F77E9170617D93DD
:1027D00030F0839571E37D9370E32A95E1F711243E
:1027E000EF90FF900F911F91CF91DF91992787FD77
:1027F0009095089591110C947615803219F08950B6
:102800008550C8F708959111089581548A5108F4AC
:10281000805E855A0895FC010590061621F000207F
:10282000D9F7C00108953197CF010895FB01DC016C
:102830004150504030F08D910590801919F40020DE
:10284000B9F7881B990B0895FC0105906150704001
:102850000110D8F7809590958E0F9F1F0895FC0169
:102860008191861721F08823D9F799270895319708
:10287000CF010895FC016150704001900110D8F71C
:10288000809590958E0F9F1F08957AE0979F902DC9
:10289000879F802D910D11240895CF93DF93EC0134
:1028A0002B8120FF33C026FF0AC02F7B2B838E8114
:1028B0009F8101969F838E838A8190E029C022FFA9
:1028C0000FC0E881F9818081082E000C990B0097D8
:1028D00019F420622B831AC03196F983E8830EC065
:1028E000EA85FB85099597FF09C02B81019611F0B8
:1028F00080E201C080E1822B8B8308C02E813F8162
:102900002F5F3F4F3F832E83992702C08FEF9FEFAA
:10291000DF91CF9108950F931F93CF93DF93FB0126
:10292000238121FD03C08FEF9FEF28C022FF16C037
:1029300046815781248135814217530744F4A08191
:10294000B1819D012F5F3F4F318320838C9326817E
:1029500037812F5F3F4F3783268310C0EB01092F4C
:10296000182F0084F185E02D0995892BE1F68E81E1
:102970009F8101969F838E83812F902FDF91CF912E
:102980001F910F910895A0E0B0E0E9ECF4E10C9400
:10299000DD12AE014B5F5F4FFA0161917191AF01A2
:1029A00080913702909138020E944B0AE2E00C9429
:1029B000F912A0E0B0E0EFEDF4E10C94DB12AE010F
:1029C000495F5F4FDA016D917D91AD0105E312E042
:1029D000F80182819381DC0113962C911397286072
:1029E00013962C930E944B0AD8011296ED91FC91FC
:1029F00013972381277F2383E4E00C94F712FB01D4
:102A0000238120FF12C026FD10C08F3F3FEF9307A8
:102A100061F082832F7D20642383268137812150BA
:102A2000310937832683992708958FEF9FEF089503
:102A3000FA01AA27283051F1203181F1E8946F93EF
:102A40006E7F6E5F7F4F8F4F9F4FAF4FB1E03ED095
:102A5000B4E03CD0670F781F891F9A1FA11D680F33
:102A6000791F8A1F911DA11D6A0F711D811D911D66
:102A7000A11D20D009F468943F912AE0269F1124DB
:102A80003019305D3193DEF6CF010895462F47703F
:102A9000405D4193B3E00FD0C9F7F6CF462F4F709A
:102AA000405D4A3318F0495D31FD4052419302D0F8
:102AB000A9F7EACFB4E0A69597958795779567959E
:102AC000BA95C9F700976105710508959B01AC019E
:102AD0000A2E06945795479537952795BA95C9F7C5
:102AE000620F731F841F951FA01D089599278827C3
:062AF0000895F894FFCFE9
:102AF60000005000A2000000000300000000EA08E9
:102B0600D9080000000000000001F20000000000EB
:102B16004000F201556E6B6E6F776E20636F6D6DC0
:0C2B2600616E643A20222573220A000030
:00000001FF
